:020000040000FA
:10000000A0280020F9020000010300000303000003
:1000100005030000070300000903000000000000C2
:100020000000000000000000000000000B030000C2
:100030000D030000000000000F030000110300008A
:1000400013030000130300009D0C000005090000CD
:100050001303000013030000A103000013030000BA
:100060001303000013030000130300001303000038
:100070001303000013030000130300001303000028
:100080001303000005060000130300001303000023
:100090002D090000130300001303000013030000E8
:1000A00013030000130300001303000013030000F8
:1000B0001303000013030000000000000000000014
:1000C00013030000130300001303000019090000CC
:1000D00013030000130300001303000000000000DE
:1000E0000000000000000000000000000000000010
:1000F0000000000000000000000000000000000000
:1001000000000000000000000000000000000000EF
:1001100000000000000000000000000000000000DF
:1001200000000000000000000000000000000000CF
:1001300000000000000000000000000000000000BF
:1001400000000000000000000000000000000000AF
:10015000000000000000000000000000000000009F
:10016000000000000000000000000000000000008F
:10017000000000000000000000000000000000007F
:10018000000000000000000000000000000000006F
:10019000000000000000000000000000000000005F
:1001A000000000000000000000000000000000004F
:1001B000000000000000000000000000000000003F
:1001C000000000000000000000000000000000002F
:1001D000000000000000000000000000000000001F
:1001E000000000000000000000000000000000000F
:1001F00000000000000000000000000000000000FF
:10020000DFF80CD000F0BAF800480047551A00009B
:10021000A028002030B4044654E8000F0D4644E8FE
:100220000053002BF8D1156030BC704730B4044641
:1002300054E8000F40EA010544E80053002BF7D1D1
:10024000156030BC704730B4044654E8000F00EA33
:10025000010544E80053002BF7D1156030BC70470E
:1002600030B4044654E8000F80EA010544E8005326
:10027000002BF7D1156030BC704730B4044654E809
:10028000000F00EB010544E80053002BF7D1156087
:1002900030BC704730B4044654E8000FA0EB0105B1
:1002A00044E80053002BF7D1156030BC704770B4A0
:1002B00004464FF0000054E8006F0D68AE4207BFDF
:1002C00044E80023012044E800630E60002B1CBFBB
:1002D0000020F0E770BC704730B4044654E8000FCB
:1002E00088422CBF451A054644E80053002BF5D13F
:1002F000156030BC7047000006488047064800473C
:10030000FEE7FEE7FEE7FEE7FEE7FEE7FEE7FEE7C5
:10031000FEE7FEE7510900000102000000487047B7
:10032000744F000040EA01039B0703D009E008C9AD
:10033000121F08C0042AFAD203E011F8013B00F8AA
:10034000013B521EF9D27047D2B201E000F8012BF6
:10035000491EFBD270470022F6E710B513460A4645
:1003600004461946FFF7F0FF204610BD421C10F866
:10037000011B0029FBD1801A70470000064C074D75
:1003800006E0E06840F0010394E807009847103465
:10039000AC42F6D3FFF738FF245000004450000071
:1003A0002DE9F04F89B00027002008904FF48070AD
:1003B00007900126002412E0079801F0F9FF40B1F0
:1003C00000BF7B480068304018B1079801F0E2FF99
:1003D000374376000798001D80B20790641C082CF4
:1003E000EAD34FF4BE7001F0E3FF50B14FF4BE709A
:1003F00001F0D0FF47F0004708AA0121002001F0DA
:10040000AFFFF8B200B3012600241BE006EA0700A4
:10041000B0B100BF674850F82400C0F30420804604
:1004200000BF644850F82400C0F3014081462046D4
:1004300000F014FE054615B149464046A84700BFE6
:100440007600641C082CE1D307F0004000287DD022
:10045000002006900590002505E04FF0FF3004A92C
:1004600041F825006D1C002DF7D000BF002006903C
:1004700000245FE05048005D0390039820F0C0091D
:100480004D480057401C002853D004A9484601F0AD
:100490008FFC00284DD003984FEA901A484600F090
:1004A00025FE804600F0DAFD0290029810B9BAF1FC
:1004B000030F3DD1BAF1030F03D105A9484601F05E
:1004C00082FC00BF00BF4FF0A041084600F5E0618C
:1004D00051F82910C1F3014800BF08A9484601F0AE
:1004E00067FC8346BBF1000F02D0B8F1020F05D0C4
:1004F000BBF1000F1BD1B8F1030F18D1BAF1030FF4
:100500000FD1B8F1020F01D1032000E002200190C9
:100510004846019901F0D3FE0698401CC0B20690EF
:1005200000BF029818B151464846029A904700BF52
:1005300000BF641C042C9DD3069888B34FF00108BB
:1005400003AA0121002001F00BFF00E02DE00025AF
:100550000BE003A850F8250008A951F8251088429F
:1005600002D04FF0000802E06D1C002DF1D000BF5A
:10057000B8F1000F02D00020069010E000250CE03A
:1005800003A850F8250008A941F8250005A850F84F
:10059000250004A941F825006D1C002DF0D000BFF6
:1005A000069800287FF462AF00BF09B0BDE8F08F65
:1005B00004630040106500402C01002000F01F0281
:1005C00001219140024A430942F82310704700007C
:1005D00080E200E000F01F020121914042099200F8
:1005E00002F1E022C2F800117047000000F01F0283
:1005F00001219140024A430942F82310704700004C
:1006000000E200E010B50020094908600021094817
:10061000C0F84411C0F84811C0F84C110020054939
:10062000C1F8000102493C39086003F005FE10BD25
:1006300040110140001001402DE9FC4700203249E3
:10064000087001900120034601AA202100902F4844
:1006500001F010FC8246BAF1000F10D12C492D4A4E
:10066000891AC908032242EA01402BA102F040F98D
:1006700000BF00BF01F0B4FF0028FBD110E0244907
:10068000244A891AC908032242EA01402BA102F038
:100690002FF900BF00BF01F0A3FF0028FBD100BF6E
:1006A00000BF194800780028FBD0002027490870B7
:1006B000164D2026264F4FF00108814643463A4604
:1006C0003146281D02F036FF81464C4600BF94B9E2
:1006D0000F49104A891AC908032242EA01403946E3
:1006E0000A781CA102F00EF900BF00BF01F078FFEC
:1006F0000028FBD100BF00BF144800780028FBD0C1
:1007000013480078BDE8FC871D000020584D00000C
:100710008450000054500000526561647920746F69
:1007200020726561642066726F6D20696E707574E9
:1007300020726567697374657221000054574920FF
:100740006973204275737921000000001C000020AD
:100750001B00002052656164696E6720696E7075C8
:1007600074207265676973746572307825780A0D34
:1007700000000000FEB5002500203549087035A0B6
:10078000006802900020022302AA20210090324833
:1007900001F070FB0646002E1CD101252F49304A7E
:1007A000891AC908032242EA014020222DA102F041
:1007B000A9F82A492A4A891AC908032242EA0140AB
:1007C00032A102F095F800BF00BF01F009FF002838
:1007D000FBD100BF00BF1E4800780028FBD00020DE
:1007E0001B49087034A0006801900020022301AA70
:1007F00020210090184801F03DFB044684B91749B8
:10080000174A891AC908032242EA01402BA102F0C3
:100810006FF800BF00BF01F0E3FE0028FBD100BF6E
:1008200000BF0B4800780028FBD04DB90B490C4A9B
:10083000891AC908032242EA01402CA102F058F8A3
:1008400000BF00BF01F0CCFE0028FBD100BFFEBD01
:100850001D000020030F0000584D000084500000D0
:1008600054500000545749206465766963652064DC
:100870006574656374656420617420616464726585
:10088000737320307825782E00000000434F4E46C9
:10089000494755524154494F4E20524547495354B8
:1008A000455220484153204245454E204D4F444932
:1008B000464945440000000045F00000494E5445BB
:1008C0005252555054204D41534B205245474953A5
:1008D00054455220484153204245454E20434F4EF7
:1008E0004649475545524544000000004E6F20647C
:1008F00065766963652077617320666F756E642E17
:100900000000000010B50249024803F0B1FD10BD1F
:10091000A40100200030004010B50249024803F055
:100920009BFA10BD380100200030024010B503F0E2
:10093000DDFB10BD0122014B1A7070470000002042
:1009400001480249086070470090D003CC000020A5
:1009500010B500F081FC28B192480088C0F3042053
:100960009149086000F0CCFC10B19048904948676C
:1009700000F0EEFC30B18B48E0380068C0F3423044
:100980008C49086000F00EFD28B18B48006820F00B
:1009900080708949086000F01DFD48B1002087493A
:1009A00008604FF08041C1F810018249091F0860BA
:1009B00000F03AFD18B103207E496431086000F070
:1009C0004BFD68B105207E49086001207C497831E3
:1009D000086000207A49083108603F20091F08603C
:1009E00000F052FD002855D06E48E030006875498F
:1009F00008606C48E4300068091D08606948E83008
:100A00000068091D08606748EC300068091D08602F
:100A10006448F0300068091D08606248F4300068DE
:100A2000091D08605F48F830006866492031086099
:100A30005C48FC300068091D086063480068091DB7
:100A400008606148001D0068091D08605E480830A4
:100A50000068091D08605C480C300068091D0860CA
:100A600059481030006857494031086056481430E2
:100A70000068091D0860544818300068091D0860A6
:100A800051481C300068091D08604F48203000683C
:100A9000091D086000F0B6FB30B14248CC38006850
:100AA00000F04F004949086000F000FC40B14848A0
:100AB000006800F0010018B16FF0010044490860BF
:100AC00000F036FC28B14348006840F4806041499A
:100AD000086039487438006840F470003649743949
:100AE000086000BF00BF00BFBFF34F8F00BF00BF53
:100AF00000BF00BF00BF00BFBFF36F8F00BF00BFCC
:100B000000BF3548006800F0004028B93248001D99
:100B1000006800F00040E8B301203049086000BFE1
:100B20002F4800680028FBD015202B49086000BF23
:100B30002B4800680028FBD015212748001D0160C4
:100B400000BF274800680028FBD000202349086028
:100B500000BF234800680028FBD000BF00BF00BFD3
:100B600000BF00BFBFF34F8F00BF00BF00BF1248E0
:100B7000F038006800F4E0601A490843001D0E498F
:100B8000F039086000BF00BF00BFBFF34F8F00BF48
:100B900000BF00E003E000BF00BF00BFFDE7FFF7BC
:100BA000CFFE10BD24030010403501400DF0ADBA5A
:100BB00000C007403C050040FCED00E00C01004097
:100BC0001056004020C5004024040010E40E0040F0
:100BD000000400403C1700400012001004E50140F2
:100BE00000E401400000FA057CB50446257828079A
:100BF000050E00201C4908701CA0006801908DF8AB
:100C000005500120022301AA20210090184801F07C
:100C100031F9064686B91749174A891AC9080322C5
:100C200042EA014015A101F063FE00BF00BF01F0E0
:100C3000D7FC0028FBD110E00E490F4A891AC908D9
:100C4000032242EA014011A101F052FE00BF00BFA1
:100C500001F0C6FC0028FBD100BF00BF02480078AD
:100C60000028FBD07CBD00001D000020010000001A
:100C7000584D000084500000545000005475726EAE
:100C8000696E67206F6E204C6564200054574920C0
:100C900069732042757379210000000010B5024984
:100CA0000868804710BD00002C00002002E008C842
:100CB000121F08C1002AFAD170477047002001E0D6
:100CC00001C1121F002AFBD17047000072B600BF9D
:100CD00001F0CAFE00BF00BF01F082FC0028FBD17A
:100CE00000BF00BF1D491E4A891AC908012242EAF5
:100CF00001401CA101F0FCFD00BF1D48006800F090
:100D0000010000B100BE00BF1449154A891AC90884
:100D1000022242EA014017A101F0EAFD00BF00BF34
:100D200000BF00BF00BFBFF34F8F00BF00BF00BFB9
:100D30000F48E438006800F4E06012490843001DE1
:100D40000B49E439086000BF00BF00BFBFF34F8FFD
:100D500000BF00BF00BF00BF00BFFDE78450000020
:100D600054500000466174616C206572726F7200AD
:100D7000F0ED00E053797374656D207265736574EE
:100D8000000000000000FA053EB504460020009077
:100D90000190029002946A46002144F20100FFF79C
:100DA00095FF3EBD00B5024600F006F800BD00B557
:100DB000024600F00BF800BD72B603480068401C04
:100DC000014908607047000058000020044800688E
:100DD000401E034908600846006800B962B67047C3
:100DE0005800002070B505460C462068401C28B10C
:100DF000206801F094FA206801F049FA6068401C0C
:100E000018B10021606801F028FA2868A169C0F8CB
:100E1000241500BF617D227D286841EA0203C0F8E5
:100E20006C3500BFD4E90012286801F0C5FF207DB1
:100E3000012814D1A068401C18B10021A06801F05D
:100E40000CFAE068401C28B1E06801F068FAE0683C
:100E500001F01DFAD4E90221286801F096FF70BD67
:100E600070B505460C462068401C28B1206801F08A
:100E700061FA206801F017FA6068401C18B100217F
:100E8000606801F0F7F92868A169C0F8241500BF6F
:100E9000617D227D286841EA0203C0F86C3500BFFD
:100EA000D4E90012286801F0BAFF207D012814D18E
:100EB000A068401C18B10021A06801F0DBF9E068CF
:100EC000401C28B1E06801F035FAE06801F0EBF968
:100ED000D4E90221286801F088FF70BD002114E0E8
:100EE0000C48D0F81024012308E000BFD068007936
:100EF000884201D1002303E0D0680268002AF4D1BF
:100F000000BF0BB108467047491C0A29E8DB4FF0C7
:100F1000FF30F8E77C0400202DE9F84F04460D4629
:100F20001646A71C4FF001080020FFF73BFF304892
:100F3000006828602E4800682D494968411A2C48ED
:100F40008068401CA0EB010915E00121294800F050
:100F500091FE00F01BFD82465146264800F08AFEB5
:100F60002348006822494968411A21488068401C8A
:100F7000A0EB010900BF4F45E7D8B8F1000F30D012
:100F80000021009176B1009921F00301491C0091E4
:100F9000009921F00401091D0091009964F3891161
:100FA00000910DE0009921F00301891C0091009946
:100FB00021F00401091D0091009964F39F510091F3
:100FC0000B4909680A4A92681140094A0C3202EB3F
:100FD0008100009901600649096839440C3A1160A2
:100FE00000BF0020FFF7E3FE4046BDE8F88F000099
:100FF0007C0400209808002070B504460D460A2D98
:1010000003D10D212046FFF7F7FFA168481CA0601F
:1010100020684554D4E90110884202D3204600F0EC
:101020009AFF70BD0448406803490968884201D1AD
:10103000012070470020FCE77C0400204FF0FF31C6
:10104000054A42F82010082804DBFF23A0F108011C
:101050005032535470470000DC0000200146024823
:1010600050F8210070470000DC0000202DE9F04F0F
:1010700003460C464FF0FF390AB1002000E008207B
:1010800084460AB1082000E00C208046614624E036
:10109000154850F82100401CF0B91D460846274667
:1010A00016464FFA80FBDFF840A00AF1300A0AF832
:1010B00005B0DFF834A04AF820704EB94FFA85FB2E
:1010C000A0F1080ADFF820E00EF1500E0EF80AB089
:1010D00000BF4FFA81F902E0491C4145D8D300BF57
:1010E0004846BDE8F08F0000DC00002001460148C2
:1010F000405670470C0100202DE9F04782461F48FA
:101100000068002836D01D480068056802F038FDE8
:1011100007461B4804682146384602F0DBFFC61C20
:101120001848007808B902F031FDAE4201D22846D5
:1011300000E03046044424F07F44204602F01AFDCB
:1011400002F01EFD80463946404602F0C3FF00F122
:1011500003093946204602F0BDFF814509D902F056
:101160000FFD814602F006FD2F2001F077FE03F00F
:10117000AFF801E002F028FDBDE8F0874400002050
:10118000480000205600002010B50021034800F060
:1011900087FD044684F3100010BD0000980800206D
:1011A000014614480078144A127890421DD0114824
:1011B0000078401C0F4A107010460078022801D1B8
:1011C000002010700D480B4A127850F82200086079
:1011D0000B4A086812681044094A106010460068FB
:1011E00020F07F401060012070470020086000BFA1
:1011F000FAE7000054000020550000204C000020B9
:101200004800002013480078062820D11148001D0E
:10121000007800F00F00D0B90E480830007800F0D8
:10122000F000302801D1012070470A4808300078CA
:1012300000F0F000402801D10120F5E70548083012
:10124000007800F0F000502801D10120ECE70020E8
:10125000EAE70000E00F00F013480078062820D1EC
:101260001148001D007800F00F00D0B90E4808307A
:10127000007800F0F000302801D1012070470A48C2
:101280000830007800F0F000402801D10120F5E797
:1012900005480830007800F0F000502801D1012006
:1012A000ECE70020EAE70000E00F00F013480078C8
:1012B000062820D11148001D007800F00F00D0B999
:1012C0000E480830007800F0F000302801D10120ED
:1012D00070470A480830007800F0F000402801D13B
:1012E0000120F5E705480830007800F0F0005028AC
:1012F00001D10120ECE70020EAE70000E00F00F058
:101300000A48007806280ED10848001D007800F031
:101310000F0040B905480830007800F0F000302890
:1013200001D1012070470020FCE70000E00F00F031
:1013300006480068062806D10448001D00680628F3
:1013400001D1012070470020FCE7000030010010AF
:1013500013480078062820D11148001D007800F0BD
:101360000F00D0B90E480830007800F0F0003028A7
:1013700001D1012070470A480830007800F0F000E1
:10138000402801D10120F5E705480830007800F039
:10139000F000502801D10120ECE70020EAE700002E
:1013A000E00F00F00A48007806280ED10848001D1A
:1013B000007800F00F0040B905480830007800F0D0
:1013C000F000302801D1012070470020FCE7000028
:1013D000E00F00F013480078062820D11148001DC6
:1013E000007800F00F00D0B90E480830007800F007
:1013F000F000302801D1012070470A4808300078F9
:1014000000F0F000402801D10120F5E70548083040
:10141000007800F0F000502801D10120ECE7002016
:10142000EAE70000E00F00F00A48007806280ED135
:101430000848001D007800F00F0040B9054808304A
:10144000007800F0F000302801D101207047002022
:10145000FCE70000E00F00F00A48007806280ED1F3
:101460000848001D007800F00F0040B9054808301A
:10147000007800F0F000302801D1012070470020F2
:10148000FCE70000E00F00F00A48007806280ED1C3
:101490000848001D007800F00F0040B905480830EA
:1014A000007800F0F000502801D1012070470020A2
:1014B000FCE70000E00F00F0F0B5034600241FE059
:1014C000124E306806689E4203D90668F61A066016
:1014D0001AE006689B1B06683444002606600B4E23
:1014E00035680A4FC6693E60C66846B10E1926F0D7
:1014F0007F464660C66886601668C661156000BF94
:10150000024800680028DBD100BFF0BD4400002085
:101510002DE9F8431F480068009003208DF8010072
:1015200001F088FD064686B11B491C4A891AC90884
:10153000032242EA01401AA101F0DAF900BF00BF1C
:1015400001F04EF80028FBD100BF1B4A694611206C
:1015500001F0F6FC06460121112001F09BFC082059
:1015600001210A4600242346254600BF4FF0A04C27
:10157000674641EA420C4CEA840C4CEA032C4CEAE4
:10158000054807F5E06C4CF8208000BF00BFBDE8BF
:10159000F8830000784D0000845000005450000093
:1015A0004750494F5445204E4F5420494E495449C5
:1015B000414C495A45440000350900002DE9FC5FC3
:1015C00083460E4691461F46DDE90C45002E01DAA2
:1015D000704200E0304682464FF0010803E09AFB7B
:1015E000F9FA08F10108CA45F9DA474500D9B846C1
:1015F00034B1002E03DB05F00400042800D1641E82
:1016000005F0020000B167B105F0010048B944B12E
:1016100004E0641E20215846FFF7EEFC0CB1A04503
:10162000F7D3002E05DA76422D215846FFF7E4FC69
:1016300007E005F00400042803D12B215846FFF7EA
:10164000DBFC05F0020002280DD105F0010050B9C5
:101650004FB944B104E0641E30215846FFF7CCFC7A
:101660000CB1A045F7D33B464A4631465846CDE932
:10167000004503F001FBBDE8FC9F000070B5054686
:101680000949286801F086FB286801F0F7FB044649
:10169000204600F01F0201219140044A430942F80C
:1016A000231000BF00BF70BD8402020080E100E093
:1016B00070B505460949286801F09DFB286801F0CE
:1016C000E1FB0446204600F01F0201219140044A3C
:1016D000430942F8231000BF00BF70BD1003020091
:1016E00080E100E02DE9F04104460E464FF48E7192
:1016F000206801F043FB4FF4A271206801F03EFB2B
:101700001749206801F049FB206801F0B7FB054646
:10171000374628463946002809DA4A074FEA126C4C
:10172000104A00F00F031B1F02F803C003E04A0732
:10173000130E0D4A135400BF00BF206801F09EFB3A
:101740000546284600F01F020121914042099200FF
:1017500002F1E022C2F8001100BF00BFBDE8F08135
:101760008000020018ED00E000E400E02DE9F04107
:1017700004460E464FF48871206801F02FFB4FF4A9
:101780009071206801F02AFB4FF49271206801F0FB
:1017900025FB4FF4A271206801F020FB1749206857
:1017A00001F02CFB206801F06DFB0546374628460A
:1017B0003946002809DA4A074FEA126C104A00F04D
:1017C0000F031B1F02F803C003E04A07130E0D4A64
:1017D000135400BF00BF206801F054FB05462846A3
:1017E00000F01F02012191404209920002F1E02223
:1017F000C2F8001100BF00BFBDE8F0811003020075
:1018000018ED00E000E400E030B502460020137857
:10181000C3F38003D3B1137803F00303012B02D089
:10182000022B10D107E01388C3F383139B1C0C68B1
:1018300023440B6008E00B680225146805EB945400
:1018400023440B6000E000BF00BF012030BD00005A
:101850002DE9F041064600274748D0F8008078E09F
:1018600016B13446E66947E04448007800EB400191
:101870004248001D00EBC105001F0078401C3F4995
:101880000870084600788978884202D100203B49D8
:1018900008706C68287801281AD0022802D0032822
:1018A00017D107E0686802F083FC00B1012700202F
:1018B00020744EE007E030490868002101742E4A88
:1018C000C169116000BF2C4800680028F3D140E0D6
:1018D00000E03EE000BF207C00B13AE0A868606014
:1018E000E868A0602869E0606869A0612448007821
:1018F00008B10020606000BF224960680968401A92
:1019000020F07F402049884208D21E49606809685B
:1019100002F0E0FBA168084420600FE0194861680C
:10192000006802F0D7FB0546A068A84203D9A0686A
:10193000401B206001E00020206000BF00206060AC
:10194000A060012020740020E061204602F0FCFB32
:1019500000BF002E84D109480078084949788842A0
:10196000F8D11FB904480068404502D00120BDE805
:10197000F0810020FBE7000044000020D801002097
:101980005700002048000020FFFF7F002DE9FF41A5
:1019900000272E4800F067F92C48001F00F063F97B
:1019A0002B48406803902A488568039828402849B6
:1019B0000C3101EB800800BF03A94046FFF724FF6C
:1019C00030B10398284022490C3101EB800800E037
:1019D00000E0F1E700BF00240AE00398411C284022
:1019E00003911B490C3151F820004DF82400641C70
:1019F000022CF2D3009800F0030001280DD0022839
:101A000014D1BDF806700421009801EB9050401EDF
:101A1000039901EB9000039009E0BDF8067000986F
:101A2000C0F3831003990844039000E000BF00BF97
:101A30000648001F00F010F9064616B10449039845
:101A40004860384604B0BDE8F081000094080020EA
:101A50007C04002008B502F05FF90A2000F0BEF90E
:101A600002F09EFC0A2000F0B9F9FEF783FE0A207E
:101A700000F0B4F9FFF74CFD0A2000F0AFF900BF09
:101A80004FF40041002000F0A7FF044624B100BF3E
:101A90002046FFF779F900BF00BF00F08DFD7720E9
:101AA00026490870FF204870FEF7C6FD24490870DB
:101AB0002248401CFFF798F83FE02248007820B306
:101AC0000020204908700820002161B900BF00BF34
:101AD0004FF0A0421346012404FA00F2C3F80C258B
:101AE00000BF00BF0CE000BF00BF4FF0A042134694
:101AF000012404FA00F2C3F8082500BF00BF00BFAC
:101B000000BFFEF799FD0E4908700FA00068009015
:101B10000B4800788DF8010000200C4908706846D9
:101B200002F012FA4FF4FA7001F080F907480078D9
:101B300010B10748FFF758F800BFBEE70D000020BE
:101B40000C00002000000020200000000100002008
:101B5000020000202DE9FF4F87B0044691461E4643
:101B6000A2462546BAF806009AF805104843001F19
:101B70000690BAF806B0301DB0FBFBF00590301DA2
:101B8000B0FBFBF10BFB11000490D9F800008119A8
:101B90000698814202D90698801B01E0D9F800001E
:101BA0000746C9F8007003E02D680598401E0590AF
:101BB00005980028F8D103900498ABEB0008B845CD
:101BC00001D9384600E04046804623E00399089852
:101BD00008440290281D049908440190149828B1E3
:101BE0004246DDE90110FEF79DFB04E04246DDE9D7
:101BF0000101FEF797FB002004902D68A7EB080772
:101C0000039840440390BB4501D9384600E058464C
:101C1000804600BF002FD9D10BB0BDE8F08F000087
:101C200070B503460C469CB100F002FF0546002249
:101C30000AE0084800EB820108881E68B04202D121
:101C40001A60002070BD521CAA42F2D30520F9E7A9
:101C50000020F7E70000000010B5044600212046F0
:101C600000F013F810BD10B504460121204600F025
:101C700022F810BDF8B504460D466A4629462046AE
:101C8000FEF7FBFA06460098F8BDF8B504460D4687
:101C90006A4629462046FEF7D6FA06463046F8BD83
:101CA000F8B504460D466A4629462046FEF7B2FAC4
:101CB00006463046F8BDF8B504460D466A46294644
:101CC0002046FEF7B3FA06460098F8BDF8B504467C
:101CD0000D466A4629462046FEF7DCFA064600987D
:101CE000F8BD70B5044600260020FFF75BF82068B9
:101CF00000686168884215D920680068401E226823
:101D000010600178204600F02FF80646207A2168FE
:101D10000978401AC5B220680079A84201DA206823
:101D2000057100BF0020FFF742F8304670BD024643
:101D3000D068081A138AB0FBF3F0C0B2704770B5D0
:101D400004460D462E460020FFF72CF8314620466B
:101D5000FFF7EDFF21680A68511C236819601070B5
:101D60000020FFF724F870BD0246138AD06801FBFB
:101D70000300704710B5014600BF09B90E2010BD21
:101D800000BF087A0B79C01AC2B2D1E900301860DE
:101D900005E008680368581C0C6820601A70101E63
:101DA000A2F10103DAB2F4D10B68187100BFE6E7C3
:101DB00030B502460B46D40802F0070201209040DD
:101DC0001D5D284030BD30B50B46C20800F007004D
:101DD0009C5C012585402C439C5430BD10B50446C5
:101DE00004B910BD00BF4FF47A7001F01FF8601EF7
:101DF000041EF8D100BFF4E72DE9F04104460F4678
:101E000015462679054840F826503346044A394697
:101E1000204601F0FDF9BDE8F0810000D00000206F
:101E20003D3E00002DE9F04704460D461646984613
:101E300027780D4840F827600C4840F82780687BD9
:101E400010B1284602F04AFA4FF000090EB10848D6
:101E500000E0002002463B462946201D01F0DCFA46
:101E600081464846BDE8F087340000203C00002051
:101E7000294400002DE9F84304460D4616461F4646
:101E8000DDF820804FF000093B4632462946201DF0
:101E9000CDF8008001F066FB81464846BDE8F88336
:101EA0002DE9F04188B004460F46154626781A48B9
:101EB00040F826501949386941F82600787F1849BA
:101EC0008855202239466846FEF72CFA04964FF0D2
:101ED000000820781249085C50B10DB1114800E0AB
:101EE000002002466946201D01F048FC80460EE0B5
:101EF00020780B49085C50B90DB10B4800E0002078
:101F00000246694604F10C0001F070FB8046404631
:101F100008B0BDE8F081000020000020240000206F
:101F2000280000203D4B00004D4900000FB438B59B
:101F30000446059810B938BC5DF814FB00200090E9
:101F400006A800906A462046059900F012F8002085
:101F5000009000BFEFE770B50446A06800B970BDFF
:101F6000D4E90403A268216898470020A06000BF5C
:101F7000F5E72DE9FC5F82460D4614460DB9BDE834
:101F8000FC9F00BF2E786D1C06B9E1E0252E70D1B4
:101F900000274FF0010900BF2E782B2E0CD02D2EDC
:101FA00002D0302E0CD103E047F001076D1C0AE08F
:101FB00047F002076D1C06E047F004076D1C02E0C5
:101FC0004FF0000900BF00BFB9F1000FE4D14FF09E
:101FD000000800BF2A2E06D12168081D206008686D
:101FE00080446D1C0DE02E78302E01DB392E00DD93
:101FF00007E06D1CA6F1300008EB880100EB4108FA
:10200000E8E700BF4FF0000B2E782E2E10D16D1C8C
:1020100000BF2E78302E01DB392E00DD07E06D1C6D
:10202000A6F130000BEB8B0100EB410BF1E700BF99
:102030002E7800BF6C2E01D0682E02D16D1C2E7838
:1020400000E000E0F6E700BF692E21D008DC252E75
:102050006DD0582E39D0632E0CD0642E6CD116E082
:10206000702E4CD0732E3ED0752E1FD0782E63D19B
:102070002AE065E02168081D2060D1F8009009F091
:10208000FF00019050460199FEF7B6FF55E000BFF2
:102090002168081D2060D1F800905B460A2249465D
:1020A0005046CDE90087FFF789FA46E02168081D10
:1020B0002060D1F800905B460A2249465046CDE99F
:1020C000008702F0D9FD38E000BF2168081D2060BC
:1020D000D1F800905B46102249465046CDE9008772
:1020E00002F0CAFD29E02168081D206008680190FF
:1020F0003B4642465046019901F0B2FF1DE021687F
:10210000081D2060D1F8009030215046FEF774FF82
:1021100078215046FEF770FF002008210B46102260
:10212000CDE900104946504602F0A6FD05E0252104
:102130005046FEF761FF00E000BF00BF6D1C03E0EA
:1021400031465046FEF758FF287800287FF41AAF32
:1021500000BF9AF80C0010B15046FFF7FCFE00BF1C
:102160000DE7F0B5DDE9054500BF4FF0A0473E465D
:1021700041EA420747EA830747EA042747EA054C52
:1021800006F5E06747F820C0F0BDF0B5DDE905458C
:1021900000BF4FF0A0473E4641EA420747EA8307A7
:1021A00047EA042747EA054C06F5E06747F820C0F0
:1021B000F0BDF0B5DDE9054500BF4FF0A0473E4654
:1021C00041EA420747EA830747EA042747EA054C02
:1021D00006F5E06747F820C0F0BDF0B5DDE905453C
:1021E00000BF4FF0A0473E4641EA420747EA830757
:1021F00047EA042747EA054C06F5E06747F820C0A0
:10220000F0BDF0B5DDE9054500BF4FF0A0473E4603
:1022100041EA420747EA830747EA042747EA054CB1
:1022200006F5E06747F820C0F0BD1CB50446002065
:10223000009003460122014601902046FFF7B9FFB6
:102240001CBD1CB504460020009003460122014637
:1022500001902046FFF7C1FF1CBD7CB505460C462A
:102260000020009023460246014601902846FFF7D1
:10227000A0FF7CBD7CB505460C460020009023469F
:102280000246014601902846FFF7A7FF7CBD1CB51A
:10229000044600200090034601221146019020468A
:1022A000FFF787FF1CBD1CB50446002000900346C5
:1022B0000122114601902046FFF78FFF1CBD10B58B
:1022C0000A4600BF4FF0A043194601F5E06353F8FA
:1022D000203023F4403401F5E06343F8204053F804
:1022E000203043EA024401F5E06343F8204010BD8A
:1022F00000BF4FF0A0410A46012303FA00F1C2F8E3
:102300000C1500BF7047014600BF4FF0A0400246C9
:1023100000BFD2F81005C84000F00100704700BFB0
:102320004FF0A0410A46012303FA00F1C2F8081554
:1023300000BF704700BF4FF0A0410A46012303FAD7
:1023400000F1C2F8081500BF704700BF4FF0A04170
:102350000A46012303FA00F1C2F8081500BF7047CE
:1023600038B50B46074C24680094014606E05DF83A
:102370002140D4F810551560121D491CC4188C4218
:10238000F5D838BD7C4D000001460148084470472F
:102390000060004038B504462046FFF7F5FF0021F5
:1023A00001602046FFF7F0FF0068009000BF38BDD5
:1023B00010B504462046FFF7E7FF0068012800D16A
:1023C00010BD0020FCE700000149086070470000D4
:1023D0000463004070B504460E46FEF77FFD0546D7
:1023E000681C08B9284670BDE8B2E168087100BFF2
:1023F0000C48D0F8100430B90A48C0F81044002046
:10240000E16808600BE00748D0F81004C068006875
:10241000E16808600348D0F81004C06804602846EA
:10242000E1E700007C0400202DE9F04F93B08246E4
:102430000E4617469846DDF87090304600F0F1FBE6
:1024400018210DA8FDF787FF0D97CDF83880CDF83E
:10245000489000252B46082207A9304600F0FEFBD5
:10246000082509980A90BDF82000ADF82C00BDF8A9
:102470002200ADF82E0000208DF83100079800F002
:10248000030001281BD107984FEA902B0798C0F34F
:10249000C2008DF830000798C0F38314A2002B46C9
:1024A00001A9304600F0DAFB05EB84050DA80AAB64
:1024B000224601A90090584600F0F2FA27E007985A
:1024C00000F00300022822D107984FEA905B07989A
:1024D000C0F3C2008DF8300000BFBBF1080F01D27D
:1024E000584600E0082004462B46224605A93046FF
:1024F00000F0B4FB2544ABEB040B0DAB0AAA21465C
:1025000005A800F00BFABBF1000FE6D100BF304682
:1025100000F095FB13B0BDE8F08F704710B50124B3
:10252000204602F035FA10BD70B505460A4C2078F9
:102530000A49085C18B1201D01F0C4F907E02078B1
:102540000649085C18B904F10C0001F0EBF800BF73
:10255000002002F01DFA70BD5C0000202800002061
:1025600038B504460D4604484023044A29460090E5
:102570002046FFF759FF38BD993C0000E4020020D7
:1025800010B502460B4C04EBC203012906D0022908
:1025900006D0032906D0042908D105E0022007E06F
:1025A000042005E0187903E0587901E0002000BF1D
:1025B00000BF10BD5450000010B54FF0FF34FFF7BE
:1025C000ADFF04210548FFF705FF044600BF0120C9
:1025D0000249C968487100BF10BD000044500000A6
:1025E0002DE9F04F8BB0FEF71DFD18B100200BB0A8
:1025F000BDE8F08F0020B549C1F8180400BF00BF46
:1026000000BFBFF34F8F00BF00BF00BF0846406848
:102610000A90084684680A9820400C3101EB800A31
:10262000002500260020069000BF0AA95046FFF7AB
:10263000EBF8A8B1A548D0F8180488B9A3480068F9
:102640000A99884205D8A1480068A049486000203E
:10265000CDE70A9820409D490C3101EB800A00E04B
:1026600000E0E2E700BF00270BE00A98411C204091
:102670000A9196490C3151F8200007A941F827002A
:102680007F1C022FF1D3079800F0030002287CD1B1
:102690000798800D059050210798B1EB905F02DDFF
:1026A0000798800D00E050208146079869F39F50FD
:1026B000079009F1080004900798C0F3C200069043
:1026C0008348049900F050FA0546002D5BD0284657
:1026D00000F0A7FA3346082207A9284600F0CFFAEF
:1026E00008360A982040611C081A4FEA8008C14544
:1026F00035D9B8F1000F06D00A98204073490C3143
:1027000001EB800001E071480C300390B8F1000F3C
:1027100001D0404600E0484600F0FF0BB8F1000F42
:1027200002D06A480C3000E000200290B8F1000F9F
:1027300002D0A9EB080000E00020C0B201903346AF
:102740005A462846039900F09AFA5E44029828B146
:1027500033462846DDE9012100F091FA0CE00A98A1
:1027600020405A490C3101EB800B33464A4659460A
:10277000284600F084FA00BF0598C01C0A9901EBB6
:1027800090000A9000BF44E0FFE7079800F00300C4
:1027900001283ED10798C0F38310062803DA079872
:1027A000C0F3831000E00620079960F389110791B8
:1027B0000798C0F3831000F102080798C0F3C20025
:1027C00006904FEA8801424800F0CEF90546FDB177
:1027D000284600F026FA3346082207A9284600F0CA
:1027E0004EFA083600270EE00A98421C20400A9252
:1027F000364A0C3202EB800133460422284600F0B0
:102800003EFA361D7F1C0798C0F38310B842EBD800
:1028100000BFC5B32D48D0F81084D0F8180418B103
:10282000284600F00CFA2DE019E04FF0000900BF37
:10283000D8F80C004079012800D18146B9F1000F89
:1028400008D000BFD8F800002946026840469047EB
:1028500000BF00BFD8F80C00D0F8008000BFB8F16E
:10286000000FE2D1284600F0EAF90020FEF79AFABC
:102870001648D0F8180410B914490A984860002086
:10288000FEF795FA1DE0FFE71048D0F810840AE043
:10289000C146D9F8000081684846884700BFD8F88B
:1028A0000C00D0F80080B8F1000FF1D109490A4AB4
:1028B000891AC908022242EA014008A100F018F86A
:1028C00000BFFEF7AFFB80F0010090E67C04002023
:1028D0008C50000084500000545000004261636B33
:1028E000656E647320666C75736865640000000033
:1028F00070B504460D4600231A462946204601F0CD
:1029000077FB70BDF8B505460E46144600940123CA
:102910006A463146284601F06BFBF8BD2DE9F05FB1
:1029200007460E4690461D46082E01D9BDE8F09F89
:1029300095F80C90002028732946404601F0BCF819
:1029400000240CE0B44205D23A5D1DA12846FFF7F1
:10295000EDFA03E01CA12846FFF7E8FA641C082CF6
:10296000F0D31AA12846FFF7E1FA00241DE0B44293
:1029700016D217F804A0BAF17E0F09DCFDF7CEFCE1
:10298000006810F80A0000F03E0008B1504600E070
:102990002E2083465A460EA12846FFF7C7FA03E0C9
:1029A0000CA12846FFF7C2FA641C082CDFD30122D1
:1029B0002946404601F05CF885F80C9000BFB5E769
:1029C0002025303278000000202020007C0000000C
:1029D00025630000200000002DE9F04106460F4667
:1029E00000BFFF200D498860002008604860C1F8E2
:1029F0001804C1F8140481F82004094800F019F9FA
:102A0000044614B12046BDE8F081064800F048F9BC
:102A100005480649401AC5080020F4E77C04002058
:102A20008C500000E44E00008C5000005450000018
:102A300002480349401AC008704700008C5000004B
:102A40005450000013B50C4621466846FFF7E8F8DD
:102A500028B90448009A00EBC20108681CBD002098
:102A6000FCE700005450000070B50C48D0F810444A
:102A700001200A4981F820040CE000BF0120E16830
:102A8000487100BF2546286841682846884700BF2E
:102A9000E0680468002CF0D170BD00007C040020C8
:102AA0002DE9FF4707460C46164698460C9D95F8BB
:102AB0000C90002028732946404600F0FDFF072EA9
:102AC00047D2DFE806F004090F161F2A37003946FF
:102AD0002846FFF72BFA3DE0394628462268FFF7E3
:102AE00025FA37E039462846D4E90023FFF71EFAD5
:102AF00030E0A068009039462846D4E90023FFF76B
:102B000015FA27E0D4E90201CDE90001394628464B
:102B1000D4E90023FFF70AFA1CE0D4E90212206985
:102B2000CDE90012029039462846D4E90023FFF788
:102B3000FDF90FE0D4E90223D4E90410CDE9002324
:102B4000CDE9021039462846D4E90023FFF7EEF913
:102B500000E000BF00BF00222946404600F088FF89
:102B600085F80C90BDE8FF872DE9F84F07468A46A7
:102B7000388AA0F104080AF104004044401EB0FB6A
:102B8000F8F0C0B200903846FFF7ABF8044614B92D
:102B90000020BDE8F88F0020207101216171A4F8A8
:102BA000068025460098A0F1010B2C462F604FF0BF
:102BB000000912E03846FFF794F8064636B160790E
:102BC000401C60712E603760354604E0204600F0FE
:102BD00008F80020DDE709F10109D945EAD32046CC
:102BE000D7E72DE9F05F0446274697F8058026468B
:102BF000A8F1010B002501E036686D1C5D45FBD393
:102C0000D6F800A02646002507E0D6F80090314609
:102C10005046FFF794F84E466D1C4545F5D3BDE888
:102C2000F09F70B5044625460121281DFFF722F8C4
:102C300070BD10B504462046FFF79CF810BDF8B5EE
:102C4000044626460121301DFFF740F800906D46EE
:102C5000287810B92046FFF7C4FFF8BD2DE9FC41E4
:102C600005460E4614461F46019401203B4601AA24
:102C7000314600902846FEF76DFFBDE8FC812DE946
:102C8000FC4105460E4614461F46019400203B4673
:102C900001AA314600902846FEF75CFFBDE8FC81A2
:102CA0000021826891608268116182685161826846
:102CB000D160826851608268116070470246505846
:102CC00008B1012070470020FCE708B500224250FF
:102CD0004258009200BF08BDC0F834154FF4A763F6
:102CE0001A507047012242507047C0F844154FF403
:102CF000A9631A5070470146D1F8C404C1F8C4044E
:102D000070470246505808B1012070470020FCE788
:102D100008B5002242504258009200BF08BDC0F8DA
:102D200008137047C0F804137047C0F834154FF407
:102D3000A7631A507047014640F23C504058704714
:102D4000C0F800127047012242507047C0F8441585
:102D50004FF4A9631A507047014640F24C50405856
:102D600070470146D1F88004C1F8800470470246DC
:102D7000505808B1012070470020FCE708B5002238
:102D800042504258009200BF08BDC0F80815C0F874
:102D900010257047C0F808137047C0F80413704737
:102DA0000246D2F80403084008B101207047002011
:102DB000FCE7012242507047C0F81425C0F80C15FA
:102DC00070470146D1F88004C1F88004704702467C
:102DD000505808B1012070470020FCE708B50022D8
:102DE00042504258009200BF08BDC0F808154FF489
:102DF000A2631A507047C0F808137047C0F8041354
:102E00007047014640F23C5040587047D0F80022CD
:102E10008A43C0F80022704701224250704740F2B6
:102E20000C53195040F214531A50704770B50446B1
:102E300004B970BD024EA5012846B04700BFF8E7AF
:102E4000314D000070B5044604B970BD024EA501B5
:102E50002846B04700BFF8E7514E000070B5044661
:102E600004B970BD024EA5012846B04700BFF8E77F
:102E7000A14E00000146080B40B270470146080B06
:102E800040B270470146080B40B270470146080B3C
:102E900040B270472DE9F04706460D46304600F037
:102EA00049FDE0B13046FEF721F9083822490F5CB0
:102EB000BC11032C08D13046FFF725FA08B10320D6
:102EC00000E00220804605E0012C01D1022000E054
:102ED0000320804641463046FFF7F1F92AE03046AC
:102EE00000F034FD30B33046FEF700F90446A00090
:102EF00000F5807087B22046104951F8201041F04B
:102F000001020E4941F8202000BF3846FFF742FA7F
:102F10007DB13046FEF7EAF88146FEF79FF880461D
:102F2000B8F1000F04D0012101FA04F0FFF74CFAC8
:102F300000BF00BFBDE8F0872C01002010650040F5
:102F40002DE9FC4704460E4617464FF00008204680
:102F500000F0E2FC10B14FF0080862E0B078C0F376
:102F6000400239462046FEF781F80546681C0028D5
:102F700054D0B078C0F3800020BBB07800F00100DE
:102F800080B100BF00BF4FF0A042104600F5E062E4
:102F900052F8242022F0020100F5E06242F82410E9
:102FA00000BF0CE096F80190002000904B460246CE
:102FB000014601902046FFF7D4F800BF00BF20462D
:102FC00000F0A0FCB078C0F34000D0B130781649D2
:102FD00051F82510154A1140134A42F825101146A0
:102FE00051F825104FF4F85202EA04224FF440330E
:102FF00003EA00431A4311430B4A42F8251000BF6D
:103000000EE0A5F108000A49085C317840EA811019
:1030100042B2A5F1080006490A5401E04FF0040845
:1030200000BF4046BDE8FC8710650040FFE0FCFFA4
:103030002C0100202DE9F041264890F8580018B1E5
:1030400008252846BDE8F081002404E0204600F071
:103050008DFC601CC4B2202CF8DB002404E0204668
:10306000FDF7ECFF601CC4B20C2CF8DB1948002102
:1030700041650622042310461946002809DA4E0746
:103080004FEA166C144E00F00F073F1F06F807C0FA
:1030900003E04E07370E114E375400BF00BF062025
:1030A00000BF012181404209920002F1E022C2F8F2
:1030B000001100BF00BF4FF4BE70FFF76BF94FF077
:1030C0000040FFF781F90120024981F858000025EE
:1030D0002846B7E7DC00002018ED00E000E400E03F
:1030E000014601F06040B0F1005F01D1012070475E
:1030F0000020FCE7014601F06040B0F1005F01D123
:10310000012070470020FCE7014601F06040B0F16B
:10311000005F01D1012070470020FCE72DE9F0415C
:1031200007460E46384600F019FD0446BCB14FF084
:1031300000080020FDF736FE207910B14FF001089D
:1031400002E02660012020710020FDF730FEB8F17A
:10315000000F03D011252846BDE8F08100BF0025EF
:103160002846F9E770B50546284600F0F7FC044606
:1031700014B100202060207170BD00002DE9F047DF
:1031800006460F4691469846DDF820A03079C0EB00
:10319000C0001E4901EB8004307928B9BAF1FF0F55
:1031A00002D8B9F1FF0F02D90920BDE8F0871FB19D
:1031B0003846FFF795FF30B1B8F1000F06D0404612
:1031C000FFF78EFF10B910252846EEE7607D30B17D
:1031D000012814D0022804D0032812D100E000BF37
:1031E00000BFE760C4F81080C4F80090C4F804A0E1
:1031F000002501222146306800F06CFE03E008251E
:1032000001E0032500BF00BF2846CEE738010020BB
:103210002DE9FF4F83B006460C463079C0EBC00065
:103220006F4901EB80073568387D28B14FF0080AF7
:10323000504607B0BDE8F08F207C032803D94FF03B
:10324000070A5046F5E73079664A52F820102846BA
:10325000FFF764FF18B14FF0110A5046E9E7206804
:10326000FF280BD00021E07CCDE900010B460A4687
:103270002068FEF78AFFD4F8009001E04FF0FF3994
:103280006068FF280BD000200090019000231A46B0
:1032900019466068FEF779FFD4F8048001E04FF02A
:1032A000FF38002000900190A37C00221146E068C6
:1032B000FEF76BFF00200090019000231A4619468C
:1032C000A068FEF762FFD4E90201C5F80805C5F859
:1032D0001085C5F80C9540F21452515100BF0022E0
:1032E00011462846FFF7F8FC002211462846FFF752
:1032F000FCFC217C627C0AB1012300E0002318461B
:1033000031B1012906D0022907D0032908D000BF16
:1033100000BF08E040F0020005E040F0040002E0D9
:1033200040F0060000BF00BFC5F8540500BF207D77
:10333000C5F85C0500BF607DC5F8C00500BF4FF44F
:1033400082712846FFF7C1FC4FF494712846FFF7BD
:10335000BCFC0420D5F800120143C5F8001200BFE0
:10336000002078750598B8600698B86140F2024070
:10337000C5F8040300BF3068FFF77CFD8346A17DDC
:10338000029158460299002809DA4A074FEA126C5E
:10339000154A00F00F031B1F02F803C003E04A07A1
:1033A000130E124A135400BF00BF3068FFF762FDCE
:1033B000834600BF0BF01F01012088404FEA5B11DC
:1033C000890001F1E021C1F8000100BF00BF012028
:1033D000387500BF0220C5F8000500BF002028E7AF
:1033E00038010020CC4D000018ED00E000E400E0C2
:1033F000017901EB810303EBC101064B03EB810271
:1034000001680623C1F8003500BF022182F82D10A3
:1034100070470000A40100202DE9FF4F83B006464D
:103420000D469246307900EB800101EBC0003D492A
:1034300001EB800494F82D0028B14FF008094846AC
:1034400007B0BDE8F08F3279374B53F8221030685F
:10345000FFF764FE18B14FF011094846F0E7C4F8D1
:1034600000A0069860600020A06084F8300084F816
:103470002F00687B84F8320000200621CDE900107F
:103480000323002211462868FEF7BBFE0020062118
:10349000CDE900100323002211466868FEF7B1FE53
:1034A0003768D5E90001C7F8080540F20C52D15140
:1034B00000BFA868C7F8240500BF206858B330686B
:1034C000FFF7E4FC804695F80CB0404659460028CA
:1034D00009DA4A074FEA126C144A00F00F031B1F67
:1034E00002F803C003E04A07130E114A135400BF49
:1034F00000BF3068FFF7CAFC8046404600F01F025C
:10350000012191404209920002F1E022C2F800112B
:1035100000BF00BF00BF012084F82D004FF000095C
:1035200048468DE7A4010020684E000018ED00E039
:1035300000E400E0F0B585B007460C4615461E468F
:10354000142207496846FCF7EDFE8DF8014001960C
:10355000039500226946384600F024F805B0F0BD16
:10356000884E00002DE9F04186B007460C4615460E
:103570001E46DDF83080142101A8FCF7ECFE8DF822
:10358000054002960495B8F1000F01D0202000E01C
:103590000020024601A9384600F004F806B0BDE854
:1035A000F08100002DE9F04104460D46164600BFAB
:1035B000207900EB800101EBC000064901EB800897
:1035C00033462A464046216801F01AF80746384635
:1035D000BDE8F081A401002010B50249024801F0C5
:1035E00007FA10BD54010020002000402DE9F041F1
:1035F00005460E461746287900EB400101EBC00056
:103600001A4901EB80044FF0000894F82A0020B119
:103610004FF008084046BDE8F0812A79144B53F872
:1036200022102868FFF77AFD18B14FF011084046C4
:10363000F1E731462846FDF7D5FB67603069206029
:10364000606818B1317F2846FEF74CF828680421DD
:10365000C0F8001500BF0020A061E06184F82900D7
:103660006061012084F82A004046D4E7540100201C
:10367000F84D00002DE9F04104460F4690462079B0
:1036800000EB400101EBC0001C4901EB8005204626
:1036900000F036F818B111263046BDE8F081C5F8C3
:1036A0001480AF600020286285F8280000264FF4BF
:1036B0008E712068FFF762FB08212068FFF779FB15
:1036C0002946206801F00FF96868A0B929462068EA
:1036D00001F0EEF808B90F260BE000BF4FF48E7131
:1036E0002068FFF744FB0028F8D00C212068FFF782
:1036F00060FB002068613046CFE7000054010020E5
:103700000146087900EB400202EBC000044A02EBDC
:103710008000406908B1012070470020FCE70000EC
:103720005401002070B50446207900EB400101EB04
:10373000C0000C4901EB800520680021C0F800158D
:1037400000BF686810B12046FDF798FF204600F0E2
:1037500013F92068FFF706FD002085F82A0068604D
:1037600070BD00005401002010B50249024801F06C
:1037700001FA10BD80010020002000402DE9F04139
:1037800005460E461746287900EBC000194901EBA3
:1037900080044FF0000894F8200020B14FF0080892
:1037A0004046BDE8F0812A79134B53F8221028686F
:1037B000FFF7B4FC18B14FF011084046F1E731466D
:1037C0002846FDF74DFB676030692060606818B1DE
:1037D000317F2846FDF7CAFF28680821C0F8001588
:1037E00000BF0020A061E0616061012084F820003A
:1037F0004046D6E780010020284E00002DE9F04722
:10380000044688469146207900EBC000244901EB2C
:1038100080054046FFF76EFC18B910263046BDE81B
:10382000F087204600F03EF810B111263046F6E74A
:10383000C5F81490C5F8088000264FF490712068F0
:10384000FFF7CCFA4FF4AC712068FFF7C7FA206895
:103850006A69A968C0F844154FF4A9631A5000BFFB
:1038600008212068FFF7D8FA6868B0B900BF4FF4A4
:1038700090712068FFF7ABFA82464FF4AC71206874
:10388000FFF7A5FA0746BAF1000F01D1002FEED0DD
:1038900007B10F260020686100BF3046BFE7000077
:1038A000800100200146087900EBC000044A02EBC9
:1038B0008000406908B1012070470020FCE700004B
:1038C0008001002070B50446207900EBC0000C494F
:1038D00001EB800520680021C0F8001500BF686872
:1038E00010B12046FDF7E4FE204600F081F8206884
:1038F000FFF738FC002085F82000686070BD0000EC
:103900008001002010B5044602492046FEF75BFA0C
:1039100010BD00003001002001460548405601223C
:1039200002EBE07008B1012070470020FCE70000C6
:103930000C010020014604484056082801DB012004
:1039400070470020FCE700000C01002001460648FB
:103950004056002805DB04484056082801DA0120BB
:1039600070470020FCE700000C010020FF22014905
:103970000A5470470C0100202DE9F04704462068E6
:10398000D0F80C150D462068D0F814150E462068A6
:10399000D0F808150F462068D0F810158846D4F8DE
:1039A00000904FF0FF3211464846FFF705FA00BF7E
:1039B000D4F800904FF0FF3211464846FFF7E5F982
:1039C00000BF681C10B12846FEF72FFC701C10B118
:1039D0003046FEF72AFC08F1010010B14046FEF720
:1039E00024FC781C10B13846FEF71FFCBDE8F087B8
:1039F0002DE9F0470446206840F20C5109580D4665
:103A0000206840F2145109580E462068D0F8081575
:103A10000F4620684FF4A26109588846D4F80090F8
:103A20004FF0FF3211464846FFF7F9F900BFD4F8CE
:103A300000904FF0FF3211464846FFF7D6F900BF1D
:103A4000681C10B12846FEF7FCFB701C10B1304614
:103A5000FEF7F7FB08F1010010B14046FEF7F1FB5D
:103A6000781C10B13846FEF7ECFBBDE8F08700008B
:103A700070B504460D461646207A05280CD0607AAB
:103A800028B10A480AA102682846FEF74FFA09A1A0
:103A90002846FEF74BFA04E01EB106A12846FEF7C1
:103AA00045FA2846FEF757FA70BD0000A000002036
:103AB000257300000D0A0000F8B504460D46E088A5
:103AC00038B116A00090E38816A218A12846FEF788
:103AD0002DFA207A05281FD0607A58B1217AA08863
:103AE000FEF74EFD174951F82060324616A12846D0
:103AF000FEF71CFA2846216800F0EFFBA0880021A1
:103B0000FEF7A0FF0646207A104951F820203346E0
:103B10000FA12846FEF70AFAF8BD00001B5B306DC6
:103B2000000000001B5B313B33316D0025734C6F8F
:103B300067732064726F707065642028256429257E
:103B4000730D0A00A0000020257300008C000020E7
:103B50003C25733E2025733A2000000001460348AF
:103B6000814201D1024870470020FCE7002000405C
:103B70002C000020014908607047000040150140FA
:103B800001480068704700000415014010B54FF46B
:103B900080300A4908600A49C1F804031120FCF783
:103BA0000DFD1120FCF716FD0120054908602F20AE
:103BB000FFF754F901200349087010BD4413014078
:103BC000001001405600002010B511200121814055
:103BD0000E4A430942F8231000BF4FF480300C49CD
:103BE00008600C49C1F80803012048602F20FFF746
:103BF00035F90120074988600020074908602F2017
:103C0000FFF72CF900200549087010BD80E100E0A5
:103C100048130140001001404800002056000020D9
:103C200070B505460C46A06940B94FF4847128462A
:103C3000FFF7A4F800BFD5F8180570BD4FF48471E4
:103C40002846FFF79BF800BFD5F81805C0B2626A96
:103C5000E1688854606A401C606200BFEDE77FB590
:103C600004460D46164601208DF800000295019687
:103C70006846D4E9001290477FBD7FB504460D46E3
:103C8000164601208DF80000029501966846D4E999
:103C9000001290477FBD00002DE9F05F0E461746E9
:103CA00007F0FF0A002018490870184CB046D146AA
:103CB000834620781649085C30B14A464146201DAB
:103CC000FFF79CFD83460AE020781149085C30B973
:103CD0004A46414604F10C00FFF7CCFC83465D46A2
:103CE00000BF00BF2C4624B100BF2046FDF74CF8B2
:103CF00000BF00BF00BF0748007818B10248007835
:103D00000028F8D0BDE8F09F700000205C00002083
:103D1000280000207100002010B586B018220E493E
:103D20006846FCF7FFFA1F2003901E2000901D201C
:103D300001901C20029000BF084A69460848FEF71F
:103D40005BF8044624B100BF2046FDF71DF800BF14
:103D500000BF06B010BD0000404D0000653D0000F2
:103D6000384D000037B59DF8000001283ED12349A9
:103D7000234A891AC908032242EA014021A1FEF719
:103D8000B7FD26494A781D491D4BC91AC9080323A6
:103D900043EA014022A1FEF7B5FD01202449087045
:103DA0001E48407818B11D48407822490870082004
:103DB000012161B900BF00BF4FF0A04213460124AA
:103DC00004FA00F2C3F80C2500BF00BF0CE000BFEE
:103DD00000BF4FF0A0421346012404FA00F2C3F8DA
:103DE000082500BF00BF00BF00BF05E09DF8000030
:103DF00010B90120104908703EBD00008450000039
:103E000054500000205472616E7366657220636FB7
:103E10006D706C657465642E0A0D0000140000203E
:103E200052656365697665643A20307825780000CC
:103E300001000020020000200F00002070B50546A0
:103E40000C462646034850F8263095E80700984768
:103E500070BD0000D000002070B505460C464FF440
:103E600094712846FEF72AFFE8B14FF49471284672
:103E7000FEF72BFF607D012813D122682846E168F8
:103E8000FEF733FF626828462169FEF725FF2821E7
:103E90002846FEF727FF02222146284600F01AF89E
:103EA00000E000BF00BF4FF482712846FEF706FF16
:103EB00078B14FF482712846FEF707FF607D022833
:103EC00005D103222146284600F004F800E000BF97
:103ED00000BF70BD70B506460C4615466575214697
:103EE000304600F001F870BD3EB504460D46687DD1
:103EF000012804D0022807D0032821D10EE0242174
:103F00002046FEF7EFFE1CE000208DF80000019037
:103F100002906846AA68A969904712E001208DF8CE
:103F2000000000BF40F23C500059019000BF40F239
:103F30004C50005902906846AA68A969904700E071
:103F400000BF00BF3EBD000038B504460D4800214B
:103F5000016000BF04200B4B0246214600900A4836
:103F6000FFF70CF9054625B100BF2846FCF70CFF0A
:103F700000BF00BF00BF00BFFEF732FB0028FBD12F
:103F800000BF38BD14000020384D00002DE9F05F5F
:103F900005460E4690461F46DDF828904FEA154A22
:103FA000FDF7F2F883464AEA0B42781C00EA090062
:103FB0000E4941F8202007EA090001EB800420683F
:103FC00065F3C5002060206868F3891020602068D0
:103FD00066F39F202060206820F00300401C2060D2
:103FE000206820F004002060BDE8F09F88040020D5
:103FF0002DE9FC478046894616461C4617488768C7
:10400000012201A92046FCF787FFC8B1019800F101
:10401000020A00250AE056F8252050460AF1010A56
:1040200038400E490C3141F820206D1CA542F2D3D6
:104030000097224649464046019BFFF7A7FF00BF75
:10404000064890F8200430B100BF00BFFEF7C8FA60
:104050000028FBD100BFBDE8FC8700007C040020E5
:104060002DE9F04781460C4615469846002608F093
:104070000100A0B105E0641C761C39464846FCF7F7
:10408000BBFF2778002FF6D104E06D1E20214846A3
:10409000FCF7B2FFB5421BD9002DF6D118E01CB1D8
:1040A0002046FCF763F9064604E06D1E20214846D1
:1040B000FCF7A2FFB54201D9002DF6D105E0641C42
:1040C000761C39464846FCF797FF2778002FF6D133
:1040D000BDE8F0870246501A20F07F40704710B5C7
:1040E0000446D4E90510884710BD00002DE9FC41C5
:1040F0000020019000260E4804680E4807686846B4
:10410000FDF74EF805462DB101AA21460098FDF7AE
:10411000D3F901260198FDF79BFB00B1012616B1EA
:104120003846FCF7E9FF002003490870BDE8FC8130
:1041300048000020440000205700002010B5142043
:10414000FCF754FA10BD000010B51849096811B900
:104150001649086028E0154A016812681268914201
:104160000DD81249096809680268891A0F4A12684D
:1041700011600E490968C1610C49086014E00268C9
:104180000A4C2368216803E00C68121B0B46C969BE
:1041900011B10C689442F7D311B10C68A41A0C60E9
:1041A0000260C161D86100BF10BD00004400002062
:1041B0002DE9F04106461C48D0F8008005682C46E1
:1041C00004E0B44200D103E02546E469002CF8D1B4
:1041D00000BF14B90020BDE8F081A54213D11248F8
:1041E0000068C069104908600846006858B9012095
:1041F0000E49886000200E49086001200D490870B2
:104200002F20FEF72BFE2768E069E861EC6914B106
:1042100020683844206004480068804501D00120AF
:10422000D9E70020D7E7000044000020001001403B
:1042300048000020570000202DE9F0411F48006889
:10424000002838D00027FFF79BFC80461C480168F7
:104250004046FFF73FFF06461848056810E028680B
:10426000B04200D90EE02868361A286807442C4668
:10427000ED69207C20B1002020742046FFF72FFF3D
:10428000002DECD100BF0F4800780F490978884213
:1042900009D10D480078401CC0B20B4908700228B3
:1042A00001D10020087009480749097840F82170B9
:1042B000FFF744FF00BFBDE8F0810000440000208C
:1042C0004800002054000020550000204C00002031
:1042D00010B51120FCF78AF910BD704770B504467F
:1042E00040F20C612248226840F82210626840F8CF
:1042F00022102068FEF729F86068FEF726F840F2E1
:104300000D611B48226840F82210626840F82210B4
:104310000420FEF797FD00251BE0606800BF4FF00A
:10432000A042114600BFD1F81025C24002F00102A0
:1043300012B105B970BD0EE02068FDF7D9FF042069
:10434000FEF780FD2068FEF700F80420FEF77AFDF6
:104350006D1C092DE1DB00BF6068FDF7C9FF04207B
:10436000FEF770FD6068FDF7F0FF00BFE2E70000B8
:104370000007005002785AB90279012A02D1064B8F
:104380001A7004E0027912B90122044B1A7000E09D
:1043900000BF00BF704700001C0000201D0000206F
:1043A0007FB5114B0FCB8DE80F0000230F4A6946F4
:1043B0000F48FDF737FD0546ADB90D4C201DFFF741
:1043C00017F800BF0B490C4A891AC908032242EAB0
:1043D00001400AA1FEF78CFA00BF00BFFEF700F90A
:1043E0000028FBD100BF7FBD684D00007543000071
:1043F000584D00008450000054500000545749208C
:10440000494E495449414C495A454400014603200C
:1044100001F002020AB148F2012001F004020AB1DF
:1044200048F20220704700007FB504460D462E4634
:1044300020788DF8000020798DF8040061798DF8DE
:104440000510217A8DF80610217B8DF8071021695F
:10445000029161690391044850F82610034850F80E
:104460002620684690477FBD3C0000203400002095
:1044700070B586B006460C464FF492713046FEF792
:1044800040FCF0B14FF492713046FEF741FC4FF41E
:1044900082713046FEF735FC98B9A1683046FEF7C8
:1044A0003EFC0220A060A1683046FEF73BFC2021C4
:1044B0003046FEF748FC14213046FEF744FC06B0B7
:1044C00070BD4FF482713046FEF71BFC00283FD0D0
:1044D0004FF482713046FEF71BFC142204F10C01EC
:1044E00001A8FBF71FFF94F82E00A8B1207B01283C
:1044F00003D13046FEF71FFC02E03046FEF72CFCED
:104500000290207B022803D13046FEF714FC02E023
:104510003046FEF721FC03904FF4B0713046FEF7B1
:10452000F7FB4FF4AE713046FEF7F2FB94F8300023
:1045300018B194F82E0000283ED000213046FEF736
:10454000FFFB0020A0602D493046FEF7E8FB33E07A
:104550004FF4A4713046FEF7DBFB207B98B91422A0
:1045600004F10C0101A8FBF7DDFE94F8300018BB44
:1045700000213046FEF7E4FB0020A0601F493046D2
:10458000FEF7CDFB18E04FF400713046FEF7D8FB84
:1045900040F20220A06019493046FEF7C0FBA16836
:1045A0003046FEF7BFFB08213046FEF7CCFB20214A
:1045B0003046FEF7C8FB82E73046FEF79CFB054617
:1045C00005F0020018B101208DF8000009E005F0A7
:1045D000040018B102208DF8000002E000208DF8E0
:1045E000000094F8300010B9002084F82F006846CD
:1045F000D4E90021904700BF61E7000002029C015E
:104600002DE9F05F05460F4614461E464FF00008A0
:104610004FF008094FF4827AE068FEF775FD20B983
:104620004FF010084046BDE8F09F9F493846FEF71E
:1046300076FB95F82F0038B1A9683846FEF772FB73
:104640004FF011084046EEE706F0040020B906F0EE
:10465000100008B9012000E0002085F82F00142286
:10466000214605F10C00FBF75DFEC6F3001085F84E
:1046700030006078C7F8880500BF4FF48271384673
:10468000FEF746FB4FF492713846FEF741FB384681
:10469000314601F0010232B100BF01234FF4AA629A
:1046A000135000BF06E000BF00234FF4AA6213506E
:1046B00000BF00BF01F0020232B100BF01234FF47E
:1046C000A862135000BF06E000BF00234FF4A862A9
:1046D000135000BF00BF00BF2078002862D001281F
:1046E00077D002283FD0032874D12069FEF70CFD53
:1046F00018B94FF01008404695E74FF480713846DE
:10470000FEF71EFB38466268E168FEF71FFB4FF4B8
:10471000A8713846FEF7FCFA4FF4B0713846FEF740
:10472000F7FA4FF4A4713846FEF7F2FA2021384622
:10473000FEF709FB08213846FEF705FB00BF4FF4E2
:10474000A8713846FEF7DDFA0028F8D04FF4A871BA
:104750003846FEF7DDFA3846A2682169FEF7F6FA18
:104760005248A8605BE038466268E168FEF7EEFAFE
:104770002069FEF7C9FC18B94FF01008404652E70F
:104780003846A2682169FEF7D0FA4FF484513846C2
:10479000FEF7D6FA40F20220A86020213846FEF744
:1047A000D2FA3CE038466268E168FEF7CFFA06F0DC
:1047B000200080B14FF480713846FEF7C1FA3B48C3
:1047C000A8604FF4A4713846FEF7A2FA4FF4A47A19
:1047D00009E00DE020E04FF400713846FEF7B0FA32
:1047E00040F20220A86020213846FEF7ACFA16E01D
:1047F00038466268E168FEF798FA4FF4805138460F
:10480000FEF79EFA40F20220A8604FF00009202136
:104810003846FEF798FA02E04FF0070800BF00BFE5
:1048200006F0080030B92078032803D049463846FE
:10483000FEF789FA286850B106F0040010B14FF471
:104840000070A860A9683846FEF76CFA2AE014E008
:104850004FF492713846FEF754FA70B14FF49271EA
:104860003846FEF755FA20213846FEF76CFA142137
:104870003846FEF768FA4FF4827A51463846FEF71A
:1048800040FA0028E4D03846FEF735FA8346002087
:1048900085F82F00BBF1000F03D05846FFF7B6FD97
:1048A000804600BF4046BEE602029C0100020400B2
:1048B00070B505460C4610E004E094F8280008B1F5
:1048C000002070BD4FF48E712846FEF750FA002884
:1048D000F3D02146284600F006F8206A6169884234
:1048E000EAD30120EDE770B505460C464FF48E7112
:1048F0002846FEF743FA216AA068465C206A401CFD
:1049000020623046C5F81C0500BF70BD7FB5044667
:104910000D4600208DF800000295A068019000204F
:1049200060616846D4E9001290477FBD7FB50446B8
:104930000D4600208DF800000295A068019000202F
:1049400060616846D4E9001290477FBD7FB5044698
:104950000D462E4620788DF8000060680190217A7F
:104960008DF80810E1680391044850F826100448B7
:1049700050F82620684690477FBD000024000020A4
:10498000200000200122014B1A70704770000020A7
:1049900070B588B00546202211496846FBF7C2FC75
:1049A00006200090C01F0190029003904FF0EB7022
:1049B00006900DB10B4800E00020024669460A4807
:1049C000FDF76EFA044600BF264626B100BF30460A
:1049D000FCF7DAF900BF00BF0448057008B070BDED
:1049E000C44E0000854900005C00002071000020DA
:1049F0002DE9FF4105460C464FF400712846FEF7AD
:104A0000CFF948B34FF492712846FEF7B0F918B3C6
:104A10004FF492712846FEF7B1F94FF40171284620
:104A2000FEF7B8F994F8290018B904212846FEF7D2
:104A3000C0F902208DF800002846FEF792F9039095
:104A4000A1690291E06801900020A061E0616846E0
:104A5000D4E90012904737E004212846FEF7A0F978
:104A6000002831D04FF484712846FEF780F958B3FE
:104A700021462846FFF7D4F8616AA069884223D10D
:104A8000E06970B1E668676AE069A0612069E0608A
:104A90000020E0616062324639462046FFF7DFF8C9
:104AA00012E094F8290018B904212846FEF781F98C
:104AB0004FF401712846FEF76DF90020A061E2680D
:104AC000616A2046FFF7CBF84FF48E712846FEF757
:104AD0004EF9B0B1206A6169884207D294F8280083
:104AE00020B921462846FFF7FEFE0AE04FF48E71FA
:104AF0002846FEF743F9606918B120466169FFF75F
:104B000005FF4FF4A2712846FEF731F9A0B14FF42A
:104B1000A2712846FEF732F994F8290018B1002155
:104B20002846FEF746F9A06930B10020A061E2688E
:104B3000616A2046FFF793F8BDE8FF817FB5044620
:104B40000D462E4620788DF8000060680190217A8D
:104B50008DF80810E1680391044850F826100448C5
:104B600050F82620684690477FBD000024000020B2
:104B7000200000202DE9FF4105460C464FF49271BC
:104B80002846FEF724F9C8B14FF492712846FEF783
:104B900025F902208DF800002846FEF712F903904F
:104BA0002846FEF72EF90290E06801900020A061EF
:104BB000E0616846D4E9001290472CE04FF4887118
:104BC0002846FEF704F930B34FF488712846FEF703
:104BD00005F92846FEF715F90646A069B04219D135
:104BE000E06980B1E76820212846FEF70FF9E06907
:104BF000A0612069E0600020E0613A46314620462D
:104C0000FFF73BF806E00020A06131462046E2684D
:104C1000FFF733F800BF4FF4A2712846FEF7D7F82C
:104C200090B14FF4A2712846FEF7D8F8A06958B1A8
:104C30000020A061E0612846FEF7E3F80646314611
:104C40002046E268FFF719F84FF490712846FEF706
:104C5000BEF878B14FF490712846FEF7BFF860694E
:104C600040B100BF40F24C50405906463146204604
:104C7000FFF75CFEBDE8FF812DE9FF4F81B088465C
:104C800016461F46DDE90E4B45464FF0010A03E08C
:104C9000B5FBF6F50AF1010AB542F9D2574500D93C
:104CA000BA460BF0010098B994B10BF0020002284B
:104CB00003D117B93020009001E02020009004E0DB
:104CC000641EDDE90010FCF797F90CB1A245F7D39B
:104CD000012509E0012F01D97F1E04E0B8FBF5F999
:104CE000B14500D201E07543F4E700BF00BFB8FB57
:104CF000F5F909FB15880D4810F809100198FCF723
:104D00007BF9B5FBF6F5002DF1D10BF0010048B1B0
:104D100044B104E0641E20210198FCF76DF90CB148
:104D2000A245F7D305B0BDE8F08F0000A64E000005
:104D30000338FDD87047000000300240000000003A
:104D4000FF000000FF000000FF000000FF00000067
:104D500000000000FFFF06000000000000300040DF
:104D600000000000010000001B0000001A0000000D
:104D70000000980102010000020002000000005043
:104D80006E7266785F6770696F74655F696E69746B
:104D9000006E7266785F6770696F74655F6F7574B7
:104DA0005F696E6974006E7266785F6770696F74B0
:104DB000655F696E5F696E69740000006E72667887
:104DC0005F737069735F696E697400001909000090
:104DD0006E7266785F737069735F6275666665721E
:104DE000735F7365740000006E7266785F75617240
:104DF000745F696E69740000D93500006E72667860
:104E00005F756172745F7478006E7266785F756149
:104E100072745F72780000006E7266785F756172FE
:104E200074655F696E697400693700006E72667838
:104E30005F75617274655F7478006E7266785F7515
:104E4000617274655F72780000000000000000006D
:104E50000338FDD8704700006E7266785F7477691A
:104E60006D5F696E69740000050900007477696DF3
:104E70005F78666572006E7266785F7477696D5FE1
:104E8000786665720000000001000000000000006C
:104E90000000000000000000000000000000000012
:104EA0000338FDD87047303132333435363738392E
:104EB0004142434445460000612500002925000089
:104EC0001B250000FFFFFFFFFFFFFFFFFFFFFFFFAE
:104ED000FFFFFFFF00000000000000000000D601FF
:104EE00006010000E40300207F00000064040020AD
:104EF00000404040404040404040414141414140ED
:104F000040404040404040404040404040404040A1
:104F10004005020202020202020202020202020230
:104F20000220202020202020202020020202020235
:104F3000020290909090909010101010101010108D
:104F40001010101010101010101010100202020299
:104F500002028888888888880808080808080808DD
:104F600008080808080808080808080802020202D9
:104F700040000000F14E00007761726E696E6700BC
:104F800064656275670000001B5B313B33306D0068
:104F90001B5B306D000000001B5B313B33316D004B
:104FA0001B5B313B33326D001B5B313B33336D0098
:104FB0001B5B313B33346D001B5B313B33356D0084
:104FC0001B5B313B33366D001B5B313B33376D0070
:104FD000696E666F000000006572726F72000000FB
:104FE0004750494F544500005052530053504953C5
:104FF0000000000055415254000000005541525439
:10500000450000005457494D00000000756172745E
:105010005F6C6F675F6261636B656E6400000000C8
:1050200061707000A050000000000020D00000005F
:10503000AC0C000070510000D0000020D027000010
:10504000BC0C0000B84E0000000000000C50000036
:1050500074000020E04F000000000000E84F000056
:1050600000000000EC4F000000000000F44F0000C2
:1050700000000000FC4F0000000000000450000091
:105080000000000020500000000003038400002006
:105090007C00002084000020240300201800000071
:1050A0000000FF0000000000000000000000000001
:1050B00000000000000000000000000000000000F0
:1050C00000000000000000000000000000000000E0
:1050D00000000000000000000000000000000000D0
:1050E00000000000000000000000000000000000C0
:1050F00000000000000000000000000000000000B0
:1051000000200040000000000020004000000000DF
:105110000000000000000000FF0000000000000090
:10512000000000000000000000000000000000007F
:10513000D84F0000784F0000D04F0000804F000093
:10514000904F0000884F0000984F0000A04F0000D3
:10515000A84F0000B04F0000B84F0000C04F000043
:10516000C84F000000000000000000000090D003C5
:0400000500000201F4
:00000001FF
