:020000040000FA
:10000000B0280020F90200000103000003030000F3
:1000100005030000070300000903000000000000C2
:100020000000000000000000000000000B030000C2
:100030000D030000000000000F030000110300008A
:100040001303000013030000B90C000015090000A1
:100050001303000013030000A103000013030000BA
:100060001303000013030000130300001303000038
:100070001303000013030000130300001303000028
:100080001303000005060000130300001303000023
:100090003D090000130300001303000013030000D8
:1000A00013030000130300001303000013030000F8
:1000B0001303000013030000000000000000000014
:1000C00013030000130300001303000029090000BC
:1000D00013030000130300001303000000000000DE
:1000E0000000000000000000000000000000000010
:1000F0000000000000000000000000000000000000
:1001000000000000000000000000000000000000EF
:1001100000000000000000000000000000000000DF
:1001200000000000000000000000000000000000CF
:1001300000000000000000000000000000000000BF
:1001400000000000000000000000000000000000AF
:10015000000000000000000000000000000000009F
:10016000000000000000000000000000000000008F
:10017000000000000000000000000000000000007F
:10018000000000000000000000000000000000006F
:10019000000000000000000000000000000000005F
:1001A000000000000000000000000000000000004F
:1001B000000000000000000000000000000000003F
:1001C000000000000000000000000000000000002F
:1001D000000000000000000000000000000000001F
:1001E000000000000000000000000000000000000F
:1001F00000000000000000000000000000000000FF
:10020000DFF80CD000F0BAF800480047011B0000EE
:10021000B028002030B4044654E8000F0D4644E8EE
:100220000053002BF8D1156030BC704730B4044641
:1002300054E8000F40EA010544E80053002BF7D1D1
:10024000156030BC704730B4044654E8000F00EA33
:10025000010544E80053002BF7D1156030BC70470E
:1002600030B4044654E8000F80EA010544E8005326
:10027000002BF7D1156030BC704730B4044654E809
:10028000000F00EB010544E80053002BF7D1156087
:1002900030BC704730B4044654E8000FA0EB0105B1
:1002A00044E80053002BF7D1156030BC704770B4A0
:1002B00004464FF0000054E8006F0D68AE4207BFDF
:1002C00044E80023012044E800630E60002B1CBFBB
:1002D0000020F0E770BC704730B4044654E8000FCB
:1002E00088422CBF451A054644E80053002BF5D13F
:1002F000156030BC7047000006488047064800473C
:10030000FEE7FEE7FEE7FEE7FEE7FEE7FEE7FEE7C5
:10031000FEE7FEE76D09000001020000004870479B
:10032000A053000040EA01039B0703D009E008C97D
:10033000121F08C0042AFAD203E011F8013B00F8AA
:10034000013B521EF9D27047D2B201E000F8012BF6
:10035000491EFBD270470022F6E710B513460A4645
:1003600004461946FFF7F0FF204610BD421C10F866
:10037000011B0029FBD1801A70470000064C074D75
:1003800006E0E06840F0010394E807009847103465
:10039000AC42F6D3FFF738FF105800003058000089
:1003A0002DE9F04F89B00027002008904FF48070AD
:1003B00007900126002412E0079802F0F1F840B1FE
:1003C00000BF7B480068304018B1079802F0DAF8A7
:1003D000374376000798001D80B20790641C082CF4
:1003E000EAD34FF4BE7002F0DBF850B14FF4BE70A8
:1003F00002F0C8F847F0004708AA0121002002F0E7
:10040000A7F8F8B200B3012600241BE006EA0700B3
:10041000B0B100BF674850F82400C0F30420804604
:1004200000BF644850F82400C0F3014081462046D4
:1004300000F022FE054615B149464046A84700BFD8
:100440007600641C082CE1D307F0004000287DD022
:10045000002006900590002505E04FF0FF3004A92C
:1004600041F825006D1C002DF7D000BF002006903C
:1004700000245FE05048005D0390039820F0C0091D
:100480004D480057401C002853D004A9484601F0AD
:1004900037FD00284DD003984FEA901A484600F0E7
:1004A00033FE804600F0E8FD0290029810B9BAF1E0
:1004B000030F3DD1BAF1030F03D105A9484601F05E
:1004C0002AFD00BF00BF4FF0A041084600F5E061E3
:1004D00051F82910C1F3014800BF08A9484601F0AE
:1004E0000FFD8346BBF1000F02D0B8F1020F05D01B
:1004F000BBF1000F1BD1B8F1030F18D1BAF1030FF4
:100500000FD1B8F1020F01D1032000E002200190C9
:100510004846019901F0B5FF0698401CC0B206900C
:1005200000BF029818B151464846029A904700BF52
:1005300000BF641C002C9DD0069888B34FF00108C2
:1005400003AA0121002002F003F800E02DE00025BD
:100550000BE003A850F8250008A951F8251088429F
:1005600002D04FF0000802E06D1C002DF1D000BF5A
:10057000B8F1000F02D00020069010E000250CE03A
:1005800003A850F8250008A941F8250005A850F84F
:10059000250004A941F825006D1C002DF0D000BFF6
:1005A000069800287FF462AF00BF09B0BDE8F08F65
:1005B00004630040106500402C01002000F01F0281
:1005C00001219140024A430942F82310704700007C
:1005D00080E200E000F01F020121914042099200F8
:1005E00002F1E022C2F800117047000000F01F0283
:1005F00001219140024A430942F82310704700004C
:1006000000E200E010B50020094908600021094817
:10061000C0F84411C0F84811C0F84C110020054939
:10062000C1F8000102493C39086003F07DFF10BDAC
:1006300040110140001001402DE9FC4700203649DF
:10064000087001900120034601AA20210090334840
:1006500001F0E6FC8246BAF1000F10D13049314A70
:10066000891AC908032242EA01402FA102F038FA90
:1006700000BF00BF02F0ACF80028FBD110E0284911
:10068000284A891AC908032242EA01402FA102F030
:1006900027FA00BF00BF02F09BF80028FBD100BF83
:1006A00000BF1D4800780028FBD000202B490870AF
:1006B0001A4D20262A4F4FF00108814643463A46FC
:1006C0003146281D03F0B8F881464C4600BF94B966
:1006D0001349144A891AC908032242EA01403946DB
:1006E0000A7820A102F006FA00BF00BF02F070F8FD
:1006F0000028FBD100BF00BF184800780028FBD0BD
:1007000000BF00BF02F064F80028FBD100BF14480E
:100710000078BDE8FC87000014000020285000008D
:100720007058000040580000526561647920746F71
:1007300020726561642066726F6D20496E707574F9
:1007400020726567697374657221000054574920EF
:1007500069732042757379210000000013000020A6
:100760001200002052656164696E6720696E7075C1
:1007700074207265676973746572307825780A0D24
:1007800000000000FEB5002500203549087035A0A6
:10079000006802900020022302AA20210090324823
:1007A00001F03EFC0646002E1CD101252F49304A9F
:1007B000891AC908032242EA014020222DA102F031
:1007C00099F92A492A4A891AC908032242EA0140AA
:1007D00032A102F085F900BF00BF01F0F9FF002847
:1007E000FBD100BF00BF1E4800780028FBD00020CE
:1007F0001B49087034A0006801900020022301AA60
:1008000020210090184801F00BFC044684B91749D8
:10081000174A891AC908032242EA01402BA102F0B3
:100820005FF900BF00BF01F0D3FF0028FBD100BF7C
:1008300000BF0B4800780028FBD04DB90B490C4A8B
:10084000891AC908032242EA01402CA102F048F9A2
:1008500000BF00BF01F0BCFF0028FBD100BFFEBD00
:1008600014000020030F0000285000007058000002
:1008700040580000545749206465766963652064D8
:100880006574656374656420617420616464726575
:10089000737320307825782E00000000434F4E46B9
:1008A000494755524154494F4E20524547495354A8
:1008B000455220484153204245454E204D4F444922
:1008C000464945440000000045F00000494E5445AB
:1008D0005252555054204D41534B20524547495395
:1008E00054455220484153204245454E20434F4EE7
:1008F0004649475545524544000000004E6F20646C
:1009000065766963652077617320666F756E642E06
:100910000000000010B50249024803F021FF10BD9D
:10092000B00100200030004010B50249024800F03C
:10093000A6FF10BD340100200030024010B503F0C6
:100940004DFD10BD0122014B1A70704701000020BF
:100950000122014B1A707047000000200148024933
:10096000086070470090D003CC00002010B500F064
:1009700081FC28B192480088C0F3042091490860A6
:1009800000F0CCFC10B190489049486700F0EEFCB4
:1009900030B18B48E0380068C0F342308C490860C1
:1009A00000F00EFD28B18B48006820F08070894966
:1009B000086000F01DFD48B10020874908604FF035
:1009C0008041C1F810018249091F086000F03AFD1A
:1009D00018B103207E496431086000F04BFD68B116
:1009E00005207E49086001207C497831086000209C
:1009F0007A49083108603F20091F086000F052FD65
:100A0000002855D06E48E0300068754908606C4891
:100A1000E4300068091D08606948E8300068091D75
:100A200008606748EC300068091D08606448F030D1
:100A30000068091D08606248F4300068091D0860FC
:100A40005F48F83000686649203108605C48FC3037
:100A50000068091D086063480068091D0860614856
:100A6000001D0068091D08605E4808300068091D07
:100A700008605C480C300068091D08605948103057
:100A80000068574940310860564814300068091D15
:100A90000860544818300068091D086051481C302F
:100AA0000068091D08604F4820300068091D086073
:100AB00000F0B6FB30B14248CC38006800F04F007F
:100AC0004949086000F000FC40B14848006800F067
:100AD000010018B16FF001004449086000F036FCD5
:100AE00028B14348006840F48060414908603948B3
:100AF0007438006840F4700036497439086000BFEB
:100B000000BF00BFBFF34F8F00BF00BF00BF00BFDB
:100B100000BF00BFBFF36F8F00BF00BF00BF3548ED
:100B2000006800F0004028B93248001D006800F05D
:100B30000040E8B301203049086000BF2F4800683A
:100B40000028FBD015202B49086000BF2B48006807
:100B50000028FBD015212748001D016000BF274851
:100B600000680028FBD000202349086000BF23480C
:100B700000680028FBD000BF00BF00BF00BF00BF5F
:100B8000BFF34F8F00BF00BF00BF1248F0380068AE
:100B900000F4E0601A490843001D0E49F03908606E
:100BA00000BF00BF00BFBFF34F8F00BF00BF00E01A
:100BB00003E000BF00BF00BFFDE7FFF7CFFE10BDA1
:100BC00024030010403501400DF0ADBA00C00740CD
:100BD0003C050040FCED00E00C01004010560040D8
:100BE00020C5004024040010E40E00400004004032
:100BF0003C1700400012001004E5014000E40140F1
:100C00000000FA057CB5044625782807050E00206B
:100C10001C4908701CA0006801908DF80550012047
:100C2000022301AA20210090184801F0F9F9064694
:100C300086B91749174A891AC908032242EA0140AE
:100C400015A101F04DFF00BF00BF01F0C1FD00285C
:100C5000FBD110E00E490F4A891AC908032242EA63
:100C6000014011A101F03CFF00BF00BF01F0B0FD49
:100C70000028FBD100BF00BF024800780028FBD04D
:100C80007CBD00001400002001000000285000007E
:100C900070580000405800005475726E696E6720ED
:100CA0006F6E204C656420005457492069732042C0
:100CB000757379210000000010B50249086880476B
:100CC00010BD00002C00002002E008C8121F08C15F
:100CD000002AFAD170477047002001E001C1121FBD
:100CE000002AFBD17047000072B600BF01F0C4FFBC
:100CF00000BF00BF01F06CFD0028FBD100BF00BFAA
:100D00001D491E4A891AC908012242EA01401CA154
:100D100001F0E6FE00BF1D48006800F0010000B1D0
:100D200000BE00BF1449154A891AC908022242EAC6
:100D3000014017A101F0D4FE00BF00BF00BF00BFFB
:100D400000BFBFF34F8F00BF00BF00BF0F48E438A4
:100D5000006800F4E06012490843001D0B49E439C3
:100D6000086000BF00BF00BFBFF34F8F00BF00BFD0
:100D700000BF00BF00BFFDE77058000040580000F2
:100D8000466174616C206572726F7200F0ED00E074
:100D900053797374656D207265736574000000008B
:100DA0000000FA053EB50446002000900190029034
:100DB00002946A46002144F20100FFF795FF3EBD10
:100DC00000B5024600F006F800BD00B5024600F08E
:100DD0000BF800BD72B603480068401C014908606A
:100DE000704700005800002004480068401E034976
:100DF00008600846006800B962B6704758000020D5
:100E000070B505460C462068401C28B1206801F0EA
:100E10007EFB206801F01DFB6068401C18B10021BA
:100E2000606801F0F0FA2868A169C0F8241500BFD5
:100E3000617D227D286841EA0203C0F86C3500BF5D
:100E4000D4E90012286802F0F4F8207D012814D1BA
:100E5000A068401C18B10021A06801F0D4FAE06835
:100E6000401C28B1E06801F052FBE06801F0F1FAA3
:100E7000D4E90221286802F0C5F870BD70B50546B6
:100E80000C462068401C28B1206801F04BFB20680C
:100E900001F0EBFA6068401C18B10021606801F0B5
:100EA000BFFA2868A169C0F8241500BF617D227DC2
:100EB000286841EA0203C0F86C3500BFD4E900128B
:100EC000286802F0E9F8207D012814D1A068401CB0
:100ED00018B10021A06801F0A3FAE068401C28B115
:100EE000E06801F01FFBE06801F0BFFAD4E90221DD
:100EF000286802F0B7F870BD002114E00C48D0F863
:100F00001024012308E000BFD0680079884201D195
:100F1000002303E0D0680268002AF4D100BF0BB1BF
:100F200008467047491C0A29E8DB4FF0FF30F8E714
:100F3000880400202DE9F84F04460D461646A71CEC
:100F40004FF001080020FFF73BFF304800682860A1
:100F50002E4800682D494968411A2C488068401C79
:100F6000A0EB010915E00121294800F02BFF00F05A
:100F700063FD82465146264800F024FF234800685E
:100F800022494968411A21488068401CA0EB0109A8
:100F900000BF4F45E7D8B8F1000F30D000210091D5
:100FA00076B1009921F00301491C0091009921F0CC
:100FB0000401091D0091009964F3891100910DE06D
:100FC000009921F00301891C0091009921F004018E
:100FD000091D0091009964F39F5100910B49096824
:100FE0000A4A92681140094A0C3202EB81000099CA
:100FF00001600649096839440C3A116000BF0020BD
:10100000FFF7E3FE4046BDE8F88F000088040020AB
:10101000A408002070B504460D460A2D03D10D2109
:101020002046FFF7F7FFA168481CA06020684554E0
:10103000D4E90110884202D3204601F062F870BD65
:101040000448406803490968884201D1012070477B
:101050000020FCE7880400204FF0FF31054A42F8E9
:101060002010082804DBFF23A0F108014432535468
:1010700070470000E80000200146024850F82100B7
:1010800070470000E80000202DE9F04F03460C46B1
:101090004FF0FF390AB1002000E0082084460AB171
:1010A000082000E009208046614624E0154850F8F9
:1010B0002100401CF0B91D460846274616464FFA47
:1010C00080FBDFF840A00AF1240A0AF805B0DFF837
:1010D00034A04AF820704EB94FFA85FBA0F1080AF7
:1010E000DFF820E00EF1440E0EF80AB000BF4FFA10
:1010F00081F902E0491C4145D8D300BF4846BDE80C
:10110000F08F0000E800002001460148405670477B
:101110000C0100202DE9F04782461F480068002896
:1011200036D01D480068056802F0ACFE07461B4833
:1011300004682146384603F045F9C61C1848007873
:1011400008B902F0A5FEAE4201D2284600E03046C2
:10115000044424F07F44204602F08EFE02F092FE0A
:1011600080463946404603F02DF900F1030939461F
:10117000204603F027F9814509D902F083FE814614
:1011800002F07AFE2F2001F0A7FF03F019FA01E028
:1011900002F09CFEBDE8F0874400002048000020DB
:1011A0005600002010B50021034800F021FE04463F
:1011B00084F3100010BD0000A4080020014614486C
:1011C0000078144A127890421DD011480078401CD3
:1011D0000F4A107010460078022801D100201070CC
:1011E0000D480B4A127850F8220008600B4A086834
:1011F00012681044094A10601046006820F07F40D1
:101200001060012070470020086000BFFAE700006E
:1012100054000020550000204C0000204800002011
:1012200013480078062820D11148001D007800F0EE
:101230000F00D0B90E480830007800F0F0003028D8
:1012400001D1012070470A480830007800F0F00012
:10125000402801D10120F5E705480830007800F06A
:10126000F000502801D10120ECE70020EAE700005F
:10127000E00F00F013480078062820D11148001D27
:10128000007800F00F00D0B90E480830007800F068
:10129000F000302801D1012070470A48083000785A
:1012A00000F0F000402801D10120F5E705480830A2
:1012B000007800F0F000502801D10120ECE7002078
:1012C000EAE70000E00F00F013480078062820D17C
:1012D0001148001D007800F00F00D0B90E4808300A
:1012E000007800F0F000302801D1012070470A4852
:1012F0000830007800F0F000402801D10120F5E727
:1013000005480830007800F0F000502801D1012095
:10131000ECE70020EAE70000E00F00F00A48007860
:1013200006280ED10848001D007800F00F0040B9D3
:1013300005480830007800F0F000302801D1012085
:1013400070470020FCE70000E00F00F0064800684E
:10135000062806D10448001D0068062801D1012096
:1013600070470020FCE700003001001013480078AF
:10137000062820D11148001D007800F00F00D0B9D8
:101380000E480830007800F0F000302801D101202C
:1013900070470A480830007800F0F000402801D17A
:1013A0000120F5E705480830007800F0F0005028EB
:1013B00001D10120ECE70020EAE70000E00F00F097
:1013C0000A48007806280ED10848001D007800F071
:1013D0000F0040B905480830007800F0F0003028D0
:1013E00001D1012070470020FCE70000E00F00F071
:1013F00013480078062820D11148001D007800F01D
:101400000F00D0B90E480830007800F0F000302806
:1014100001D1012070470A480830007800F0F00040
:10142000402801D10120F5E705480830007800F098
:10143000F000502801D10120ECE70020EAE700008D
:10144000E00F00F00A48007806280ED10848001D79
:10145000007800F00F0040B905480830007800F02F
:10146000F000302801D1012070470020FCE7000087
:10147000E00F00F00A48007806280ED10848001D49
:10148000007800F00F0040B905480830007800F0FF
:10149000F000302801D1012070470020FCE7000057
:1014A000E00F00F00A48007806280ED10848001D19
:1014B000007800F00F0040B905480830007800F0CF
:1014C000F000502801D1012070470020FCE7000007
:1014D000E00F00F0F0B5034600241FE0124E306824
:1014E00006689E4203D90668F61A06601AE0066886
:1014F0009B1B06683444002606600B4E35680A4F75
:10150000C6693E60C66846B10E1926F07F46466041
:10151000C66886601668C661156000BF024800682C
:101520000028DBD100BFF0BD4400002010B5044608
:10153000E07FFF2808D0A07F18B1E07F00F0BAFF5D
:1015400002E0E07F00F0D8FF00206077207204F115
:101550000800D4E90021904710BD000038B51848B4
:101560000068009003208DF8010001F0C7FE0446DA
:1015700084B11449144A891AC908032242EA014075
:1015800012A101F0ADFA00BF00BF01F021F900285F
:10159000FBD100BF134A6946112001F00FFE04463B
:1015A000114A6946042001F009FE04460121112078
:1015B00001F0AEFD0121042001F0AAFD38BD0000BC
:1015C0004850000070580000405800004750494FF4
:1015D0005445204E4F5420494E495449414C495A94
:1015E0004544000051090000450900002DE9FC5F59
:1015F00083460E4691461F46DDE90C45002E01DA72
:10160000704200E0304682464FF0010803E09AFB4A
:10161000F9FA08F10108CA45F9DA474500D9B84690
:1016200034B1002E03DB05F00400042800D1641E51
:1016300005F0020000B167B105F0010048B944B1FE
:1016400004E0641E20215846FFF7E4FC0CB1A045DD
:10165000F7D3002E05DA76422D215846FFF7DAFC43
:1016600007E005F00400042803D12B215846FFF7BA
:10167000D1FC05F0020002280DD105F0010050B99F
:101680004FB944B104E0641E30215846FFF7C2FC54
:101690000CB1A045F7D33B464A4631465846CDE902
:1016A000004503F061FCBDE8FC9F000070B50546F5
:1016B0000949286801F0ABFC286801F01DFD0446CB
:1016C000204600F01F0201219140044A430942F8DC
:1016D000231000BF00BF70BD8402020080E100E063
:1016E00070B505460949286801F0C2FC286801F078
:1016F00007FD0446204600F01F0201219140044AE4
:10170000430942F8231000BF00BF70BD1003020060
:1017100080E100E02DE9F04104460E464FF48E7161
:10172000206801F068FC4FF4A271206801F063FCAE
:101730001749206801F06EFC206801F0DDFC0546C9
:10174000374628463946002809DA4A074FEA126C1C
:10175000104A00F00F031B1F02F803C003E04A0702
:10176000130E0D4A135400BF00BF206801F0C4FCE3
:101770000546284600F01F020121914042099200CF
:1017800002F1E022C2F8001100BF00BFBDE8F08105
:101790008000020018ED00E000E400E02DE9F041D7
:1017A00004460E464FF48871206801F054FC4FF453
:1017B0009071206801F04FFC4FF49271206801F0A5
:1017C0004AFC4FF4A271206801F045FC17492068DB
:1017D00001F051FC206801F093FC0546374628468D
:1017E0003946002809DA4A074FEA126C104A00F01D
:1017F0000F031B1F02F803C003E04A07130E0D4A34
:10180000135400BF00BF206801F07AFC054628464B
:1018100000F01F02012191404209920002F1E022F2
:10182000C2F8001100BF00BFBDE8F0811003020044
:1018300018ED00E000E400E030B502460020137827
:10184000C3F38003D3B1137803F00303012B02D059
:10185000022B10D107E01388C3F383139B1C0C6881
:1018600023440B6008E00B680225146805EB9454D0
:1018700023440B6000E000BF00BF012030BD70B505
:1018800004460D464FF40020D4F80413014009B17A
:10189000012100E0002109B34FF4A671204601F0B8
:1018A00015FBD8B14FF4A671204601F016FB4FF49A
:1018B0008C71204601F011FB4FF4A960696A015157
:1018C0004FF4A760A96A01514FF40021204601F0AE
:1018D0000BFB1021204601F013FB70BD4FF48C71FF
:1018E000204601F0F3FA38B14FF48C71204601F034
:1018F000F4FA2846FFF71AFE00BFEEE72DE9F041A3
:10190000064600274748D0F8008078E016B13446F4
:10191000E66947E04448007800EB40014248001D7A
:1019200000EBC105001F0078401C3F4908700846C5
:1019300000788978884202D100203B4908706C68A1
:10194000287801281AD0022802D0032817D107E0EE
:10195000686802F0A5FD00B10127002020744EE068
:1019600007E030490868002101742E4AC1691160FE
:1019700000BF2C4800680028F3D140E000E03EE0C2
:1019800000BF207C00B13AE0A8686060E868A06011
:101990002869E0606869A0612448007808B10020E7
:1019A000606000BF224960680968401A20F07F40EB
:1019B0002049884208D21E496068096802F002FD89
:1019C000A168084420600FE019486168006802F0CF
:1019D000F9FC0546A068A84203D9A068401B206016
:1019E00001E00020206000BF00206060A0600120B6
:1019F00020740020E061204602F01EFD00BF002E92
:101A000084D109480078084949788842F8D11FB93B
:101A100004480068404502D00120BDE8F081002064
:101A2000FBE7000044000020E401002057000020F4
:101A300048000020FFFF7F002DE9FF4100272E48CE
:101A400000F0B9F92C48001F00F0B5F92B484068A8
:101A500003902A4885680398284028490C3101EBF7
:101A6000800800BF03A94046FFF7E6FE30B10398A7
:101A7000284022490C3101EB800800E000E0F1E74A
:101A800000BF00240AE00398411C284003911B4931
:101A90000C3151F820004DF82400641C022CF2D3C4
:101AA000009800F0030001280DD0022814D1BDF8E1
:101AB00006700421009801EB9050401E039901EB41
:101AC0009000039009E0BDF806700098C0F3831001
:101AD00003990844039000E000BF00BF0648001FC0
:101AE00000F062F9064616B104490398486038468A
:101AF00004B0BDE8F0810000A008002088040020A8
:101B000008B500F083F80A2000F010FA02F0C0FDDA
:101B10000A2000F00BFAFEF735FE0A2000F006FA64
:101B2000FFF71CFD0A2000F001FA00BF4FF400414E
:101B3000002001F059F8044624B100BF2046FFF709
:101B400031F900BF00BF00F02FFE8820284908703F
:101B5000FF204870FEF770FD264908702448401C9D
:101B6000FFF750F843E024480078F0B10020224904
:101B70000870FEF761FD1F49087020A00068009002
:101B8000084600788DF8010000201D49087068465D
:101B900002F086FA4FF4FA7001F086FA18480078DD
:101BA00010B11848FFF72EF821E017480078F0B17F
:101BB000002015490870FEF73FFD0E4908700FA080
:101BC00000680090084600788DF8010000200C495C
:101BD0000870684602F064FA4FF4FA7001F064FA93
:101BE0000748007810B10748FFF70CF800BFBAE7C4
:101BF0000E0000200D00002000000020200000004A
:101C00000200002003000020010000201FB51A4B35
:101C10000FCB8DE80F004FF0007002901F208DF861
:101C200003001E208DF802001D208DF801001C20ED
:101C30008DF8000000BF0023104A6946104800F0EC
:101C400083F9044624B100BF2046FFF7ABF800BF7C
:101C500000BF0C490C4A891AC908032242EA014014
:101C60000AA100F03DFF00BF00BF00F0B1FD002859
:101C7000FBD100BF1FBD00005C5000001D400000F4
:101C80004C5000007058000040580000535049204C
:101C90006578616D706C6520737461727465642E13
:101CA000000000002DE9FF4F87B0044691461E4614
:101CB000A2462546BAF806009AF805104843001FC8
:101CC0000690BAF806B0301DB0FBFBF00590301D51
:101CD000B0FBFBF10BFB11000490D9F80000811957
:101CE0000698814202D90698801B01E0D9F80000CD
:101CF0000746C9F8007003E02D680598401E05905E
:101D000005980028F8D103900498ABEB0008B8457B
:101D100001D9384600E04046804623E00399089800
:101D200008440290281D049908440190149828B191
:101D30004246DDE90110FEF7F5FA04E04246DDE92E
:101D40000101FEF7EFFA002004902D68A7EB0807C9
:101D5000039840440390BB4501D9384600E05846FB
:101D6000804600BF002FD9D10BB0BDE8F08F000036
:101D700070B503460C469CB100F062FF0546002298
:101D80000AE0084800EB820108881E68B04202D1D0
:101D90001A60002070BD521CAA42F2D30520F9E758
:101DA0000020F7E70000000010B50446002120469F
:101DB00000F013F810BD10B504460121204600F0D4
:101DC00022F810BDF8B504460D466A46294620465D
:101DD000FEF753FA06460098F8BDF8B504460D46DE
:101DE0006A4629462046FEF72EFA06463046F8BDDA
:101DF000F8B504460D466A4629462046FEF70AFA1B
:101E000006463046F8BDF8B504460D466A462946F2
:101E10002046FEF70BFA06460098F8BDF8B50446D2
:101E20000D466A4629462046FEF734FA06460098D3
:101E3000F8BD70B5044600260020FEF7C1FF2068FB
:101E400000686168884215D920680068401E2268D1
:101E500010600178204600F02FF80646207A2168AD
:101E60000978401AC5B220680079A84201DA2068D2
:101E7000057100BF0020FEF7A8FF304670BD024686
:101E8000D068081A138AB0FBF3F0C0B2704770B57F
:101E900004460D462E460020FEF792FF31462046AE
:101EA000FFF7EDFF21680A68511C23681960107064
:101EB0000020FEF78AFF70BD0246138AD06801FB3E
:101EC0000300704710B5014600BF09B90E2010BDD0
:101ED00000BF087A0B79C01AC2B2D1E9003018608D
:101EE00005E008680368581C0C6820601A70101E12
:101EF000A2F10103DAB2F4D10B68187100BFE6E772
:101F000030B502460B46D40802F00702012090408B
:101F10001D5D284030BD30B50B46C20800F00700FB
:101F20009C5C012585402C439C5430BD10B5044673
:101F300004B910BD00BF4FF47A7001F0B5F8601E0F
:101F4000041EF8D100BFF4E72DE9FF4705460C4613
:101F5000164698462F781A4840F82760194840F8E6
:101F600027804FF00009184B0FCB8DE80F00207829
:101F70008DF8000060788DF80100A0788DF80200DF
:101F8000E0788DF8030020798DF8050060798DF8F0
:101F90000600A0680290207B8DF80C00607B8DF815
:101FA0000D000EB1094800E0002002463B4669469C
:101FB000281D01F07FFA8146484604B0BDE8F0874D
:101FC000D0000020DC0000206C500000FD4000002C
:101FD0002DE9F04704460D461646984627780D48E9
:101FE00040F827600C4840F82780687B10B12846ED
:101FF00002F0ECFA4FF000090EB1084800E00020B2
:1020000002463B462946201D01F088FB8146484692
:10201000BDE8F087340000203C0000201947000094
:102020002DE9F84304460D4616461F46DDF820808C
:102030004FF000093B4632462946201DCDF800806E
:1020400001F012FC81464846BDE8F8832DE9F041D5
:1020500088B004460F46154626781A4840F82650A0
:102060001949386941F82600787F18498855202297
:1020700039466846FEF756F904964FF00008207876
:102080001249085C50B10DB1114800E00020024631
:102090006946201D01F0F4FC80460EE020780B49D3
:1020A000085C50B90DB10B4800E0002002466946BB
:1020B00004F10C0001F01CFC8046404608B0BDE86D
:1020C000F0810000200000202400002028000020D3
:1020D0002D4E00003D4C00000FB438B50446059865
:1020E00010B938BC5DF814FB0020009006A80090E1
:1020F0006A462046059900F012F80020009000BFC3
:10210000EFE770B50446A06800B970BDD4E90403D8
:10211000A268216898470020A06000BFF5E72DE97C
:10212000FC5F82460D4614460DB9BDE8FC9F00BF1A
:102130002E786D1C06B9E1E0252E70D100274FF0F6
:10214000010900BF2E782B2E0CD02D2E02D0302E60
:102150000CD103E047F001076D1C0AE047F00207CD
:102160006D1C06E047F004076D1C02E04FF000090B
:1021700000BF00BFB9F1000FE4D14FF0000800BF6D
:102180002A2E06D12168081D2060086880446D1C35
:102190000DE02E78302E01DB392E00DD07E06D1CBE
:1021A000A6F1300008EB880100EB4108E8E700BF2A
:1021B0004FF0000B2E782E2E10D16D1C00BF2E7804
:1021C000302E01DB392E00DD07E06D1CA6F130005A
:1021D0000BEB8B0100EB410BF1E700BF2E7800BF4A
:1021E0006C2E01D0682E02D16D1C2E7800E000E02C
:1021F000F6E700BF692E21D008DC252E6DD0582EC1
:1022000039D0632E0CD0642E6CD116E0702E4CD0D9
:10221000732E3ED0752E1FD0782E63D12AE065E054
:102220002168081D2060D1F8009009F0FF0001909E
:1022300050460199FEF7EEFE55E000BF2168081DEB
:102240002060D1F800905B460A2249465046CDE90D
:102250000087FFF7CBF946E02168081D2060D1F820
:1022600000905B460A2249465046CDE9008702F0BD
:102270007BFE38E000BF2168081D2060D1F8009087
:102280005B46102249465046CDE9008702F06CFEBD
:1022900029E02168081D2060086801903B464246FD
:1022A0005046019902F054F81DE02168081D206095
:1022B000D1F8009030215046FEF7ACFE7821504610
:1022C000FEF7A8FE002008210B461022CDE90010E1
:1022D0004946504602F048FE05E025215046FEF7EB
:1022E00099FE00E000BF00BF6D1C03E03146504680
:1022F000FEF790FE287800287FF41AAF00BF9AF806
:102300000C0010B15046FFF7FCFE00BF0DE7F0B522
:10231000DDE9054500BF4FF0A0473E4641EA4207D0
:1023200047EA830747EA042747EA054C06F5E067D2
:1023300047F820C0F0BDF0B5DDE9054500BF4FF01E
:10234000A0473E4641EA420747EA830747EA042797
:1023500047EA054C06F5E06747F820C0F0BDF0B548
:10236000DDE9054500BF4FF0A0473E4641EA420780
:1023700047EA830747EA042747EA054C06F5E06782
:1023800047F820C0F0BDF0B5DDE9054500BF4FF0CE
:10239000A0473E4641EA420747EA830747EA042747
:1023A00047EA054C06F5E06747F820C0F0BDF0B5F8
:1023B000DDE9054500BF4FF0A0473E4641EA420730
:1023C00047EA830747EA042747EA054C06F5E06732
:1023D00047F820C0F0BD1CB504460020009003461D
:1023E0000122014601902046FFF7B9FF1CBD1CB534
:1023F0000446002000900346012201460190204639
:10240000FFF7C1FF1CBD7CB505460C4600200090BF
:1024100023460246014601902846FFF7A0FF7CBDF7
:102420007CB505460C460020009023460246014636
:1024300001902846FFF7A7FF7CBD1CB5044600208D
:10244000009003460122114601902046FFF773FFDA
:102450001CBD1CB504460020009003460122114615
:1024600001902046FFF77BFF1CBD1CB504460020F1
:10247000009003460122114601902046FFF783FF9A
:102480001CBD10B50A4600BF4FF0A043194601F528
:10249000E06353F8203023F4403401F5E06343F85F
:1024A000204053F8203043EA024401F5E06343F84A
:1024B000204010BD00BF4FF0A0410A46012303FA9F
:1024C00000F1C2F80C1500BF704700BF4FF0A041EB
:1024D0000A46012303FA00F1C2F80C1500BF704749
:1024E000014600BF4FF0A040024600BFD2F81005E1
:1024F000C84000F00100704700BF4FF0A0410A46FD
:10250000012303FA00F1C2F8081500BF704700BFAD
:102510004FF0A0410A46012303FA00F1C2F8081562
:1025200000BF704700BF4FF0A0410A46012303FAE5
:1025300000F1C2F8081500BF704700BF4FF0A0417E
:102540000A46012303FA00F1C2F8081500BF7047DC
:1025500038B50B46074C24680094014606E05DF848
:102560002140D4F810551560121D491CC4188C4226
:10257000F5D838BD7C50000001460148084470473A
:102580000060004038B504462046FFF7F5FF002103
:1025900001602046FFF7F0FF0068009000BF38BDE3
:1025A00010B504462046FFF7E7FF0068012800D178
:1025B00010BD0020FCE700000149086070470000E2
:1025C0000463004070B504460E46FEF795FC0546D0
:1025D000681C08B9284670BDE8B2E168087100BF00
:1025E0000C48D0F8100430B90A48C0F81044002054
:1025F000E16808600BE00748D0F81004C068006884
:10260000E16808600348D0F81004C06804602846F8
:10261000E1E70000880400202DE9F04F93B08246E6
:102620000E4617469846DDF87090304600F001FCE3
:1026300018210DA8FDF78FFE0D97CDF83880CDF845
:10264000489000252B46082207A9304600F00EFCD2
:10265000082509980A90BDF82000ADF82C00BDF8B7
:102660002200ADF82E0000208DF83100079800F010
:10267000030001281BD107984FEA902B0798C0F35D
:10268000C2008DF830000798C0F38314A2002B46D7
:1026900001A9304600F0EAFB05EB84050DA80AAB62
:1026A000224601A90090584600F002FB27E0079857
:1026B00000F00300022822D107984FEA905B0798A8
:1026C000C0F3C2008DF8300000BFBBF1080F01D28B
:1026D000584600E0082004462B46224605A930460D
:1026E00000F0C4FB2544ABEB040B0DAB0AAA21465A
:1026F00005A800F01BFABBF1000FE6D100BF304681
:1027000000F0A5FB13B0BDE8F08F704710B50124B1
:10271000204602F0B5FA10BD70B505460A4C207887
:102720000A49085C18B1201D01F04EFA07E0207834
:102730000649085C18B904F10C0001F075F900BFF6
:10274000002002F09DFA70BD5C00002028000020EF
:1027500038B504460D4604484023044A29460090F3
:102760002046FFF759FF38BD9D3F0000F0020020D2
:1027700010B502460B4C04EBC203012906D0022916
:1027800006D0032906D0042908D105E0022007E07D
:10279000042005E0187903E0587901E0002000BF2B
:1027A00000BF10BD4058000010B54FF0FF34FFF7D8
:1027B000ADFF04210548FFF705FF044600BF0120D7
:1027C0000249C968487100BF10BD000030580000C0
:1027D0002DE9F04F8BB0FEF733FC18B100200BB0A1
:1027E000BDE8F08F0020B549C1F8180400BF00BF54
:1027F00000BFBFF34F8F00BF00BF00BF0846406857
:102800000A90084684680A9820400C3101EB800A3F
:10281000002500260020069000BF0AA95046FFF7B9
:102820000BF8A8B1A548D0F8180488B9A3480068E7
:102830000A99884205D8A1480068A049486000204C
:10284000CDE70A9820409D490C3101EB800A00E059
:1028500000E0E2E700BF00270BE00A98411C20409F
:102860000A9196490C3151F8200007A941F8270038
:102870007F1C022FF1D3079800F0030002287CD1BF
:102880000798800D059050210798B1EB905F02DD0D
:102890000798800D00E050208146079869F39F500B
:1028A000079009F1080004900798C0F3C200069051
:1028B0008348049900F060FA0546002D5BD0284655
:1028C00000F0B7FA3346082207A9284600F0DFFADD
:1028D00008360A982040611C081A4FEA8008C14552
:1028E00035D9B8F1000F06D00A98204073490C3151
:1028F00001EB800001E071480C300390B8F1000F4B
:1029000001D0404600E0484600F0FF0BB8F1000F50
:1029100002D06A480C3000E000200290B8F1000FAD
:1029200002D0A9EB080000E00020C0B201903346BD
:102930005A462846039900F0AAFA5E44029828B144
:1029400033462846DDE9012100F0A1FA0CE00A989F
:1029500020405A490C3101EB800B33464A46594618
:10296000284600F094FA00BF0598C01C0A9901EBB4
:1029700090000A9000BF44E0FFE7079800F00300D2
:1029800001283ED10798C0F38310062803DA079880
:10299000C0F3831000E00620079960F389110791C6
:1029A0000798C0F3831000F102080798C0F3C20033
:1029B00006904FEA8801424800F0DEF90546FDB175
:1029C000284600F036FA3346082207A9284600F0C8
:1029D0005EFA083600270EE00A98421C20400A9250
:1029E000364A0C3202EB800133460422284600F0BE
:1029F0004EFA361D7F1C0798C0F38310B842EBD8FF
:102A000000BFC5B32D48D0F81084D0F8180418B111
:102A1000284600F01CFA2DE019E04FF0000900BF35
:102A2000D8F80C004079012800D18146B9F1000F97
:102A300008D000BFD8F800002946026840469047F9
:102A400000BF00BFD8F80C00D0F8008000BFB8F17C
:102A5000000FE2D1284600F0FAF90020FEF7B0F9A5
:102A60001648D0F8180410B914490A984860002094
:102A7000FEF7ABF91DE0FFE71048D0F810840AE03C
:102A8000C146D9F8000081684846884700BFD8F899
:102A90000C00D0F80080B8F1000FF1D109490A4AC2
:102AA000891AC908022242EA014008A100F018F878
:102AB00000BFFEF7C5FA80F0010090E68804002010
:102AC0007858000070580000405800004261636B65
:102AD000656E647320666C75736865640000000041
:102AE00070B504460D4600231A462946204601F0DB
:102AF000F7FB70BDF8B505460E4614460094012359
:102B00006A463146284601F0EBFBF8BD2DE9FC4151
:102B100006460F4614461D460094019502236A4658
:102B20003946304601F0DCFBBDE8FC812DE9F05F61
:102B300007460E4690461D46082E01D9BDE8F09F77
:102B400095F80C90002028732946404601F036F98C
:102B500000240CE0B44205D23A5D1DA12846FFF7DF
:102B6000BBFA03E01CA12846FFF7B6FA641C082C48
:102B7000F0D31AA12846FFF7AFFA00241DE0B442B3
:102B800016D217F804A0BAF17E0F09DCFDF7C6FBD8
:102B9000006810F80A0000F03E0008B1504600E05E
:102BA0002E2083465A460EA12846FFF795FA03E0E9
:102BB0000CA12846FFF790FA641C082CDFD30122F1
:102BC0002946404601F0D6F885F80C9000BFB5E7DD
:102BD0002025303278000000202020007C000000FA
:102BE00025630000200000002DE9F04106460F4655
:102BF00000BFFF200D498860002008604860C1F8D0
:102C00001804C1F8140481F82004094800F019F9E7
:102C1000044614B12046BDE8F081064800F048F9AA
:102C200005480649401AC5080020F4E7880400203A
:102C300078580000105300007858000040580000F9
:102C400002480349401AC008704700007858000045
:102C50004058000013B50C4621466846FFF788F837
:102C600028B90448009A00EBC20108681CBD002086
:102C7000FCE700004058000070B50C48D0F8104444
:102C800001200A4981F820040CE000BF0120E1681E
:102C9000487100BF2546286841682846884700BF1C
:102CA000E0680468002CF0D170BD000088040020AA
:102CB0002DE9FF4707460C46164698460C9D95F8A9
:102CC0000C90002028732946404601F077F8072E23
:102CD00047D2DFE806F004090F161F2A37003946ED
:102CE0002846FFF7F9F93DE0394628462268FFF704
:102CF000F3F937E039462846D4E90023FFF7ECF929
:102D000030E0A068009039462846D4E90023FFF758
:102D1000E3F927E0D4E90201CDE90001394628466C
:102D2000D4E90023FFF7D8F91CE0D4E902122069A6
:102D3000CDE90012029039462846D4E90023FFF776
:102D4000CBF90FE0D4E90223D4E90410CDE9002344
:102D5000CDE9021039462846D4E90023FFF7BCF933
:102D600000E000BF00BF00222946404601F002F803
:102D700085F80C90BDE8FF872DE9F84F07468A4695
:102D8000388AA0F104080AF104004044401EB0FB58
:102D9000F8F0C0B200903846FFF74BF8044614B97B
:102DA0000020BDE8F88F0020207101216171A4F896
:102DB000068025460098A0F1010B2C462F604FF0AD
:102DC000000912E03846FFF734F8064636B160795C
:102DD000401C60712E603760354604E0204600F0EC
:102DE00008F80020DDE709F10109D945EAD32046BA
:102DF000D7E72DE9F05F0446274697F80580264679
:102E0000A8F1010B002501E036686D1C5D45FBD380
:102E1000D6F800A02646002507E0D6F800903146F7
:102E20005046FFF734F84E466D1C4545F5D3BDE8D6
:102E3000F09F70B5044625460121281DFEF7C2FF0C
:102E400070BD10B504462046FFF73CF810BDF8B53C
:102E5000044626460121301DFEF7E0FF00906D4636
:102E6000287810B92046FFF7C4FFF8BD2DE9FC41D2
:102E700005460E4614461F46019401203B4601AA12
:102E8000314600902846FEF70DFFBDE8FC812DE994
:102E9000FC4105460E4614461F46019400203B4661
:102EA00001AA314600902846FEF7FCFEBDE8FC81F1
:102EB0000021826891608268116182685161826834
:102EC000D160826851608268116070470246505834
:102ED00008B1012070470020FCE708B500224250ED
:102EE0004258009200BF08BDC0F808137047C0F8F0
:102EF00004137047C0F834154FF4A7631A50704795
:102F0000012242507047C0F844154FF4A9631A508B
:102F10007047000070B502460D4B03F58C7413E04A
:102F2000E61AF01000EBD076761003EBC6010D68C0
:102F3000954201D90C4606E0954202D201F1080300
:102F400001E0486870BD00BFA342E9D30020F9E763
:102F5000CC51000030B504462046FFF7DBFF0546A4
:102F60000DB9024830BD2846FCE70000B85100000A
:102F70000146D1F8C404C1F8C40470470246505851
:102F800008B1012070470020FCE708B5002242503C
:102F90004258009200BF08BDC0F808137047C0F83F
:102FA00004137047C0F834154FF4A7631A507047E4
:102FB000014640F23C5040587047C0F8001270473C
:102FC000012242507047C0F844154FF4A9631A50CB
:102FD0007047014640F24C50405870470146D1F8C6
:102FE0008004C1F8800470470246505808B101209F
:102FF00070470020FCE708B500224250425800927A
:1030000000BF08BDC0F80815C0F810257047C0F80B
:1030100008137047C0F8041370470246D2F804033F
:10302000084008B1012070470020FCE7012242500F
:103030007047C0F81425C0F80C1570470146D1F848
:103040008004C1F8800470470246505808B101203E
:1030500070470020FCE708B5002242504258009219
:1030600000BF08BDC0F808154FF4A2631A5070479E
:10307000C0F808137047C0F804137047014640F2C7
:103080003C5040587047D0F800228A43C0F80022D4
:10309000704701224250704740F20C53195040F2E1
:1030A00014531A507047000070B5044604B970BD3F
:1030B000024EA5012846B04700BFF8E721500000A6
:1030C00070B5044604B970BD024EA5012846B0474C
:1030D00000BFF8E75151000070B5044604B970BD57
:1030E000024EA5012846B04700BFF8E7A1510000F5
:1030F0000146080B40B270470146080B40B27047CA
:103100000146080B40B270470146080B40B27047B9
:103110002DE9F04706460D46304600F08DFDE0B142
:103120003046FDF7F1FF083822490F5CBC11032C33
:1031300008D13046FFF7D4F908B1032000E002209F
:10314000804605E0012C01D1022000E003208046EA
:1031500041463046FFF795F92AE0304600F078FD09
:1031600030B33046FDF7D0FF0446A00000F5807074
:1031700087B22046104951F8201041F001020E4953
:1031800041F8202000BF3846FFF7FCF97DB13046FA
:10319000FDF7BAFF8146FDF76FFF8046B8F1000FDB
:1031A00004D0012101FA04F0FFF706FA00BF00BFC6
:1031B000BDE8F0872C010020106500402DE9FC4798
:1031C00004460E4617464FF00008204600F026FD44
:1031D00010B14FF0080862E0B078C0F34002394601
:1031E0002046FDF751FF0546681C002854D0B078F2
:1031F000C0F3800020BBB07800F0010080B100BFB8
:1032000000BF4FF0A042104600F5E06252F82420C3
:1032100022F0020100F5E06242F8241000BF0CE049
:1032200096F80190002000904B460246014601901E
:103230002046FFF76CF800BF00BF204600F0E4FC1A
:10324000B078C0F34000D0B130781E4951F8251055
:103250001D4A11401B4A42F82510114651F825100D
:103260004FF4F85202EA04224FF4403303EA0043D9
:103270001A431143134A42F8251000BF0EE0A5F18E
:1032800008001249085C317840EA811042B2A5F189
:1032900008000E490A5401E04FF0040800BF404600
:1032A000FFF758FE05460A490A4A891AC908032247
:1032B00042EA01402B46084A08A1FFF727FC404696
:1032C000BDE8FC8710650040FFE0FCFF2C010020FA
:1032D0004058000040580000A650000046756E633C
:1032E00074696F6E3A2025732C206572726F72209C
:1032F000636F64653A2025732E0000002DE9F041CC
:10330000374890F8490098B108252846FFF722FE73
:1033100006463449344A891AC908022242EA014061
:103320003346324A32A1FFF7F1FB2846BDE8F0816F
:10333000002404E0204600F09BFC601CC4B2202C5A
:10334000F8DB002404E02046FDF786FE601CC4B2D2
:10335000092CF8DB22480021C0F845100622012381
:1033600010461946002809DA4E074FEA166C284E17
:1033700000F00F073F1F06F807C003E04E07370EA7
:10338000244E375400BF00BF062000BF01218140FA
:103390004209920002F1E022C2F8001100BF00BF12
:1033A0004FF4BE70FFF7EEF84FF00040FFF704F95E
:1033B00001200B4981F8490000252846FFF7CAFD86
:1033C00006460849084A891AC908032242EA014008
:1033D0003346064A06A1FFF799FB2846A6E70000F8
:1033E000E8000020405800004058000080500000D5
:1033F00046756E6374696F6E3A2025732C20657272
:10340000726F7220636F64653A2025732E0000008E
:1034100018ED00E000E400E0014601F06040B0F18A
:10342000005F01D1012070470020FCE7014601F058
:103430006040B0F1005F01D1012070470020FCE73F
:10344000014601F06040B0F1005F01D101207047FA
:103450000020FCE72DE9F04107460E46384600F013
:10346000FFFC0446BCB14FF000080020FDF7A8FCAB
:10347000207910B14FF0010802E026600120207190
:103480000020FDF7A2FCB8F1000F03D0112528465B
:10349000BDE8F08100BF00252846F9E770B5054674
:1034A000284600F0DDFC044614B1002020602071A5
:1034B00070BD00002DE9FF4F83B007460C463879F8
:1034C00000EB400101EBC0006A4901EB8006307F50
:1034D00028B14FF0080B584607B0BDE8F08F3D68A3
:1034E0003A79654B53F822103868FFF7B3FF18B1EB
:1034F0004FF0110B5846EFE7059830600698706062
:10350000207B012803DC2078FEF7D4FF02E020783E
:10351000FEF7F2FF002000900190207800231A4669
:103520000121FEF708FF6078FF2808D094F8019089
:103530004846FEF7BFFF4846FEF77FFF01E04FF029
:10354000FF39A078FF280ED094F802804FF0010ACE
:103550000020009053460246014601904046FEF787
:10356000EAFE00BF01E04FF0FF38A07886F82000A7
:10357000E078F077E078FF280DD0207918B1E07876
:10358000FEF798FF02E0E078FEF7B6FFE078FEF77E
:1035900054FF2079B0772078C5F80805C5F80C9558
:1035A000C5F8108500BFA068C5F8240500BF217BC1
:1035B000627B0AB1012300E00023184631B10129E2
:1035C00006D0022907D0032908D000BF00BF08E0B9
:1035D00040F0020005E040F0040002E040F0060088
:1035E00000BF00BFC5F8540500BFA079C5F8C005ED
:1035F00000BF306818B140212846FFF778FC00BFB3
:103600000720C5F8000500BF306858B33868FFF7D9
:103610006FFD82466179029150460299002809DACD
:103620004A074FEA126C154A00F00F031B1F02F8FD
:1036300003C003E04A07130E114A135400BF00BF32
:103640003868FFF755FD8246504600F01F02012101
:1036500091404209920002F1E022C2F8001100BF3D
:1036600000BF00BF00207077012030774FF0000BC3
:10367000584631E734010020CC50000018ED00E03E
:1036800000E400E02DE9F04105460E461746287992
:1036900000EB400101EBC000154901EB80044FF045
:1036A0000008607F20B14FF011084046BDE8F0816E
:1036B000206820B107F0140008B90120607796E86F
:1036C0000E10C4E9053CC4E90312E07FFF2808D0CE
:1036D000A07F18B1E07FFEF70FFF02E0E07FFEF76A
:1036E000E9FE3B4632462146286800F027FDDDE72B
:1036F00034010020017901EB810303EBC101064B8A
:1037000003EB810201680623C1F8003500BF0221E6
:1037100082F82D1070470000B00100202DE9FF4F06
:1037200083B006460D469246307900EB800101EBEE
:10373000C0003D4901EB800494F82D0028B14FF002
:103740000809484607B0BDE8F08F3279374B53F887
:1037500022103068FFF77EFE18B14FF0110948467D
:10376000F0E7C4F800A0069860600020A06084F82C
:10377000300084F82F00687B84F832000020062196
:10378000CDE900100323002211462868FEF70FFE42
:1037900000200621CDE900100323002211466868AD
:1037A000FEF705FE3768D5E90001C7F8080540F2C5
:1037B0000C52D15100BFA868C7F8240500BF20688B
:1037C00058B33068FFF7A0FC804695F80CB040462F
:1037D0005946002809DA4A074FEA126C144A00F0E9
:1037E0000F031B1F02F803C003E04A07130E114A20
:1037F000135400BF00BF3068FFF786FC8046404688
:1038000000F01F02012191404209920002F1E022E2
:10381000C2F8001100BF00BF00BF012084F82D00D6
:103820004FF0000948468DE7B001002068510000C4
:1038300018ED00E000E400E0F0B585B007460C4666
:1038400015461E46142207496846FCF76BFD8DF8A5
:1038500001400196039500226946384600F024F89D
:1038600005B0F0BD885100002DE9F04186B0074653
:103870000C4615461E46DDF83080142101A8FCF7E1
:103880006AFD8DF8054002960495B8F1000F01D04D
:10389000202000E00020024601A9384600F004F88C
:1038A00006B0BDE8F08100002DE9F04104460D4668
:1038B000164600BF207900EB800101EBC0000649ED
:1038C00001EB800833462A464046216801F010F893
:1038D00007463846BDE8F081B001002010B5024926
:1038E000024801F0FDF910BD6001002000200040F9
:1038F0002DE9F04105460E461746287900EB4001B8
:1039000001EBC0001A4901EB80044FF0000894F865
:103910002A0020B14FF008084046BDE8F0812A791E
:10392000144B53F822102868FFF794FD18B14FF09C
:1039300011084046F1E731462846FDF761FA676015
:1039400030692060606818B1317F2846FDF7E2FEDB
:1039500028680421C0F8001500BF0020A061E061C4
:1039600084F829006061012084F82A004046D4E7E9
:1039700060010020FC5000002DE9F04104460F4694
:103980009046207900EB400101EBC0001C4901EB9F
:103990008005204600F036F818B111263046BDE803
:1039A000F081C5F81480AF600020286285F82800F7
:1039B00000264FF48E712068FFF71DFB0821206858
:1039C000FFF734FB2946206801F005F96868A0B9C3
:1039D0002946206801F0E4F808B90F260BE000BF83
:1039E0004FF48E712068FFF7FFFA0028F8D00C2101
:1039F0002068FFF71BFB002068613046CFE700001E
:103A0000600100200146087900EB400202EBC00093
:103A1000044A02EB8000406908B101207047002091
:103A2000FCE700006001002070B50446207900EB3F
:103A3000400101EBC0000C4901EB8005206800212A
:103A4000C0F8001500BF686810B12046FDF72EFED3
:103A5000204600F013F92068FFF720FD002085F8CC
:103A60002A00686070BD00006001002010B50249A6
:103A7000024801F0F7F910BD8C0100200020004041
:103A80002DE9F04105460E461746287900EBC000A7
:103A9000194901EB80044FF0000894F8200020B190
:103AA0004FF008084046BDE8F0812A79134B53F8DF
:103AB00022102868FFF7CEFC18B14FF011084046DD
:103AC000F1E731462846FDF7D9F967603069206093
:103AD000606818B1317F2846FDF760FE286808212C
:103AE000C0F8001500BF0020A061E0616061012006
:103AF00084F820004046D6E78C0100202C510000BD
:103B00002DE9F047044688469146207900EBC00035
:103B1000244901EB80054046FFF788FC18B91026C0
:103B20003046BDE8F087204600F03EF810B111267F
:103B30003046F6E7C5F81490C5F8088000264FF423
:103B400090712068FFF787FA4FF4AC712068FFF797
:103B500082FA20686A69A968C0F844154FF4A9631D
:103B60001A5000BF08212068FFF793FA6868B0B9BF
:103B700000BF4FF490712068FFF766FA82464FF459
:103B8000AC712068FFF760FA0746BAF1000F01D167
:103B9000002FEED007B10F260020686100BF30462D
:103BA000BFE700008C0100200146087900EBC0004F
:103BB000044A02EB8000406908B1012070470020F0
:103BC000FCE700008C01002070B50446207900EB72
:103BD000C0000C4901EB800520680021C0F80015E9
:103BE00000BF686810B12046FDF77AFD204600F05E
:103BF00081F82068FFF752FC002085F820006860FB
:103C000070BD00008C01002010B50446024920461A
:103C1000FEF781F910BD00002D0100200146054886
:103C20004056012202EBE07008B1012070470020ED
:103C3000FCE700000C01002001460448405608281B
:103C400001DB012070470020FCE700000C01002090
:103C5000014606484056002805DB0448405608281F
:103C600001DA012070470020FCE700000C01002071
:103C7000FF2201490A5470470C0100202DE9F0474A
:103C800004462068D0F80C150D462068D0F81415AD
:103C90000E462068D0F808150F462068D0F8101599
:103CA0008846D4F800904FF0FF3211464846FFF79F
:103CB000C0F900BFD4F800904FF0FF3211464846DB
:103CC000FFF7A0F900BF681C10B12846FEF783FB80
:103CD000701C10B13046FEF77EFB08F1010010B1F8
:103CE0004046FEF778FB781C10B13846FEF773FBB0
:103CF000BDE8F0872DE9F0470446206840F20C51FA
:103D000009580D46206840F2145109580E462068A3
:103D1000D0F808150F4620684FF4A261095888466C
:103D2000D4F800904FF0FF3211464846FFF7B4F93F
:103D300000BFD4F800904FF0FF3211464846FFF71D
:103D400091F900BF681C10B12846FEF750FB701CAB
:103D500010B13046FEF74BFB08F1010010B14046B0
:103D6000FEF745FB781C10B13846FEF740FBBDE876
:103D7000F087000070B504460D461646207A0528E7
:103D80000CD0607A28B10A480AA102682846FEF7DA
:103D9000A3F909A12846FEF79FF904E01EB106A188
:103DA0002846FEF799F92846FEF7ABF970BD0000EA
:103DB000A0000020257300000D0A0000F8B504469D
:103DC0000D46E08838B116A00090E38816A218A12D
:103DD0002846FEF781F9207A05281FD0607A58B16D
:103DE000217AA088FEF7C4FC174951F820603246BA
:103DF00016A12846FEF770F92846216800F0E5FB79
:103E0000A0880021FEF726FF0646207A104951F8C7
:103E1000202033460FA12846FEF75EF9F8BD0000CA
:103E20001B5B306D000000001B5B313B33316D00CC
:103E300025734C6F67732064726F707065642028FF
:103E400025642925730D0A00A000002025730000B9
:103E50008C0000203C25733E2025733A2000000092
:103E600001460348814201D1024870470020FCE727
:103E7000002000402C00002001490860704700002D
:103E800040150140014800687047000004150140DA
:103E900010B54FF480300A4908600A49C1F804039C
:103EA0001120FCF78BFB1120FCF794FB0120054946
:103EB00008602F20FFF710F901200349087010BD9A
:103EC00044130140001001405600002010B511209D
:103ED000012181400E4A430942F8231000BF4FF4EC
:103EE00080300C4908600C49C1F808030120486083
:103EF0002F20FFF7F1F801200749886000200749CB
:103F000008602F20FFF7E8F800200549087010BD71
:103F100080E100E04813014000100140480000200B
:103F20005600002070B505460C46A06940B94FF414
:103F300084712846FFF75FF800BFD5F8180570BDFB
:103F40004FF484712846FFF756F800BFD5F81805DE
:103F5000C0B2626AE1688854606A401C606200BF57
:103F6000EDE77FB504460D46164601208DF80000AA
:103F7000029501966846D4E9001290477FBD7FB54F
:103F800004460D46164601208DF800000295019664
:103F90006846D4E9001290477FBD00002DE9F05F2C
:103FA0000E46174607F0FF0A002018490870184C03
:103FB000B046D146834620781649085C30B14A465F
:103FC0004146201DFFF79CFD83460AE020781149F9
:103FD000085C30B94A46414604F10C00FFF7CCFCBE
:103FE00083465D4600BF00BF2C4624B100BF20467B
:103FF000FCF7D8FE00BF00BF00BF0748007818B12B
:10400000024800780028F8D0BDE8F09F700000203A
:104010005C000020280000207100002070B50446DC
:104020000D462078E0B90F490F4A891AC9080322C2
:1040300042EA01400DA1FEF753FD12494A780949B1
:10404000094BC91AC908032343EA01400EA1FEF730
:1040500051FD0C4840781049087001200F49087044
:1040600070BD00007058000040580000205472617C
:104070006E7366657220636F6D706C657465642E17
:104080000A0D0000190000205265636569766564B9
:104090003A2030782578000003000020020000203C
:1040A0002DE9FF47044613480021016000BF124E6E
:1040B00004278046B9468A4600940197CDF80880C7
:1040C000CDF80C9000226946301DFFF7DBFA8246DE
:1040D00000BF554625B100BF2846FCF763FE00BF70
:1040E00000BF00BF00BFFEF773FB0028FBD100BF7D
:1040F000BDE8FF87190000204C50000070B586B065
:1041000004460D462E4620788DF804006068029023
:10411000217A8DF80C10E1680491217C8DF814103F
:10412000044850F82610044850F8262001A890476B
:1041300006B070BDDC000020D00000202DE9F04763
:1041400007460D4614461E46206818B12068FFF742
:1041500063F928B1A06850B1A068FFF75DF930B9E4
:10416000002068774FF010084046BDE8F087002037
:104170006862A8623846D4E90012FEF7C4FE3846E9
:10418000D4E90212FEF7B6FE4FF48C713846FEF702
:10419000A4FE3846314601F0010232B100BF0123CE
:1041A0004FF4AA62135000BF06E000BF00234FF493
:1041B000AA62135000BF00BF01F0020232B100BF7B
:1041C00001234FF4A862135000BF06E000BF002394
:1041D0004FF4A862135000BF00BF00BF06F00800F4
:1041E00018B910213846FEF78BFE06F00800B8B16A
:1041F0004FF4A6713846FEF770FE60686862E068AA
:10420000A862002238462168FEF77DFE002238466B
:10421000A168FEF76FFE4FF400213846FEF767FEF7
:104220002868A0B900BF4FF48C713846FEF74EFEE7
:104230000028F8D0E87FFF281BD0A87F18B1E87FBE
:10424000FEF738F915E0E87FFEF756F911E0B946B8
:10425000012020EA960ABAF1000F04D14021484615
:10426000FEF742FE03E040214846FEF740FE00BF55
:1042700000BF4FF00008404677E700002DE9F05FEF
:1042800005460E4690461F46DDF828904FEA154A2F
:10429000FCF788FF83464AEA0B42781C00EA0900D3
:1042A0000E4941F8202007EA090001EB800420684C
:1042B00065F3C5002060206868F3891020602068DD
:1042C00066F39F202060206820F00300401C2060DF
:1042D000206820F004002060BDE8F09F94040020D6
:1042E0002DE9FC478046894616461C4617488768D4
:1042F000012201A92046FCF71DFEC8B1019800F17A
:10430000020A00250AE056F8252050460AF1010A63
:1043100038400E490C3141F820206D1CA542F2D3E3
:104320000097224649464046019BFFF7A7FF00BF82
:10433000064890F8200430B100BF00BFFEF748FAED
:104340000028FBD100BFBDE8FC87000088040020E6
:104350002DE9F04781460C4615469846002608F0A0
:104360000100A0B105E0641C761C39464846FCF704
:1043700051FE2778002FF6D104E06D1E202148461B
:10438000FCF748FEB5421BD9002DF6D118E01CB150
:104390002046FBF7EBFF064604E06D1E2021484651
:1043A000FCF738FEB54201D9002DF6D105E0641CBA
:1043B000761C39464846FCF72DFE2778002FF6D1AB
:1043C000BDE8F0870246501A20F07F40704710B5D4
:1043D0000446D4E90510884710BD00002DE9FC41D2
:1043E0000020019000260E4804680E4807686846C1
:1043F000FCF7E4FE05462DB101AA21460098FDF721
:1044000069F801260198FDF779FA00B1012616B185
:104410003846FCF77FFE002003490870BDE8FC81A8
:1044200048000020440000205700002010B5142050
:10443000FCF7DCF810BD000010B51849096811B987
:104440001649086028E0154A01681268126891420E
:104450000DD81249096809680268891A0F4A12685A
:1044600011600E490968C1610C49086014E00268D6
:104470000A4C2368216803E00C68121B0B46C969CB
:1044800011B10C689442F7D311B10C68A41A0C60F6
:104490000260C161D86100BF10BD0000440000206F
:1044A0002DE9F04106461C48D0F8008005682C46EE
:1044B00004E0B44200D103E02546E469002CF8D1C1
:1044C00000BF14B90020BDE8F081A54213D1124805
:1044D0000068C069104908600846006858B90120A2
:1044E0000E49886000200E49086001200D490870BF
:1044F0002F20FEF7F1FD2768E069E861EC6914B14F
:1045000020683844206004480068804501D00120BC
:10451000D9E70020D7E70000440000200010014048
:1045200048000020570000202DE9F0411F48006896
:10453000002838D00027FFF7A5FC80461C480168FA
:104540004046FFF73FFF06461848056810E0286818
:10455000B04200D90EE02868361A286807442C4675
:10456000ED69207C20B1002020742046FFF72FFF4A
:10457000002DECD100BF0F4800780F490978884220
:1045800009D10D480078401CC0B20B4908700228C0
:1045900001D10020087009480749097840F82170C6
:1045A000FFF744FF00BFBDE8F08100004400002099
:1045B0004800002054000020550000204C0000203E
:1045C00010B51120FCF712F810BD704770B5044605
:1045D00040F20C612248226840F82210626840F8DC
:1045E00022102068FDF7A9FF6068FDF7A6FF40F2E2
:1045F0000D611B48226840F82210626840F82210C2
:104600000420FEF75DFD00251BE0606800BF4FF051
:10461000A042114600BFD1F81025C24002F00102AD
:1046200012B105B970BD0EE02068FDF74EFF042001
:10463000FEF746FD2068FDF780FF0420FEF740FDF1
:104640006D1C092DE1DB00BF6068FDF73EFF042013
:10465000FEF736FD6068FDF770FF00BFE2E700007F
:104660000007005002785AB90279012A02D1064B9C
:104670001A7004E0027912B90122044B1A7000E0AA
:1046800000BF00BF7047000013000020140000208E
:104690007FB5114B0FCB8DE80F0000230F4A694601
:1046A0000F48FDF795FC0546ADB90D4C201DFFF7F1
:1046B00021F800BF0B490C4A891AC908032242EAB3
:1046C00001400AA1FEF70CFA00BF00BFFEF780F818
:1046D0000028FBD100BF7FBD3850000065460000B8
:1046E00028500000705800004058000054574920DE
:1046F000494E495449414C495A454400014603201A
:1047000001F002020AB148F2012001F004020AB1EC
:1047100048F20220704700007FB504460D462E4641
:1047200020788DF8000020798DF8040061798DF8EB
:104730000510217A8DF80610217B8DF8071021696C
:10474000029161690391044850F82610034850F81B
:104750002620684690477FBD3C00002034000020A2
:1047600070B586B006460C464FF492713046FEF79F
:1047700005FCF0B14FF492713046FEF706FC4FF4A1
:1047800082713046FEF7FAFB98B9A1683046FEF711
:1047900003FC0220A060A1683046FEF700FC202147
:1047A0003046FEF70DFC14213046FEF709FC06B03A
:1047B00070BD4FF482713046FEF7E0FB00283FD019
:1047C0004FF482713046FEF7E0FB142204F10C0135
:1047D00001A8FBF7A7FD94F82E00A8B1207B0128C3
:1047E00003D13046FEF7E4FB02E03046FEF7F1FB72
:1047F0000290207B022803D13046FEF7D9FB02E06D
:104800003046FEF7E6FB03904FF4B0713046FEF7FA
:10481000BCFB4FF4AE713046FEF7B7FB94F83000A6
:1048200018B194F82E0000283ED000213046FEF743
:10483000C4FB0020A0602D493046FEF7ADFB33E0FD
:104840004FF4A4713046FEF7A0FB207B98B91422E8
:1048500004F10C0101A8FBF765FD94F8300018BBCA
:1048600000213046FEF7A9FB0020A0601F4930461A
:10487000FEF792FB18E04FF400713046FEF79DFB07
:1048800040F20220A06019493046FEF785FBA1687E
:104890003046FEF784FB08213046FEF791FB2021CD
:1048A0003046FEF78DFB82E73046FEF761FB05469A
:1048B00005F0020018B101208DF8000009E005F0B4
:1048C000040018B102208DF8000002E000208DF8ED
:1048D000000094F8300010B9002084F82F006846DA
:1048E000D4E90021904700BF61E7000002029C016B
:1048F0002DE9F05F05460F4614461E464FF00008AE
:104900004FF008094FF4827AE068FEF799FD20B96C
:104910004FF010084046BDE8F09F9F493846FEF72B
:104920003BFB95F82F0038B1A9683846FEF737FBF6
:104930004FF011084046EEE706F0040020B906F0FB
:10494000100008B9012000E0002085F82F00142293
:10495000214605F10C00FBF7E5FCC6F3001085F8D5
:1049600030006078C7F8880500BF4FF48271384680
:10497000FEF70BFB4FF492713846FEF706FB384604
:10498000314601F0010232B100BF01234FF4AA62A7
:10499000135000BF06E000BF00234FF4AA6213507B
:1049A00000BF00BF01F0020232B100BF01234FF48B
:1049B000A862135000BF06E000BF00234FF4A862B6
:1049C000135000BF00BF00BF2078002862D001282C
:1049D00077D002283FD0032874D12069FEF730FD3C
:1049E00018B94FF01008404695E74FF480713846EB
:1049F000FEF7E3FA38466268E168FEF7E4FA4FF43E
:104A0000A8713846FEF7C1FA4FF4B0713846FEF788
:104A1000BCFA4FF4A4713846FEF7B7FA20213846A5
:104A2000FEF7CEFA08213846FEF7CAFA00BF4FF467
:104A3000A8713846FEF7A2FA0028F8D04FF4A87102
:104A40003846FEF7A2FA3846A2682169FEF7BBFA9B
:104A50005248A8605BE038466268E168FEF7B3FA46
:104A60002069FEF7EDFC18B94FF01008404652E7F8
:104A70003846A2682169FEF795FA4FF4845138460A
:104A8000FEF79BFA40F20220A86020213846FEF78C
:104A900097FA3CE038466268E168FEF794FA06F05F
:104AA000200080B14FF480713846FEF786FA3B480B
:104AB000A8604FF4A4713846FEF767FA4FF4A47A61
:104AC00009E00DE020E04FF400713846FEF775FA7A
:104AD00040F20220A86020213846FEF771FA16E065
:104AE00038466268E168FEF75DFA4FF48051384657
:104AF000FEF763FA40F20220A8604FF0000920217F
:104B00003846FEF75DFA02E04FF0070800BF00BF2D
:104B100006F0080030B92078032803D0494638460B
:104B2000FEF74EFA286850B106F0040010B14FF4B9
:104B30000070A860A9683846FEF731FA2AE014E050
:104B40004FF492713846FEF719FA70B14FF4927132
:104B50003846FEF71AFA20213846FEF731FA1421BA
:104B60003846FEF72DFA4FF4827A51463846FEF762
:104B700005FA0028E4D03846FEF7FAF9834600200B
:104B800085F82F00BBF1000F03D05846FFF7B6FDA4
:104B9000804600BF4046BEE602029C0100020400BF
:104BA00070B505460C4610E004E094F8280008B102
:104BB000002070BD4FF48E712846FEF715FA0028CC
:104BC000F3D02146284600F006F8206A6169884241
:104BD000EAD30120EDE770B505460C464FF48E711F
:104BE0002846FEF708FA216AA068465C206A401C45
:104BF00020623046C5F81C0500BF70BD7FB5044675
:104C00000D4600208DF800000295A068019000205C
:104C100060616846D4E9001290477FBD7FB50446C5
:104C20000D4600208DF800000295A068019000203C
:104C300060616846D4E9001290477FBD7FB50446A5
:104C40000D462E4620788DF8000060680190217A8C
:104C50008DF80810E1680391044850F826100448C4
:104C600050F82620684690477FBD000024000020B1
:104C7000200000200122014B1A70704770000020B4
:104C800070B588B00546202211496846FBF74AFBFB
:104C900006200090C01F0190029003904FF0EB702F
:104CA00006900DB10B4800E00020024669460A4814
:104CB000FDF7CCF9044600BF264626B100BF3046BA
:104CC000FCF770F800BF00BF0448057008B070BD65
:104CD000F0520000754C00005C00002071000020C4
:104CE0002DE9FF4105460C464FF400712846FEF7BA
:104CF00094F948B34FF492712846FEF775F918B34A
:104D00004FF492712846FEF776F94FF40171284668
:104D1000FEF77DF994F8290018B904212846FEF71A
:104D200085F902208DF800002846FEF757F9039018
:104D3000A1690291E06801900020A061E0616846ED
:104D4000D4E90012904737E004212846FEF765F9C0
:104D5000002831D04FF484712846FEF745F958B346
:104D600021462846FFF7DEF8616AA069884223D110
:104D7000E06970B1E668676AE069A0612069E06097
:104D80000020E0616062324639462046FFF7E9F8CC
:104D900012E094F8290018B904212846FEF746F9D4
:104DA0004FF401712846FEF732F90020A061E26855
:104DB000616A2046FFF7D5F84FF48E712846FEF75A
:104DC00013F9B0B1206A6169884207D294F82800CB
:104DD00020B921462846FFF7FEFE0AE04FF48E7107
:104DE0002846FEF708F9606918B120466169FFF7A7
:104DF00005FF4FF4A2712846FEF7F6F8A0B14FF474
:104E0000A2712846FEF7F7F894F8290018B100219E
:104E10002846FEF70BF9A06930B10020A061E268D6
:104E2000616A2046FFF79DF8BDE8FF817FB5044623
:104E30000D462E4620788DF8000060680190217A9A
:104E40008DF80810E1680391044850F826100448D2
:104E500050F82620684690477FBD000024000020BF
:104E6000200000202DE9FF4105460C464FF49271C9
:104E70002846FEF7E9F8C8B14FF492712846FEF7CC
:104E8000EAF802208DF800002846FEF7D7F80390D4
:104E90002846FEF7F3F80290E06801900020A06138
:104EA000E0616846D4E9001290472CE04FF4887125
:104EB0002846FEF7C9F830B34FF488712846FEF74C
:104EC000CAF82846FEF7DAF80646A069B04219D1BA
:104ED000E06980B1E76820212846FEF7D4F8E06950
:104EE000A0612069E0600020E0613A46314620463A
:104EF000FFF745F806E00020A06131462046E26851
:104F0000FFF73DF800BF4FF4A2712846FEF79CF86A
:104F100090B14FF4A2712846FEF79DF8A06958B1F0
:104F20000020A061E0612846FEF7A8F80646314659
:104F30002046E268FFF723F84FF490712846FEF709
:104F400083F878B14FF490712846FEF784F86069D1
:104F500040B100BF40F24C50405906463146204611
:104F6000FFF75CFEBDE8FF812DE9FF4F81B0884669
:104F700016461F46DDE90E4B45464FF0010A03E099
:104F8000B5FBF6F50AF1010AB542F9D2574500D949
:104F9000BA460BF0010098B994B10BF00200022858
:104FA00003D117B93020009001E02020009004E0E8
:104FB000641EDDE90010FCF72DF80CB1A245F7D313
:104FC000012509E0012F01D97F1E04E0B8FBF5F9A6
:104FD000B14500D201E07543F4E700BF00BFB8FB64
:104FE000F5F909FB15880D4810F809100198FCF730
:104FF00011F8B5FBF6F5002DF1D10BF0010048B129
:1050000044B104E0641E20210198FCF703F80CB1C0
:10501000A245F7D305B0BDE8F08F0000A65100000F
:105020000338FDD870470000000000000030004049
:1050300000000000010000001B0000001A0000003A
:1050400000009801020100000200020002000000BE
:10505000003002400000000001000000FFFFFFFFE1
:1050600002FF00000000004000000000FFFFFFFF03
:105070000002FF000000004000000000000000509F
:105080006E7266785F6770696F74655F696E697468
:10509000006E7266785F6770696F74655F6F7574B4
:1050A0005F696E6974006E7266785F6770696F74AD
:1050B000655F696E5F696E69740000006E72667884
:1050C0005F7370696D5F696E697400002909000083
:1050D0007370696D5F78666572006E7266785F7373
:1050E00070696D5F78666572000000006E726678A8
:1050F0005F756172745F696E69740000DD3800006D
:105100006E7266785F756172745F7478006E726635
:10511000785F756172745F72780000006E726678F5
:105120005F75617274655F696E6974006D3A000045
:105130006E7266785F75617274655F7478006E7206
:1051400066785F75617274655F72780000000000B8
:105150000338FDD8704700006E7266785F74776917
:105160006D5F696E69740000150900007477696DE0
:105170005F78666572006E7266785F7477696D5FDE
:105180007866657200000000010000000000000069
:10519000000000000000000000000000000000000F
:1051A0000338FDD87047303132333435363738392B
:1051B0004142434445460000556E6B6E6F776E204A
:1051C0006572726F7220636F6465000000000000FA
:1051D0000857000001000000C85500000200000050
:1051E000BC530000030000003C5600000400000017
:1051F00090560000050000007055000006000000F9
:105200000C55000007000000785600000800000060
:105210008455000009000000E85500000A00000065
:10522000F05600000B000000A45300000C0000002A
:105230009C5500000D000000405700000E000000CB
:10524000685600000F000000A45600001000000087
:10525000D8560000110000005457000080000000E4
:10526000245500008100000060540000820000000E
:10527000205400008300000000540000840000005F
:105280003C540000850000004855000086000000E6
:105290005056000090000000EC5400009100000007
:1052A000E053000092000000B055000000820000B2
:1052B000B85600000182000004560000028200007F
:1052C00020560000008400007C540000018400008F
:1052D0001457000002840000C4540000038400003E
:1052E000A054000051270000192700000B270000E0
:1052F000FFFFFFFFFFFFFFFFFFFFFFFFFFFFFFFFBE
:1053000000000000000000000000D60101010000C4
:10531000F00300207F0000007004002000404040A7
:105320004040404040404141414141404040404078
:105330004040404040404040404040404005020224
:1053400002020202020202020202020202202020E3
:10535000202020202020200202020202020290903F
:10536000909090901010101010101010101010103D
:105370001010101010101010020202020202888891
:10538000888888880808080808080808080808089D
:105390000808080808080808020202024000000085
:1053A0001D5300004E52465F4552524F525F494EC8
:1053B00056414C49445F4441544100004E52465FBF
:1053C0004552524F525F534F465444455649434508
:1053D0005F4E4F545F454E41424C45440000000033
:1053E0004E52465F4552524F525F464541545552C8
:1053F000455F4E4F545F454E41424C4544000000CE
:105400004E52465F4552524F525F4D555445585F7C
:10541000554E4C4F434B5F4641494C4544000000BC
:105420004E52465F4552524F525F4D555445585F5C
:105430004C4F434B5F4641494C4544004E52465FFA
:105440004552524F525F4D555445585F434F4E445D
:105450005F494E49545F4641494C454400000000B5
:105460004E52465F4552524F525F4D555445585F1C
:10547000494E49545F4641494C4544004E52465FAF
:105480004552524F525F424C455F495053505F5214
:10549000585F504B545F5452554E4341544544005D
:1054A0004E52465F4552524F525F424C455F495003
:1054B00053505F504545525F52454A454354454419
:1054C000000000004E52465F4552524F525F424C20
:1054D000455F495053505F4C494E4B5F44495343DD
:1054E0004F4E4E4543544544000000004E52465F27
:1054F0004552524F525F4150495F4E4F545F494DA4
:10550000504C454D454E5445440000004E52465FB8
:105510004552524F525F4E4F545F535550504F5269
:10552000544544004E52465F4552524F525F4D4FD4
:1055300044554C455F4E4F545F494E495449414C88
:10554000495A4544000000004E52465F4552524FB2
:10555000525F4D4F44554C455F414C524541445973
:105560005F494E495449414C495A454400000000A6
:105570004E52465F4552524F525F4E4F545F464F18
:10558000554E44004E52465F4552524F525F494E6F
:1055900056414C49445F5354415445004E52465F76
:1055A0004552524F525F444154415F53495A45005E
:1055B0004E52465F4552524F525F494F5F50454EE3
:1055C00044494E47000000004E52465F4552524F3C
:1055D000525F5356435F48414E444C45525F4D49DC
:1055E0005353494E470000004E52465F4552524FBA
:1055F000525F494E56414C49445F4C454E475448D2
:10560000000000004E52465F4552524F525F4452D6
:10561000565F5457495F4552525F414E41434B00DC
:105620004E52465F4552524F525F4452565F545756
:10563000495F4552525F444E41434B004E52465FD4
:105640004552524F525F494E5445524E414C000014
:105650004E52465F4552524F525F53544F5241474C
:10566000455F46554C4C00004E52465F4552524FE6
:10567000525F4E554C4C00004E52465F4552524FC1
:10568000525F494E56414C49445F504152414D0092
:105690004E52465F4552524F525F4E4F5F4D454D01
:1056A000000000004E52465F4552524F525F464F37
:1056B0005242494444454E004E52465F4552524F75
:1056C000525F4452565F5457495F4552525F4F569E
:1056D000455252554E0000004E52465F4552524FC1
:1056E000525F494E56414C49445F41444452000088
:1056F0004E52465F4552524F525F494E56414C49B9
:10570000445F464C414753004E52465F5355434316
:10571000455353004E52465F4552524F525F424CE2
:10572000455F495053505F4348414E4E454C5F41A1
:105730004C52454144595F45584953545300000069
:105740004E52465F4552524F525F54494D454F5558
:10575000540000004E52465F4552524F525F425530
:10576000535900007761726E696E670064656275F7
:10577000670000001B5B313B33306D001B5B306DFD
:10578000000000001B5B313B33316D001B5B313B84
:1057900033326D001B5B313B33336D001B5B313BA0
:1057A00033346D001B5B313B33356D001B5B313B8C
:1057B00033366D001B5B313B33376D00696E666FAE
:1057C000000000006572726F720000004750494F80
:1057D00054450000505253005350494D0000000002
:1057E00055415254000000005541525445000000FC
:1057F0005457494D00000000756172745F6C6F670B
:105800005F6261636B656E64000000006170700030
:105810008C58000000000020D0000000C80C0000E0
:105820005C590000D0000020E0270000D80C0000E8
:10583000E452000000000000F8570000740000204F
:10584000CC57000000000303D45700000000000004
:10585000D857000000000000E057000000000000E2
:10586000E857000000000000F057000000000000B2
:105870000C58000000000303840000207C0000207E
:10588000840000203003002018000000000000FF0A
:105890000000000000000000000000000000000008
:1058A00000000000000000000000000000000000F8
:1058B00000000000000000000000000000000000E8
:1058C00000000000000000000000000000000000D8
:1058D00000000000000000000000000000000000C8
:1058E0000000000000000000000000000020004058
:1058F0000000000000200040000000000000000048
:1059000000000000FF000000000000000000000098
:10591000000000000000000000000000C45700006C
:1059200064570000BC5700006C5700007C57000013
:1059300074570000845700008C57000094570000F3
:105940009C570000A4570000AC570000B45700005B
:0C59500000000000000000000090D003E8
:0400000500000201F4
:00000001FF
