:020000040000FA
:1000000068270020F902000001030000030300003C
:1000100005030000070300000903000000000000C2
:100020000000000000000000000000000B030000C2
:100030000D030000000000000F030000110300008A
:100040001303000013030000F90B00001509000062
:1000500025090000130300007D05000013030000C4
:100060001303000013030000130300001303000038
:100070001303000013030000130300001303000028
:100080001303000013030000130300001303000018
:100090001303000013030000130300001303000008
:1000A00013030000130300001303000013030000F8
:1000B0001303000013030000000000000000000014
:1000C00013030000130300001303000013030000D8
:1000D00013030000130300001303000000000000DE
:1000E0000000000000000000000000000000000010
:1000F0000000000000000000000000000000000000
:1001000000000000000000000000000000000000EF
:1001100000000000000000000000000000000000DF
:1001200000000000000000000000000000000000CF
:1001300000000000000000000000000000000000BF
:1001400000000000000000000000000000000000AF
:10015000000000000000000000000000000000009F
:10016000000000000000000000000000000000008F
:10017000000000000000000000000000000000007F
:10018000000000000000000000000000000000006F
:10019000000000000000000000000000000000005F
:1001A000000000000000000000000000000000004F
:1001B000000000000000000000000000000000003F
:1001C000000000000000000000000000000000002F
:1001D000000000000000000000000000000000001F
:1001E000000000000000000000000000000000000F
:1001F00000000000000000000000000000000000FF
:10020000DFF80CD000F0BAF800480047E91400000D
:100210006827002030B4044654E8000F0D4644E837
:100220000053002BF8D1156030BC704730B4044641
:1002300054E8000F40EA010544E80053002BF7D1D1
:10024000156030BC704730B4044654E8000F00EA33
:10025000010544E80053002BF7D1156030BC70470E
:1002600030B4044654E8000F80EA010544E8005326
:10027000002BF7D1156030BC704730B4044654E809
:10028000000F00EB010544E80053002BF7D1156087
:1002900030BC704730B4044654E8000FA0EB0105B1
:1002A00044E80053002BF7D1156030BC704770B4A0
:1002B00004464FF0000054E8006F0D68AE4207BFDF
:1002C00044E80023012044E800630E60002B1CBFBB
:1002D0000020F0E770BC704730B4044654E8000FCB
:1002E00088422CBF451A054644E80053002BF5D13F
:1002F000156030BC7047000006488047064800473C
:10030000FEE7FEE7FEE7FEE7FEE7FEE7FEE7FEE7C5
:10031000FEE7FEE7510900000102000000487047B7
:10032000443B000040EA01039B0703D009E008C9F1
:10033000121F08C0042AFAD203E011F8013B00F8AA
:10034000013B521EF9D27047D2B201E000F8012BF6
:10035000491EFBD270470022F6E710B513460A4645
:1003600004461946FFF7F0FF204610BD421C10F866
:10037000011B0029FBD1801A70470000064C074D75
:1003800006E0E06840F0010394E807009847103465
:10039000AC42F6D3FFF738FFAC3F0000CC3F000083
:1003A0002749284A0323891AC90803EB0142102868
:1003B00045D2DFE800F044080C1014181C20242853
:1003C0002C3034383C4010461FA101F079BE104655
:1003D00022A101F075BE104625A101F071BE1046A4
:1003E00029A101F06DBE10462CA101F069BE104696
:1003F00030A101F065BE104634A101F061BE104687
:1004000038A101F05DBE10463BA101F059BE104677
:100410003EA101F055BE104641A101F051BE10466B
:1004200045A101F04DBE10463DA101F049BE104668
:1004300046A101F045BE10464AA101F041BE7047F9
:1004400004400000DC3F0000425554544F4E203120
:10045000203A20505553484544000000425554541A
:100460004F4E2032203A205055534845440000005A
:10047000425554544F4E20312C2032203A202050E7
:100480005553484544000000425554544F4E2033C4
:10049000203A2050555348454400000042555454DA
:1004A0004F4E20312C2033203A205055534845449C
:1004B00000000000425554544F4E20322C2033206F
:1004C0003A205055534845440000000042555454CA
:1004D0004F4E20312C322C33203A20505553484572
:1004E00044000000425554544F4E2034203A2050CE
:1004F0005553484544000000425554544F4E203156
:100500002C34203A20505553484544004255545409
:100510004F4E20322C34203A205055534845440049
:10052000425554544F4E20312C322C34203A205016
:100530005553484544000000425554544F4E203313
:100540002C34203A205055534845440042555454C9
:100550004F4E20322C332C34203A205055534845EE
:1005600044000000425554544F4E20312C322C335D
:100570002C34203A20505553484544002DE9FF5F64
:100580000025A846CDF80C804FF480790124002680
:100590005E4F484601F08EFB38B1D7F80403204087
:1005A00018B1484601F07CFB2543640009F10409B9
:1005B0001FFA89F9761C082EEBD34FF4BE7420463F
:1005C00001F078FB48B1204601F06AFB45F0004598
:1005D00003AA0121002001F051FBDFF8349115F04E
:1005E000FF0F15D0012600242E420DD007EB840109
:1005F000D1F81005C0F30420D1F81015C1F3014162
:1006000059F8242002B190477600641C082CEBD3E3
:10061000002D79DACDF808800020411E0DF1040884
:1006200048F82010401C0028FAD00024002509EBCF
:10063000050010F8446F26F0C00B90F90000401C34
:1006400036D001A9584601F02FF988B3B6095846AB
:1006500000F090FC59F820700FB9032E28D1032E1A
:1006600003D102A9584601F027F94FF0A04000EB52
:100670008B00D0F80007C0F3014A03A9584601F0E7
:1006800013F910B1BAF1020F03D088B9BAF1030F10
:100690000ED1032E08D1BAF1020F1ED00221584606
:1006A00001F0D4FA641CE4B217B131465846B84799
:1006B0006D1C002DBBD02CB301256A460121002002
:1006C00001F0DCFA002003AA694652F8206051F8D4
:1006D0002030B34203D0002504E00321DFE7401CB3
:1006E0000028F2D00DB100240CE0002002AB51F83C
:1006F000205042F8205053F8205048F82050401C19
:100700000028F4D0002C90D1BDE8FF9F006000408D
:100710005C0100207CB50020019001200346009080
:1007200001AA2021194801F0F3F81949194A891A38
:10073000C908032202EB014498B1204616A101F03A
:10074000BFFC01F093FB0028FBD1174D686898B1FE
:100750000E4820216A1C0123001D02F0BBF828B1BD
:100760000AE0204611A101F0ABFCEEE720466A78D2
:1007700017A16B6801F0AFFC6868401C686001F06D
:1007800075FB0028FBD168787CBD0000B438000000
:1007900004400000DC3F00005457492069732042A8
:1007A000757379210000000000000020526561642B
:1007B0007920746F20726561642066726F6D2049C4
:1007C0006E707574207265676973746572210000BC
:1007D00052656164696E6720696E70757420726518
:1007E000676973746572307825782C2049443A2003
:1007F00025692000FEB500251AA000680290002699
:10080000022302AA20211848009601F081F8174916
:10081000174A0323891AC90803EB014448B9012583
:100820002046202213A101F04FFC20461BA101F01D
:1008300047FC25A000680190022301AA20210A4854
:10084000009601F065F818B9204620A101F038FCA7
:100850001DB9204629A101F033FC01F007FB002857
:10086000FBD1FEBD030F0000B438000004400000BF
:10087000DC3F000054574920646576696365206455
:100880006574656374656420617420616464726575
:10089000737320307825782E00000000434F4E46B9
:1008A000494755524154494F4E20524547495354A8
:1008B000455220484153204245454E204D4F444922
:1008C000464945440000000045F00000494E5445AB
:1008D0005252555054204D41534B20524547495395
:1008E00054455220484153204245454E20434F4EE7
:1008F0004649475545524544000000004E6F20646C
:1009000065766963652077617320666F756E642E06
:10091000000000000149024802F0F0BBA4000020E2
:100920000030004002494FF0402002F0E7BB0000D9
:10093000D800002001490120087070470000002005
:1009400002490148086070470090D003A0000020D1
:1009500070B500F03FFB4FF0805528B1B5F8240387
:10096000C0F304217548016000F070FB10B17549B7
:100970007348486700F08EFB28B1D5F844027249ED
:10098000C0F34230086000F0A3FB20B16F4801685B
:1009900021F08071016000F0B1FB002428B16C48A7
:1009A000046044606848001F046000F0C5FB18B193
:1009B000654903206431086000F0D4FB012658B17A
:1009C0006449052008606348783006606148083053
:1009D0000460091D3F20086000F0DAFBF0B35E48B8
:1009E00000685E4908605C48001D0068091D0860D9
:1009F000594808300068091D086057480C300068E5
:100A0000091D0860544810300068091D08605248EC
:100A100014300068091D08604F48183000684F49BD
:100A2000203108604C481C300068091D08604A48A5
:100A300020300068091D0860474824300068091DFF
:100A40000860454828300068091D086042482C307D
:100A50000068091D08604048303000E017E0006879
:100A60003E49403108603C4834300068091D086048
:100A7000394838300068091D086037483C30006844
:100A8000091D0860344840300068091D086000F006
:100A900083FA28B1D5F85802314900F04F000860B8
:100AA00000F0B6FA30B12F480168C90702D06FF0E4
:100AB0000101016000F0E0FA20B12B48016841F427
:100AC0008061016021487438016841F4700101605F
:100AD000BFF34F8FBFF36F8F4FF01022D2F8000299
:100AE000002803DBD2F80402002822DA1F4B1E6024
:100AF0001F4801680029FCD01525C2F80052016882
:100B00000029FCD0C2F8045201680029FCD01C6006
:100B100001680029FCD0BFF34F8F0C48F038016802
:100B2000144A01F4E06111430160BFF34F8F00BF2D
:100B3000FDE7BDE87040FFF703BF0000403501400E
:100B40000DF0ADBA00C007403C050040FCED00E0F0
:100B50000C010040105600400404001020C5004065
:100B6000E40E0040000400403C17004004E5014052
:100B700000E401400400FA051CB513A109680191C5
:100B80008DF8050001200090022301AA20210F48C2
:100B900000F0BEFE0E490F4A891AC908032202EB73
:100BA000014240B110460CA101F08AFA01F05EF951
:100BB0000028FBD11CBD10460BA101F081FA01F009
:100BC00055F90028FBD11CBD01000000B43800001D
:100BD00004400000DC3F0000545749206973204264
:100BE00075737921000000005475726E696E67207C
:100BF0006F6E204C656420000148006800470000CB
:100C00002400002002E008C8121F08C1002AFAD1FF
:100C100070477047002001E001C1121F002AFBD17C
:100C20007047000072B601F0EDFA01F01FF90028DC
:100C3000FBD111481149401AC408012000EB0440BF
:100C40000FA101F03DFA11480068C00700D000BEB6
:100C5000022000EB04400EA101F032FABFF34F8FE7
:100C60000A48E43801680E4A01F4E061114301606A
:100C7000BFF34F8F00BFFDE704400000DC3F0000E2
:100C8000466174616C206572726F7200F0ED00E075
:100C900053797374656D207265736574000000008C
:100CA0000400FA050EB500210091019102906A46F8
:100CB00044F20100FFF7B6FF0EBD00F003B800F0EC
:100CC00009B8000072B602480168491C016070470B
:100CD0002C00002003490868401E0860002800D14D
:100CE00062B670472C0000202DE9F04105460C4605
:100CF0004FF0A04720684FF00106411C06D006FACD
:100D000000F1C7F80815206800F08CFF6068411CEE
:100D100002D0002100F074FF2868A169C0F82415F2
:100D2000607D227D29681043C1F86C05D4E900126A
:100D30002868C0F81425C0F80C15207D012815D1AD
:100D4000A068411C02D0002100F05AFFE068411C5D
:100D500005D08640C7F80865E06800F063FFD4E975
:100D600002212868C0F80815C0F81025BDE8F081F8
:100D70002DE9F04105460C464FF0A04720684FF0A2
:100D80000106411C06D006FA00F1C7F808152068D4
:100D900000F052FF6068411C02D0002100F039FFD2
:100DA0002868A169C0F82415607D227D2968104358
:100DB000C1F86C05D4E900122868C0F80C15C0F819
:100DC0001425207D012815D1A068411C02D00021E6
:100DD00000F01FFFE068411C05D08640C7F8086599
:100DE000E06800F029FFD4E902212868C0F808155E
:100DF000C0F81025BDE8F08110B500200A49D1F8EF
:100E000010442146012206E0C9680B79834201D1D2
:100E1000002202E009680029F6D1002A03D1401C13
:100E20000A28EEDB501E10BD400300202DE9F843D8
:100E3000064688469146B51C01270020FFF73DFF76
:100E40001E4C2068C8F80000D4E90001401AA168CF
:100E5000081A401C04F21C480FE00121404600F033
:100E6000ADFC00F0EDFA0146404600F0A7FCD4E9E5
:100E70000001401AA168081A401C8542EDD8BFB194
:100E800000200090B9F1000F04D0052066F389100E
:100E9000009003E0062066F39F500090A168206850
:100EA000084004EB80000099C1602068284420605D
:100EB0000020FFF704FF3846BDE8F8834003002018
:100EC00070B504460D460A2D03D10D212046FFF7CB
:100ED000F7FFA068411CA16021680D54D4E90110FE
:100EE000884204D32046BDE8704000F05ABD70BD72
:100EF000034803C8814201D1012070470020704798
:100F00004003002005494FF0FF3241F82020082817
:100F100002D3084480F83C20704700005C010020A8
:100F2000F0B507464FF0FF30002A02D04FF0000323
:100F300001E04FF0080302D04FF0080501E04FF048
:100F400009050B4C04E054F82360761C03D05B1CAD
:100F5000AB42F8D3F0BDE51958B285F8240044F847
:100F60002310002AF6D1E11881F83C70F0BD000092
:100F70005C0100200249084490F9240070470000F9
:100F80005C01002010B50021024800F022FC80F333
:100F9000100010BD5C0700200D48007806280FD116
:100FA0000B48001D007800070AD109480830007876
:100FB000C0F30310032805D0042805D0052805D068
:100FC00000207047012070470120704701207047C2
:100FD000E00F00F00D48007806280FD10B48001DE7
:100FE000007800070AD1094808300078C0F30310E0
:100FF000032805D0042805D0052805D00020704717
:10100000012070470120704701207047E00F00F079
:101010000D48007806280FD10B48001D0078000706
:101020000AD1094808300078C0F30310032805D01E
:10103000042805D0052805D00020704701207047FE
:101040000120704701207047E00F00F00948007848
:1010500006280BD10748001D0078000706D1054877
:1010600008300078C0F30310032801D00020704737
:1010700001207047E00F00F04FF08050D0F83011A1
:10108000062903D1D0F83401062801D0002070478A
:10109000012070470D48007806280FD10B48001D2D
:1010A000007800070AD1094808300078C0F303101F
:1010B000032805D0042805D0052805D00020704756
:1010C000012070470120704701207047E00F00F0B9
:1010D0000948007806280BD10748001D0078000752
:1010E00006D1054808300078C0F30310032801D06A
:1010F0000020704701207047E00F00F00D48007895
:1011000006280FD10B48001D007800070AD10948B6
:1011100008300078C0F30310032805D0042805D058
:10112000052805D000207047012070470120704736
:1011300001207047E00F00F00948007806280BD125
:101140000748001D0078000706D1054808300078E0
:10115000C0F30310032801D000207047012070471E
:10116000E00F00F00948007806280BD10748001D61
:101170000078000706D1054808300078C0F3031056
:10118000032801D00020704701207047E00F00F0D5
:101190000948007806280BD10748001D0078000791
:1011A00006D1054808300078C0F30310052801D0A7
:1011B0000020704701207047E00F00F038B50E485E
:1011C0000068009003248DF8014001F067FA40B1F7
:1011D0000A480B49401AC00804EB004009A100F07E
:1011E0006FFF0E4A6946112001F0CEF9012111204E
:1011F00001F072F938BD0000B03800000440000072
:10120000DC3F00004750494F5445204E4F54204981
:101210004E495449414C495A4544000035090000A3
:101220002DE9FC5F8346DDE90C470E469146984662
:10123000C6F1000A002E01DA504600E030460125D2
:1012400002E090FBF9F06D1C4845FADAA84500D998
:10125000454624B1002E01DB780700D5641EB8078F
:1012600002D5B8F1000F0BD0F80709D12CB907E06F
:10127000641E20215846FFF723FE0CB1A542F7D388
:10128000002E05DA56462D215846FFF719FE05E0D7
:10129000780703D52B215846FFF712FE07F003000D
:1012A00002280CD1B8F1000F09D12CB907E0641E57
:1012B00030215846FFF704FE0CB1A542F7D3CDE923
:1012C000004743464A463146584602F099FABDE87F
:1012D000FC9F0000084A0168C1F80823006840F339
:1012E000073000F01F02012191404009800000F109
:1012F000E020C0F88011704784020200084A0168AB
:10130000C1F80823006840F3073000F01F020121F4
:1013100091404009800000F1E020C0F88011704742
:101320001003020070B504460D464FF48E7120681C
:1013300001F08EF84FF4A271206801F089F812498B
:101340002068C0F80413206840F307306907090ECD
:10135000002806DA00F00F0000F1E02080F8141DEC
:1013600003E000F1E02080F80014206840F307302B
:1013700000F01F02012191404009800000F1E020AF
:10138000C0F8001170BD00008000020070B5044676
:101390000D464FF48871206801F06BF84FF490719E
:1013A000206801F066F84FF49271206801F061F84E
:1013B0004FF4A271206801F05CF812492068C0F86F
:1013C0000413206840F307306907090E002806DA85
:1013D00000F00F0000F1E02080F8141D03E000F1A0
:1013E000E02080F80014206840F3073000F01F026E
:1013F000012191404009800000F1E020C0F8001177
:1014000070BD00001003020002460020126853075E
:1014100014D502F00300012802D002280DD106E005
:10142000C2F383100B68801C1844086005E0022397
:10143000086803EB925210440860012070470000D6
:101440002DE9FF410025264800F0B5F92448001F8A
:10145000074600F0B0F9234E70680390B46820404E
:1014600006EB80000C3003A9FFF7CEFF28B10398EC
:10147000204006EB80000C30F5E700206B46039916
:101480004A1C214006EB81010392C96843F82010F1
:10149000401C0228F3D3009800F0030001280CD070
:1014A000022812D1BDF806500098032101EB90509C
:1014B000039901EB9000039007E0BDF806500098F7
:1014C0000399C0F3831008440390384600F070F984
:1014D00008B10398706004B02846BDE8F0810000B0
:1014E00058070020400300200021084600F052FE6B
:1014F00008B1FFF7D7FB00F0ABFC01F0A1FD3448C9
:101500003449401AC108032000EB014432A12046AF
:1015100000F0D6FD00F0AAFC0028FBD1FFF76AF925
:10152000FFF74CFE324D28780028FCD0FFF7F2F888
:101530000646204632462FA100F0C6FD00F096FC7C
:101540000028FBD1F043C6B22046324630A100F05D
:10155000BBFD00F08BFC0028FBD106F00F062046F7
:10156000324633A100F0B0FD00F080FC0028FBD132
:10157000112000F08DFF3046FEF712FF01211120EF
:1015800000F0AAFF3007060E2046324633A100F0D5
:101590009BFD00F06BFC0028FBD1F043C6B2204657
:1015A000324638A100F090FD00F060FC0028FBD12D
:1015B000204632463FA100F087FD00F057FC00288E
:1015C000FBD13046FFF7D8FA00202870ABE70000C7
:1015D00004400000DC3F0000545749207363616EF3
:1015E0006E657220737461727465642E0000000071
:1015F000000000202052617720446174615F7265B1
:10160000636965766564203A2030782578000000AB
:10161000446174615F726563696576656420696EB3
:10162000766572746564203A203078257800000071
:10163000446174615F726563696576656420262024
:10164000307830462873656E7420746F204275744C
:10165000746F6E29203A20307825780044617461D7
:101660005F72656369657665642073686966746531
:101670006420746F206C696674203A203078257875
:1016800000000000496E76657274656420446174E0
:10169000615F726563696576656420736869667405
:1016A000656420746F206C696674203A2030782558
:1016B00078000000496E7665727465642044617438
:1016C000615F7265636965766564207368696674D5
:1016D000656420746F206C6966742853454E5420ED
:1016E000544F204C454453293A2030782578000047
:1016F0002DE9F0478946DDF820A00546C6884079E7
:1017000006FB00F73F1F181D0146B0FBF6F0B1FBCA
:10171000F6F406FB1411146804EB030CBC4500D965
:10172000FC1A146001E02D68401E0028FBD18046A1
:10173000771AA7421BD9274619E009EB0803681856
:10174000001DBAF1000F05D001463A461846FEF7D3
:10175000E9FD03E03A461946FEF7E4FD00212D6855
:10176000E41BB844A64201D9274600E03746002CC6
:10177000E3D1BDE8F087000030B50446002912D05F
:1017800000F026FD0021094B09E003EB81022568EA
:101790001288AA4202D12160002030BD491C81423A
:1017A000F3D3052030BD002030BD00000000000054
:1017B000002100F009B8012100F010B808B56A4610
:1017C000FEF75BFD009808BD08B56A46FEF73BFDD5
:1017D00008BD08B56A46FEF71DFD08BD08B56A4696
:1017E000FEF724FD009808BD08B56A46FEF752FDD5
:1017F000009808BD70B5044600250020FFF75DFA8B
:1018000021686268086890420FD9401E086001781C
:10181000204600F02BF805462068217A0278891AC4
:10182000C9B202798A4200D201710020FFF747FA5B
:10183000284670BDC268008A891AB1FBF0F0C0B2B8
:10184000704770B505460C460020FFF736FA214672
:101850002846FFF7EFFF296802460868431C0B6023
:101860000270BDE870400020FFF729BAC268008A04
:1018700001FB0020704710B5002806D0017A4268AD
:10188000891AC9B203681A6006E00E2010BD036809
:101890001A68541C1C601170491EC9B2F7D2006846
:1018A00000210171002010BDC20800F007030120D3
:1018B000895C98400840704710B5C20800F00700E6
:1018C0008B5C0124844023438B5410BD2DE9F041EF
:1018D00005460F4616462C780B4840F82460083021
:1018E00040F82430787B002802D0384601F050FBC5
:1018F0000EB1064A00E0002223463946281DBDE805
:10190000F04100F077BF000008000020B93000006F
:1019100038B5049C001D009400F0F4FF38BD0000B1
:10192000F0B589B0054616462C78144840F8246076
:10193000124A0869121D42F82400A2F10807487FE4
:101940003855202201A8FEF7EDFC05942878385C74
:1019500048B10EB10A4A00E0002201A9281D01F099
:10196000BBF809B0F0BD0EB1064A00E0002201A9A3
:1019700005F10C0000F0FEFFF3E700001C00002062
:10198000DD360000213500000FB408B503990029A9
:1019900004D004AA00926A4600F00FF801B05DF886
:1019A00014FB10B50446A268002A05D0D4E904034C
:1019B000216898470020A06010BD2DE9FC41064633
:1019C0000C461546002C75D014F8011B39B1252999
:1019D0000DD03046FFF774FA20780028F4D1307B20
:1019E000002867D03046BDE8FC41FFF7DABF00238E
:1019F000012021782B291DD02D2913D0302915D075
:101A000000200028F5D100222A2917D02178A1F141
:101A100030000A2818D2641C02EB820001EB40025D
:101A2000303AF1E743F00103641CEAE743F00203B4
:101A3000641CE6E743F00403641CE2E72868011D28
:101A4000296000680244641C002021782E290CD1F2
:101A5000641C2178A1F130070A2F06D2641C00EB28
:101A6000800001EB40003038F3E76C290DD0682985
:101A70000BD069291FD00BDC25295FD0582932D023
:101A800063290ED064295DD115E0641C2178ECE750
:101A900070293CD0732932D0752918D0782951D1BA
:101AA00021E02868011D29600078C1B23046FFF7A7
:101AB00007FA47E048E029680F1D2F600968CDE963
:101AC000002303460A223046FFF7AAFB3AE02968C2
:101AD0000F1D2F600968CDE9002303460A22304616
:101AE00001F08EFE2EE029680F1D2F600968CDE9F8
:101AF000002303461022304601F082FE22E02868CF
:101B0000011D29600168304601F00CFA1AE02868CE
:101B1000011D2960076830213046FFF7D1F978218F
:101B20003046FFF7CDF908210020CDE900100B4623
:101B300010223946304601F063FE03E0252130468D
:101B4000FFF7BEF9641C47E7BDE8FC8170B5DDE92D
:101B500004654FF0A04441EA420141EA830141EAB1
:101B6000062104EB800041EA0541C0F8001770BD72
:101B700070B5DDE904654FF0A04441EA420141EA55
:101B8000830141EA062104EB800041EA0541C0F8E7
:101B9000001770BD70B5DDE904654FF0A04441EA5F
:101BA000420141EA830141EA062104EB800041EA57
:101BB0000541C0F8001770BD70B5DDE904654FF050
:101BC000A04441EA420141EA830141EA062104EBD3
:101BD000800041EA0541C0F8001770BD1CB5002126
:101BE00000910B4601220191FFF7C2FF1CBD1CB5FD
:101BF000002100910B4601220191FFF7CBFF1CBD94
:101C00001CB500220B46009211460192FFF7B0FF6F
:101C10001CBD1CB500220B46009211460192FFF735
:101C2000B9FF1CBD1CB5002100910B46012201919A
:101C30001146FFF79DFF1CBD1CB5002100910B460E
:101C4000012201911146FFF7A5FF1CBD4FF0A042F4
:101C500002EB800000F5E060026822F4403202608E
:101C6000026842EA0141016070474FF0A042012141
:101C7000814002F5A16211607047000018B5074B62
:101C80001B6800936B46441805E053F82010D1F808
:101C9000101502C2401C8442F7D818BD0C39000050
:101CA00008B503490844002101600068009008BDA0
:101CB00000600040034908440068012800D000206B
:101CC000704700000060004010B50446FFF794F82C
:101CD000411C0DD0E1680871094AD2F8101441B1D5
:101CE000C968E36809681960D2F81014C9680C6003
:101CF00010BDC2F81044E2680021116010BD000060
:101D000040030020F0B593B00F46189E14461D46C0
:101D1000384600F034FB18210DA8FEF71CFB0D948B
:101D20000E9512960023082207A9384600F03CFBC6
:101D3000082609980A90BDF82000ADF82C00BDF8DF
:101D40002200ADF82E0000208DF83100079800F039
:101D50000300012802D0022819D034E00798850A30
:101D60000798C0F3C2008DF830000798C0F38314C1
:101D7000A200334601A9384600F016FB0DA80090DA
:101D80000AAB224601A9284600F052FA1BE0079848
:101D9000840D0798C0F3C2008DF83000082C01D2E2
:101DA000254600E0082533462A4605A9384600F0B6
:101DB000FBFA2E44641B0DAB0AAA294605A800F0C5
:101DC00093F9002CEAD1384600F0DFFA13B0F0BDE9
:101DD0007047012001F0C2BB10B5094809490278DB
:101DE000895C002903D0001D00F004FF02E00C30E4
:101DF00000F04AFEBDE81040002001F0AFBB00003B
:101E0000340000201800002008B5034A0092402347
:101E1000024AFFF777FF08BD592E0000A8010020F5
:101E20000A4A02EBC000012907D0022907D0032982
:101E300007D0042907D000207047022070470420F3
:101E4000704700797047407970470000DC3F000020
:101E500010B5FFF7BEFF04210348FFF735FF024925
:101E60000120C968487110BDCC3F00002DE9FF4733
:101E7000FFF73EF818B1002004B0BDE8F087874FA7
:101E80000020C7F81804BFF34F8F78680390BC6830
:101E9000204007EB80000C300026B04603A9FFF776
:101EA000B3FA10B1D7F81804A8B100206A46039914
:101EB0004B1C214007EB81010393C96842F82010B5
:101EC000401C0228F3D3009800F0030002280FD032
:101ED00001286CD0A0E039680398814203D83868A3
:101EE00078600020C8E7204007EB80000C30D5E781
:101EF00000984FEA905900985021B1EB905F01D9BA
:101F00004D4600E05025009865F39F50009005F184
:101F10000801634800F0E7F9064630007CD000F085
:101F20002EFA434608226946304600F045FA08F189
:101F3000080803992140601A401C8000854227D977
:101F4000564C0C34002804D007EB810101F10C0140
:101F500000E0214601D0024600E02A4602F0FF0AD6
:101F600001D14FF0000402D0A5EB000001E04FF0DA
:101F70000000C5B243465246304600F01DFA08EB59
:101F80000A036CB12A462146304600F015FA07E0F4
:101F900007EB81010C3143462A46304600F00CFA2B
:101FA000039809F1030900EB9900039034E00098CD
:101FB000C0F38310062800D30620009960F389112E
:101FC00000910098C0F38310801C8100344800F019
:101FD0008AF9064630001FD000F0D1F943460822A6
:101FE0006946304600F0E8F908F1080800250EE0DF
:101FF00003984346411C2040039107EB80010C31BC
:102000000422304600F0D8F908F104086D1C00984D
:10201000C0F38310A842EBD836B3D7F81044D7F8F2
:10202000180480B1304600F0B0F932E00020E168D9
:10203000497901B1012020B1204631460268126879
:102040009047E0680468002CF0D1304600F09DF91C
:102050000020FEF732FED7F8180408B9039878601C
:102060000020FEF72CFE14E0D7F8104405E02046CF
:10207000016889688847E0680468002CF7D109483E
:102080000949401AC008022101EB004007A100F0F5
:1020900017F8FEF72DFF80F00100EDE64003002069
:1020A0000C40000004400000DC3F00004261636B14
:1020B000656E647320666C7573686564000000006B
:1020C00000231A4600F0E8BE08B5009201236A46D4
:1020D00000F0E2FE08BD1CB50092019302236A469F
:1020E00000F0DAFE1CBD00002DE9F04707460E4661
:1020F00092469846082E3ED898F80C90002088F812
:102100000C004146504600F01DFE0024B44205D2AA
:102110003A5D1AA14046FFF737FC03E019A140469B
:10212000FFF732FC641C082CF0D317A14046FFF7E0
:102130002BFC0024B44210D23D5D7E2D06D8FEF764
:10214000EDF80068405D10F03E0F00D12E252A46C4
:102150000EA14046FFF718FC03E00DA14046FFF733
:1021600013FC641C082CE5D301224146504600F0C4
:10217000C7FD88F80C90BDE8F087000020253032BC
:1021800078000000202020007C0000002563000073
:102190002000000010B50B48FF2181600021016084
:1021A0004160C0F81814C0F8141480F820140648D0
:1021B00000F0E9F8002803D1044800F005F90020F8
:1021C00010BD0000400300200C400000B43A0000A5
:1021D00002480349401AC008704700000C40000044
:1021E000DC3F000013B56846FFF7C6FA08B10020CF
:1021F0001CBD0348009900EBC10000681CBD000035
:10220000DC3F000070B50948D0F81044012580F883
:10221000205407E0E0684571204601684968884716
:10222000E0680468002CF5D170BD00004003002078
:102230002DE9FF4707460C9D0C46914698462E7B9C
:10224000002028732946404600F07CFDB9F1070FB5
:1022500041D2DFE809F004090F151D273300394684
:102260002846FFF791FB36E0394628462268FFF7FB
:102270008BFB30E00CCC39462846FFF785FB2AE083
:10228000A06800900CCC39462846FFF77DFB22E081
:10229000D4E90201CDE900010CCC39462846FFF70C
:1022A00073FB18E0D4E90321A068CDE90121009077
:1022B0000CCC39462846FFF767FB0CE0D4E9022333
:1022C000D4E90410CDE90210CDE900230CCC394645
:1022D0002846FFF759FB00222946404600F010FD32
:1022E0002E73BDE8FF872DE9F04107463D8A2D1F7B
:1022F0004819C01CB0FBF5F000F0FF083846FFF7A6
:1023000079FA044620000AD0002020710120607173
:10231000E5802646A8F10108376000250DE0002081
:10232000BDE8F0813846FFF765FA50B16179491C84
:1023300061713060076006466D1C4545F2D320464A
:10234000EEE7204600F002F80020E9E72DE9F04131
:1023500001464D790A466B1E002001E01268401CC0
:102360009842FBD31768002405E00E683846FFF753
:1023700068FA3146641CAC42F7D3BDE8F081012114
:10238000001DFFF71BBAFFF776BA38B504460121E6
:10239000201DFFF729FA00909DF80000002802D1C7
:1023A0002046FFF7D3FF38BD1CB5019201220092F1
:1023B00001AAFFF79DF91CBD1CB5019200220092F5
:1023C00001AAFFF795F91CBD82680021916082681F
:1023D0001161826851618268D16082685160806851
:1023E0000160704710B50C4A02F58C730EE0991A23
:1023F000C91001EBD171491002EBC1010C68844294
:1024000001D90B4602E005D201F108029A42EED34F
:10241000002010BD486810BD7039000000B5FFF7FE
:10242000E1FF002800D1014800BD00005C39000038
:102430004058002800D00120704708B500224250C3
:102440004058009008BD4058002800D00120704737
:1024500008B5002242504058009008BDD0F804034F
:10246000084000D0012070474058002800D00120CB
:10247000704708B5002242504058009008BD000047
:10248000002802D00149800108477047E138000068
:1024900010B50446204600F0CBFB28B12046BDE82D
:1024A00010400021FFF7D2BB204600F0CDFB0028F2
:1024B0000FD02046FEF75EFD064A02EB8001D1F800
:1024C000103523F00103C1F8103501218140C2F815
:1024D000081310BD006000402DE9F0410546884614
:1024E000284600F0A5FB264FF8B12846FEF742FD2E
:1024F000384490F83C008009032807D0012812D006
:1025000003212846BDE8F041FFF7A0BB4FF0A040F3
:1025100000F5A2600068E84000F0010008B1032166
:10252000EFE70221EDE70221EBE7284600F08CFB04
:10253000002823D02846FEF71DFD04464FF4807086
:1025400000EB840081B220460E4E06EB8000D0F8EE
:10255000102542F00102C0F810250846FFF7A0FB45
:10256000B8F1000F0AD02846FEF704FD57F8200006
:10257000002803D00120A040C6F80403BDE8F08184
:102580005C010020006000402DE9FC410C4605463E
:1025900011460027DFF8CC8008EB050090F92400F5
:1025A000C017401C002801D0082749E0A078C0F3DC
:1025B00040022846FEF7B4FC0646701C3FD0A078C7
:1025C000410719D4C0070AD04FF0A04000EB8500A6
:1025D000D0F8001721F00201C0F8001707E0637877
:1025E0002846002100910A460191FFF7E5FA2846A6
:1025F0001C494531FFF760F9A078800716D521788E
:10260000194800EB860000F5A2600268174B1A40DB
:1026100002604FF4F8524FF4403302EA052203EA15
:1026200001410A4301680A43026009E008EB060021
:10263000227810F83C1F41EA8211017000E0042763
:102640003846FFF7EBFE034609480A490A4A401A92
:10265000C008032101EB004008A1FFF73CFD38460C
:10266000BDE8FC815C01002000600040FFE0FCFF51
:10267000FC3F0000DC3F00003639000046756E6309
:1026800074696F6E3A2025732C206572726F722008
:10269000636F64653A2025732E0000002DE9F04138
:1026A000244E2548254996F84920401AC508002A95
:1026B0000ED008242046FFF7B1FE0346022000EBAF
:1026C00005401F4A1FA1FFF706FD2046BDE8F08127
:1026D0000020411E321882F82410401CC0B220286D
:1026E000F8D300242046FEF70DFC641CE4B2092C4C
:1026F000F8D3002446F8454F1A49C0200870012736
:102700004FF0E0214020C1F800014FF4BE70FFF708
:10271000C7FAF8071449086037712046FFF77EFEB4
:102720000346032000EB0540054A06A1FFF7D3FC52
:102730002046CBE75C010020FC3F0000DC3F0000AE
:102740001039000046756E6374696F6E3A20257308
:102750002C206572726F7220636F64653A20257356
:102760002E00000006E400E0046300400121B1EB0C
:10277000507F01D101207047002070470121B1EB4B
:10278000507F01D1012070470020704770B50E4680
:1027900000F028FB044684B100250020FEF78DFAE6
:1027A000207908B1012502E0266001202071002077
:1027B000FEF785FA0DB1112070BD002070BD10B577
:1027C00000F010FB002802D000210160017110BD53
:1027D000017901EB810202EBC101054A02EB8101A3
:1027E00000680622C0F80025022081F82D007047FD
:1027F000A40000202DE9FC4106460D4617469846E8
:102800003079324A00EB800101EBC00102EB810418
:1028100094F82D10002902D00820BDE8FC812C4935
:1028200051F820103068FFF7B1FF08B11120F4E72C
:102830002760C4F804800027A76084F8307084F80B
:102840002F70687B84F832004FF00608CDE90087CE
:102850000022032311462868FFF778F9CDE90087A5
:102860000022032311466868FFF770F93068D5E944
:10287000001200F5A16001604260A968C161206892
:102880000122F8B1306840F30730297B002807DACD
:1028900000F00F0000F1E020490180F8141D04E071
:1028A00000F1E020490180F80014306840F307305F
:1028B00000F01F0102FA01F14009800000F1E02060
:1028C000C0F8001184F82D200020A6E7A400002005
:1028D000E8380000F0B585B007460C4616461D46A0
:1028E000142207496846FDF71DFD8DF8014001954A
:1028F000039600226946384600F020F805B0F0BD86
:10290000F03800002DE9F04186B080460C9E0C4660
:1029100017461D46142101A8FDF71DFD8DF8054041
:10292000029504970EB1202200E0002201A9404642
:1029300000F004F806B0BDE8F081000030B40D46A8
:102940001346017901EB810202EBC101044A02EB5B
:10295000810401682A46204630BC00F07DBC00009E
:10296000A40000200149024800F020BE0C01002014
:10297000002000402DE9F04105460F4616462B7910
:10298000174903EB430000EBC30001EB800494F80C
:102990002A00002802D00820BDE8F081114850F834
:1029A00023102868FFF7F2FE08B11120F4E739463A
:1029B0002846FEF799F96660386920601EB1397FB4
:1029C0002846FEF7AFFC28680421C0F80015002057
:1029D00014346060A060607520600121A175DBE7A0
:1029E0000C010020043900002DE9F04704460B4695
:1029F000207900EB400101EBC0001A4901EB800592
:102A0000204600F031F810B11120BDE8F0876A616E
:102A1000AB6000272F6285F8287000264FF48E796E
:102A200049462068FFF714FD20684FF00108C0F800
:102A300008802946206800F04AFD686870B9294678
:102A4000206800F029FD58B149462068FFF7FBFCDB
:102A50000028F9D02068C0F80C806F613046D4E7B8
:102A60000F26FAE70C010020007900EB400101EB92
:102A7000C000044901EB80004069002800D001201B
:102A8000704700000C01002070B50546297901EB64
:102A9000410000EBC1000B4901EB800428680026CF
:102AA000C0F800656068002802D02846FEF712FCD6
:102AB000284600F0D5F82868FFF781FE84F82A60E0
:102AC000666070BD0C0100200149024800F01EBE86
:102AD00038010020002000402DE9F04105460F4656
:102AE00016462B79164903EBC30001EB800494F8DA
:102AF0002000002802D00820BDE8F081114850F8DD
:102B000023102868FFF742FE08B11120F4E7394688
:102B10002846FEF72DF96660386920601EB1397FBE
:102B20002846FEF733FC28680821C0F8001500206D
:102B3000A061E0616061012184F82010DCE7000001
:102B400038010020083900002DE9F04704460F46FF
:102B5000164620791F4900EBC00001EB800538467E
:102B6000FFF70CFE30B1204600F036F820B11120FE
:102B7000BDE8F0871020FBE76E61AF6000264FF4E0
:102B8000907739462068FFF774FC4FF4AC784146E3
:102B90002068FFF76EFC2068AA686969C0F84425C0
:102BA000C0F84815206801218160686878B9394605
:102BB0002068FFF759FC814641462068FFF754FC26
:102BC00059EA0001F3D000B10F26002068613046B9
:102BD000CEE70000380100200079054900EBC00075
:102BE00001EB80004069002800D001207047000000
:102BF0003801002070B505460C49287900EBC0006B
:102C000001EB800428680026C0F800656068002891
:102C100002D02846FEF772FB284600F049F82868E3
:102C2000FFF7CDFD84F82060666070BD380100209C
:102C30000449084490F92400082801DB012070476A
:102C4000002070475C0100200449084490F92400EA
:102C5000082801D201207047002070475C01002045
:102C600070B50346196801F5A1614868CC680D6824
:102C70008E684FF0FF32CA604A601968C1F80825B3
:102C8000C1F81025411C01D0FEF7A8FF601C02D03E
:102C90002046FEF7A3FF701C02D03046FEF79EFFD1
:102CA000681C04D02846BDE87040FEF797BF70BD91
:102CB00070B50346196801F5A1614868CC680D68D4
:102CC0008E684FF0FF324A60CA601968C1F8082563
:102CD000C1F81025411C01D0FEF789FF601C02D00D
:102CE0002046FEF784FF701C02D03046FEF77FFFBF
:102CF000681C04D02846BDE87040FEF778BF70BD60
:102D000010B50C46037A052B0CD0407A28B10A483E
:102D10000AA102682046FEF737FE09A12046FEF709
:102D200033FE04E01AB106A12046FEF72DFE204630
:102D3000BDE81040FEF735BE7C0000202573000082
:102D40000D0A000038B504460D46E388002B06D076
:102D500015A0009016A218A12846FEF715FE217AAC
:102D6000052920D0607A48B1A088FFF759F81849A2
:102D700051F8202017A12846FEF706FE28462168B4
:102D800000F005F9A0880021FFF72CFA034610494E
:102D9000207A143951F8202001B02846BDE830408F
:102DA0000DA1FEF7F1BD38BD1B5B306D00000000CA
:102DB0001B5B313B33316D0025734C6F67732064AF
:102DC000726F70706564202825642925730D0A00D0
:102DD0007C000020257300003C25733E2025733ABB
:102DE000200000000349884201D1034870470020B9
:102DF00070470000002000402400002070B5054608
:102E00000C464FF48471A06900280BD02846FFF7C8
:102E10001FFBD5F81805626AE1688854606A401C97
:102E2000606270BD2846FFF713FBD5F8180570BD2A
:102E30001FB501238DF800300291019206C8684643
:102E400090471FBD1FB501238DF8003002910192FC
:102E500006C8684690471FBD70B5D2B20C4C002022
:102E60002070201D0B4B05785B5D002B03D0001DEF
:102E7000FFF76AFE02E00C30FFF7B6FD08B1FDF780
:102E800011FF6078002802D021780029FAD070BDA7
:102E900030000020180000202DE9F84F82468B46B4
:102EA00091461F46DFF87880D8F80850012269461D
:102EB0003846FDF7BBFF48B3009EB01C002408E075
:102EC0000146401C294008EB810159F82420CA60C2
:102ED000641CBC42F4D34FEA1A44FEF753F844EAA8
:102EE0000041701C284008EB8000C1602E4008EBB8
:102EF0008600C1686AF3C50167F389116BF39F21EE
:102F000021F00301491C21F00401C16098F820045C
:102F1000002803D0FEF7AAFF0028FBD1BDE8F88FF8
:102F2000400300202DE9F04107460D4614460026D7
:102F3000D80705D113E06D1C761C3846FDF7C0FF9D
:102F400029780029F7D104E0641E20213846FDF7D6
:102F5000B7FFB44201D9002CF6D1BDE8F0814DB1E4
:102F60002846FDF703FA064604E0641E2021384691
:102F7000FDF7A6FFB44206D9002CF6D103E06D1C84
:102F80003846FDF79DFF29780029F8D1E5E770471D
:102F90002DE9F041044640F20C602168890001F1FE
:102FA000A041C1F800076168890001F1A041C1F8A2
:102FB00000072068FEF759FE6068FEF756FE21689C
:102FC00040F20D60890001F1A041C1F8000761687D
:102FD000890001F1A041C1F800070420FFF750FA71
:102FE00000254FF0A0474FF001082079D7F81015C1
:102FF000C14001F0010010B1002D1ED010E020787A
:1030000008FA00F6C7F80C650420FFF739FA2068C3
:10301000FEF72BFE0420FFF733FA6D1C092DE4DBCD
:10302000207908FA00F8C7F80C850420FFF728FA81
:103030006068BDE8F041FEF718BEBDE8F081000011
:103040001FB51048D0E906234169006A8DE80E00DB
:1030500003900C4800231A466946001DFEF736FC13
:1030600048B909480949401AC008032101EB00404A
:1030700007A1FFF725F80348001D001DFFF7A8FB77
:103080001FBD0000B038000004400000DC3F00001D
:1030900054574920494E495449414C495A454400E6
:1030A000014603208A0701D548F20120490701D5CE
:1030B00048F20220704700001FB502788DF800200A
:1030C00002798DF8042042798DF80520027A8DF876
:1030D0000620027B8DF80720026902924069039066
:1030E0000548054A083A50F8210052F821200146C7
:1030F000684690471FBD0000100000202DE9F04FEA
:1031000087B004460D464FF4927949462046FFF7B2
:103110008FF94FF0020801274FF4827640B14946FB
:103120002046FFF78AF931462046FFF781F9E8B3D8
:103130004FF482712046FFF77BF9DFF818910DF10B
:10314000040B05F10C0A002688B34FF48271204667
:10315000FFF773F9142251460BF10400FDF7E2F872
:1031600095F82E0058B1287B01282ED0D4F84C05B4
:103170000390287B02282BD0D4F84C0504904FF400
:10318000B0712046FFF759F94FF4AE712046FFF7B2
:1031900054F995F8300010B195F82E0080B3002056
:1031A000C4F80002AE60C4F8089339E000E012E011
:1031B000A868C4F80803C5F80880A868C4F8040320
:1031C0002762676107B0BDE8F08FD4F83C05CFE710
:1031D000D4F83C05D2E74FF4A4712046FFF72DF94F
:1031E000287B70B14FF40070C4F80002801CA86006
:1031F000C4F80893A868C4F80403A7602762E1E74D
:103200000EE0142251460BF10400FDF78BF895F8FF
:10321000300028B90020C4F80002AE60C4F808935A
:10322000D4F8C404C4F8C404810702D58DF804702E
:1032300006E0400702D58DF8048001E08DF80460B7
:1032400095F8300008B985F82F60D5E9002101A86C
:103250009047B7E702029C012DE9F84F06460C465D
:1032600015461F46002000904FF0080A4FF482795F
:10327000E868FFF77BFA58B18548C4F8080396F868
:103280002F0038B1B068C4F804031120BDE8F88FEE
:103290001020FBE7780703D4F80601D4012000E0F2
:1032A000002086F82F001422294606F10C00FDF7B5
:1032B00039F8C7F3001086F830006878C4F888053C
:1032C0004FF482712046FFF7B8F84FF49271204610
:1032D000FFF7B3F8F8074FF0000B4FF0010802D0EA
:1032E000C4F8508501E0C4F850B5B80702D5C4F859
:1032F000408501E0C4F840B52878E0B301286FD0DC
:10330000022851D0032814D007200090380704D495
:103310002878032801D044F80A803068002875D046
:10332000780702D54FF40070B060B068C4F80403A9
:10333000ABE02869FFF71AFA98B34FF48070C4F82D
:1033400000026968E868C4F84405C4F848154FF4F9
:10335000A8712046FFF771F84FF4B0712046FFF7CF
:103360006CF84FF4A4712046FFF767F8C4F820808A
:10337000C4F8088000E034E04FF4A8712046FFF75D
:1033800057F80028F6D04FF4A8712046FFF755F8FB
:10339000A9682869C4F84405C4F848153D48B060D8
:1033A000B4E7FFE7102071E76968E868C4F84405EE
:1033B000C4F848152869FFF7D9F978B1A9682869D0
:1033C000C4F83405C4F838154FF48450C4F800022A
:1033D00040F20220B060C4F8208097E7102055E743
:1033E0001EE06968E868C4F84405C4F84815B806E2
:1033F0000DD54FF48070C4F800022648B0604FF439
:10340000A47949462046FFF718F806E01AE04FF481
:103410000070C4F80002801CB060C4F8208075E71A
:103420006968E868C4F83405C4F838154FF480506A
:10343000C4F8000240F20220B0604FF0000AC4F865
:10344000208063E74FF482754FF492770DE03946A0
:103450002046FEF7EDFF40B139462046FEF7EDFF6E
:10346000C4F82080C4F81480A94649462046FEF7D7
:10347000DFFF0028EBD0D4F8C404C4F8C40486F8F5
:103480002FB010B1FFF70CFE00900098FEE6000090
:1034900002029C010002040070B506460C464FF47F
:1034A0008E750EE094F8280008B1002070BD294602
:1034B0003046FEF7C8FF0028F4D02146304600F021
:1034C00006F8206A61698842F1D3012070BD70B5A9
:1034D00005460C464FF48E712846FEF7B9FF216A67
:1034E000A068415C226A521C2262C5F81C1570BD9E
:1034F0001FB500228DF80020029181680191426180
:1035000006C8684690471FBD1FB500228DF80020F1
:10351000029181680191426106C8684690471FBDCB
:103520001FB502788DF8002042680192027A8DF86A
:103530000820C06803900548044A121F50F8210073
:1035400052F821200146684690471FBD2000002008
:1035500001490120087070473000002010B588B084
:10356000044620220E496846FCF7DCFE0620009047
:10357000C01F0190029003904FF0EB7006900CB1C9
:10358000084A00E0002269460748FEF7C9F908B179
:10359000FDF788FB0448001F447008B010BD000010
:1035A000943A000051350000340000202DE9FF4717
:1035B00005460C464FF400712846FEF74FFF0127E1
:1035C0004FF40178002618B34FF492794946284603
:1035D000FEF739FFE0B149462846FEF739FFC5F846
:1035E000088394F8290000B96F6002208DF800006C
:1035F000D5F88004C5F880040390A0690290E068C3
:103600000190A661E661D4E90012684690472BE07C
:1036100004212846FEF722FF30B34FF48471284678
:10362000FEF711FF00B321462846FFF7E7FB616A6A
:10363000A069884218D1E06950B1E268616AA0616E
:103640002069E060E66166622046FFF7F1FB0BE06F
:1036500094F8290000B96F60C5F80883A661E26894
:10366000616A2046FFF7E4FB4FF48E784146284616
:10367000FEF7E9FE78B1206A6169884202D294F8C7
:10368000280020B341462846FEF7E2FE616911B1E9
:103690002046FFF72DFF4FF4A27841462846FEF75B
:1036A000D2FE002818D041462846FEF7D1FE94F8F5
:1036B000290000B12F60A06900280DD0A661E26842
:1036C000616A04B02046BDE8F047FFF7B1BB214670
:1036D0002846FFF7FCFEDEE7BDE8FF871FB502784E
:1036E0008DF8002042680192027A8DF80820C068A7
:1036F00003900548044A121F50F8210052F8212077
:103700000146684690471FBD200000202DE9FF417B
:1037100005460C464FF4927739462846FEF7A4FE3C
:103720000026B8B139462846FEF7A3FE02208DF8E0
:103730000000D5F88004C5F880040390D5F83C0556
:103740000290E0680190A661E661D4E90012684643
:10375000904726E04FF4887739462846FEF784FEE6
:10376000F8B139462846FEF784FED5F83C15A06925
:10377000884216D1E06978B1E268D5F8000220F0FD
:103780002000C5F80002E069A0612069E060E66100
:103790002046FFF757FB04E0A6612046E268FFF7EA
:1037A00051FB4FF4A27739462846FEF75DFE68B11B
:1037B00039462846FEF75DFEA06938B1A661E6618C
:1037C000D5F83C152046E268FFF73CFB4FF49076B5
:1037D00031462846FEF748FE00280ED031462846DE
:1037E000FEF747FE6069002807D0D5F84C1504B0F5
:1037F0002046BDE8F041FFF787BEBDE8FF8100002D
:103800002DE9F05F8346DDE90A4A88461746994666
:103810004046012602E0B0FBF7F0761CB842FAD22F
:10382000B14500D94E465FEACA7012D18CB15FEA49
:103830008A7002D5B9F1000F01D0202506E03025AD
:1038400004E0641E29465846FDF73AFB0CB1A64237
:10385000F7D30125B9F1010F02D9A9F1010918E047
:10386000B8FBF5F0B84214D2DFF84090B8FBF5F0A1
:1038700000FB158819F800105846FDF721FBB5FB31
:10388000F7F5002DF2D15FEACA7000D044B9BDE867
:10389000F09F7D43DEE7641E20215846FDF710FBB4
:1038A000002CF4D0A642F6D3F1E700004A3900001C
:1038B0000200020000000000003000400000000094
:1038C000010000001B0000001A0000000000980129
:1038D00002010000000000000000000000000000E5
:1038E0000338FDD8704700001509000025090000C5
:1038F00001000000000000000000000000000000C7
:103900000000000065290000C92A000000000050E6
:103910006E7266785F6770696F74655F696E6974EF
:10392000006E7266785F6770696F74655F6F75743B
:103930005F696E6974006E7266785F6770696F7434
:10394000655F696E5F696E6974003031323334359A
:10395000363738394142434445460000556E6B6E58
:103960006F776E206572726F7220636F64650000FE
:1039700000000000AC3E0000010000006C3D0000B3
:1039800002000000603B000003000000E03D00007A
:1039900004000000343E000005000000143D00005B
:1039A00006000000B03C0000070000001C3E0000C4
:1039B00008000000283D0000090000008C3D0000C8
:1039C0000A000000943E00000B000000483B00008D
:1039D0000C000000403D00000D000000E43E00002F
:1039E0000E0000000C3E00000F000000483E0000EA
:1039F000100000007C3E000011000000F83E0000B6
:103A000080000000C83C000081000000043C000071
:103A100082000000C43B000083000000A43B0000C3
:103A200084000000E03B000085000000EC3C00004A
:103A300086000000F43D000090000000903C000073
:103A400091000000843B000092000000543D000003
:103A5000008200005C3E000001820000A83D0000E2
:103A600002820000C43D000000840000203C0000F1
:103A700001840000B83E000002840000683C0000A1
:103A800003840000443C0000091E0000D91D000012
:103A9000D11D0000FFFFFFFFFFFFFFFFFFFFFFFF44
:103AA000FFFFFFFF00000000000000000000D60143
:103AB00006010000A80200207F000000280300206B
:103AC0000040404040404040404041414141414031
:103AD00040404040404040404040404040404040E6
:103AE0004005020202020202020202020202020275
:103AF000022020202020202020202002020202027A
:103B000002029090909090901010101010101010D1
:103B100010101010101010101010101002020202DD
:103B20000202888888888888080808080808080821
:103B3000080808080808080808080808020202021D
:103B400040000000C13A00004E52465F4552524FBD
:103B5000525F494E56414C49445F44415441000034
:103B60004E52465F4552524F525F534F4654444562
:103B7000564943455F4E4F545F454E41424C454484
:103B8000000000004E52465F4552524F525F46457C
:103B900041545552455F4E4F545F454E41424C454E
:103BA000440000004E52465F4552524F525F4D5501
:103BB0005445585F554E4C4F434B5F4641494C4529
:103BC000440000004E52465F4552524F525F4D55E1
:103BD0005445585F4C4F434B5F4641494C45440068
:103BE0004E52465F4552524F525F4D555445585FB5
:103BF000434F4E445F494E49545F4641494C45440A
:103C0000000000004E52465F4552524F525F4D55E4
:103C10005445585F494E49545F4641494C4544001C
:103C20004E52465F4552524F525F424C455F49509B
:103C300053505F52585F504B545F5452554E43415E
:103C4000544544004E52465F4552524F525F424CDB
:103C5000455F495053505F504545525F52454A4574
:103C600043544544000000004E52465F4552524FB7
:103C7000525F424C455F495053505F4C494E4B5F39
:103C8000444953434F4E4E454354454400000000C1
:103C90004E52465F4552524F525F4150495F4E4F20
:103CA000545F494D504C454D454E5445440000002D
:103CB0004E52465F4552524F525F4E4F545F5355DE
:103CC00050504F52544544004E52465F4552524F59
:103CD000525F4D4F44554C455F4E4F545F494E49DE
:103CE0005449414C495A4544000000004E52465F39
:103CF0004552524F525F4D4F44554C455F414C52D7
:103D0000454144595F494E495449414C495A4544FB
:103D1000000000004E52465F4552524F525F4E4FD8
:103D2000545F464F554E44004E52465F4552524FE7
:103D3000525F494E56414C49445F535441544500EB
:103D40004E52465F4552524F525F444154415F5379
:103D5000495A45004E52465F4552524F525F494FB5
:103D60005F50454E44494E47000000004E52465FAA
:103D70004552524F525F5356435F48414E444C4563
:103D8000525F4D495353494E470000004E52465F23
:103D90004552524F525F494E56414C49445F4C4543
:103DA0004E475448000000004E52465F4552524F65
:103DB000525F4452565F5457495F4552525F414EDD
:103DC00041434B004E52465F4552524F525F445260
:103DD000565F5457495F4552525F444E41434B0032
:103DE0004E52465F4552524F525F494E5445524ED5
:103DF000414C00004E52465F4552524F525F535461
:103E00004F524147455F46554C4C00004E52465F6D
:103E10004552524F525F4E554C4C00004E52465F39
:103E20004552524F525F494E56414C49445F5041B2
:103E300052414D004E52465F4552524F525F4E4FD7
:103E40005F4D454D000000004E52465F4552524FB7
:103E5000525F464F5242494444454E004E52465FDF
:103E60004552524F525F4452565F5457495F455234
:103E7000525F4F56455252554E0000004E52465F1B
:103E80004552524F525F494E56414C49445F41445E
:103E9000445200004E52465F4552524F525F494EC7
:103EA00056414C49445F464C414753004E52465F91
:103EB00053554343455353004E52465F4552524F6C
:103EC000525F424C455F495053505F4348414E4E0C
:103ED000454C5F414C52454144595F455849535404
:103EE000530000004E52465F4552524F525F5449B4
:103EF0004D454F55540000004E52465F4552524FBB
:103F0000525F4255535900007761726E696E6700C7
:103F100064656275670000001B5B313B33306D00E8
:103F20001B5B306D000000001B5B313B33316D00CB
:103F30001B5B313B33326D001B5B313B33336D0018
:103F40001B5B313B33346D001B5B313B33356D0004
:103F50001B5B313B33366D001B5B313B33376D00F0
:103F6000696E666F000000006572726F720000007B
:103F7000505253005457494D0000000055415254CF
:103F80000000000055415254450000004750494F81
:103F900054450000756172745F6C6F675F626163A6
:103FA0006B656E64000000006170700020400000CE
:103FB00000000020A4000000040C0000C440000029
:103FC000A4000020C4260000140C0000883A000061
:103FD00000000000943F000048000020703F0000F7
:103FE00000000000743F0000000000007C3F000063
:103FF00000000000843F0000000000008C3F000033
:1040000000000303A83F0000000003035800002045
:104010005000002058000020E80100201800000097
:104020000000000000000000000000000000000090
:104030000000000000000000000000000000000080
:104040000000000000000000000000000000000070
:104050000000000000000000002000400000000000
:10406000002000400000000000000000FF000000F1
:104070000000000000000000000000000000000040
:10408000000000000000000000000000683F000089
:10409000083F0000603F0000103F0000203F00008C
:1040A000183F0000283F0000303F0000383F00006C
:1040B000403F0000483F0000503F0000583F0000D4
:0440C0000090D00399
:0400000500000201F4
:00000001FF
